:1000000068EA00205981000045810000318100002C
:100010001D8100001D8100001D8100000000000006
:10002000000000000000000000000000F1160000C9
:100030001D81000000000000C11800000919000027
:100040001D8100001D8100001D8100001D81000038
:100050001D8100001D8100001D8100001D81000028
:100060001D8100001D8100001D8100001D81000018
:100070001D8100001D8100001D8100001D81000008
:100080001D8100001D8100001D8100001D810000F8
:100090001D8100001D8100001D8100001D810000E8
:1000A0001D8100001D8100001D8100001D810000D8
:1000B0001D8100001D8100001D8100001D810000C8
:1000C0001D8100001D8100001D8100001D810000B8
:1000D0001D8100001D8100001D8100001D810000A8
:1000E0001D810000000000001D8100001D81000036
:1000F00080B584B002AF00237B6014E07B68104AB7
:1001000098187B680F4A82FB03129210DB17D31AF0
:10011000DB001A46012300930F23002100F0DEF8D4
:100120007B6815337B60064A7B68134493F9003083
:10013000002BE3D100BF00BF0837BD4680BD00BF24
:100140006C010020310CC33080B500AF064B1B782A
:1001500003F07F00044B5B7803F03F0101230F2283
:1001600000F02CFA00BF80BD6C05002080B582B085
:1001700002AF0E4B1B78002B02D0012B09D011E0EF
:10018000012300930F2300220021094800F0A6F864
:1001900008E0012300930F2300220021054800F00E
:1001A0009DF800BF00BFBD4680BD00BF6E050020AA
:1001B000BC9C0000D09C000080B584B000AF78608B
:1001C0003960124B1B78DBB2002B1AD00022802141
:1001D0000F4808F0B3F910E07B685A1C7A601B786E
:1001E00019460C4808F0AAFB07F10C031946094808
:1001F00008F0B4FB3B68013B3B603B68002BEBD154
:1002000000E000BF1037BD4680BD00BF7019002060
:10021000006000400080004080B584B000AF78608E
:100220003960124B1B78DBB2002B1AD08022802160
:100230000F4808F083F910E07B685A1C7A601B783D
:1002400019460C4808F07AFB07F10C0319460948D7
:1002500008F084FB3B68013B3B603B68002BEBD123
:1002600000E000BF1037BD4680BD00BF7019002000
:10027000006000400080004080B582B000AF0321E4
:100280001248FFF799FF03211148FFF795FF02215C
:100290001048FFF791FF00233B600FE000237B60D5
:1002A00006E008210C48FFF7B7FF7B6808337B6046
:1002B0007B684F2BF5D93B6801333B603B683F2B94
:1002C000ECD900BF00BF0837BD4680BD149F0000B9
:1002D000189F0000DC9C00007419002080B588B0D5
:1002E00000AFF860B9607A60FB7097F82830002B97
:1002F00040F0C780684B15221A70BB685B08DAB201
:10030000654B5A70644B3F229A7003216248FFF795
:1003100053FF614B75221A707B68DAB25E4B5A70DC
:100320007B68DBB20733DAB25B4B9A7003215A4821
:10033000FFF742FF02215948FFF73EFFA1E0FB68AB
:1003400093F90030FB75FB7D03F07F03FB75FB7DAC
:100350001F2B02D82023FB7502E0FB7D203BFB75A1
:100360000023FB6186E00023BB6149E04A4ABB6988
:10037000134400221A70FA7DFB695900484813465D
:100380009B00134403440B441B781A46BB6942FA92
:1003900003F303F00103002B07D0FB781B01D9B254
:1003A0003D4ABB6913440A461A70FB69012B24D8E5
:1003B000FA7DFB695B00591C394813469B001344C6
:1003C00003440B441B781A46BB6942FA03F303F05B
:1003D0000103002B11D0304ABB6913441B785AB279
:1003E00097F9033003F00F035BB213435BB2D9B24A
:1003F000294ABB6913440A461A70BB690133BB61C1
:10040000BB69072BB2D9BB687D2B41D897F8283040
:10041000002B04D108212048FFF7FEFE24E0002332
:100420003B611EE07A683B69D1181B4A3B69134463
:100430001B781B09DAB20123B86800F0BFF8BB686B
:10044000581C7A683B69D118134A3B6913441B78DE
:1004500003F00F03DAB2012300F0B0F83B69013377
:100460003B613B69072BDDD9BB680233BB60FB698D
:100470000133FB61FB69022B7FF675AFFB6801332B
:10048000FB60FB6893F90030002B7FF458AF00E06D
:1004900000BF2037BD4680BD7C190020DC9C0000D9
:1004A000E49C000080B588B000AFF860B9607A6065
:1004B0003B6097F82C30002B2CD13E4B15221A7044
:1004C000BB685B08DAB23B4B5A70BA683B681344AE
:1004D000023B5B08DAB2374B9A7003213548FFF7CD
:1004E0006BFE344B75221A707B68DAB2314B5A704E
:1004F0007B68DAB2BB6ADBB21344DBB2013BDAB22F
:100500002C4B9A7003212B48FFF756FE02212A48F4
:10051000FFF752FEBB6A7B6143E097F82C30002B5B
:1005200031D00023FB6129E0FB695A087969BB6A75
:10053000CB1A3968490801FB03F31344FA681344E2
:100540001B78FB76FB6903F00103002B03D1FB7ED4
:100550001B09FB7603E0FB7E03F00F03FB76BA6812
:10056000FB69D0187A687B691A44BB6AD11AFA7E93
:10057000012300F023F8FB690133FB61FA693B6852
:100580009A42D1D30AE03B685B081946F868FFF746
:1005900043FE3B685B08FA681344FB60BB6A013B9F
:1005A000BB62BB6A002BB8D100BF00BF2037BD467D
:1005B00080BD00BF84190020E09C000080B584B09D
:1005C00000AFF860B96011461A460B46FB7113463E
:1005D000BB71BB79002B1BD0BB689A01FB685B0821
:1005E0001A4426498A5C51B2FA6802F00102002AD4
:1005F00003D1FA79120152B201E097F907200A43B8
:1006000051B2BA6892011344C9B21C4AD15431E0C4
:100610001B4B15221A70FB685B08DAB2184B5A7034
:10062000174B3F229A7003211548FFF7C5FD144B65
:1006300075221A70BB68DAB2114B5A70BB68DBB214
:100640000733DAB20E4B9A7003210D48FFF7B4FD61
:100650000B4AFB791370FB6803F00103002B05D1F3
:10066000074B1B781B01DAB2054B1A7001210448B5
:10067000FFF7D2FD00BF1037BD4680BD70050020DA
:100680008C19002080B588B000AFF860B9607A603E
:100690003B6097F82C30002B1ED07B687B6117E005
:1006A000FA687B681344581EBA683B681344591EA5
:1006B00097F828200123FFF781FF7B68013B7B60CF
:1006C0007B68002BECD13B68013B3B607B697B6026
:1006D0003B68002BF4D196E04D4B15221A70FB6855
:1006E0005B08DAB24A4B5A70FA687B681344023BE3
:1006F0005B08DAB2FB68D9B27B68DBB20B44DBB2D1
:1007000003F00103DBB21344DAB2414B9A700321C8
:100710003F48FFF751FD3E4B75221A70BB68DAB2B5
:100720003B4B5A70BB68DAB23B68DBB21344DBB2B6
:10073000013BDAB2364B9A7003213548FFF73CFD96
:1007400002213448FFF738FD97F828301B015AB2D0
:1007500097F9283013435BB2DAB22D4B1A7097F831
:1007600028301B01DAB22A4B5A70294A97F82830F0
:1007700093707B685A087B6803F001031344FA689E
:1007800002F00102002A08D0F9687A680A4402F0EF
:100790000102002A01D0012200E000221344BB61C3
:1007A0002EE0BB69FB6125E0FB69012B0CD1FA68E7
:1007B0007B68134403F00103002B05D0164B012185
:1007C0001846FFF729FD12E0FA69BB699A420AD17F
:1007D000FB6803F00103002B05D0104B01211846E4
:1007E000FFF71AFD03E001210948FFF715FDFB693A
:1007F000013BFB61FB69002BD6D13B68013B3B60B1
:100800003B68002BCDD100BF2037BD4680BD00BF67
:1008100094190020E09C00009519002096190020F2
:1008200080B586B002AF7860174808F06FF808F01E
:10083000ADFA0146082301937B680093002301224F
:10084000114808F039F808214FF0402007F0F8FE71
:100850000A23042208214FF0402007F07DFD0A48BA
:1008600008F04EF800BF07F10C031946064808F0DF
:100870007FF80346002BF6D1044B01221A7000BF0B
:100880001037BD4680BD00BF0080004070190020B9
:1008900080B582B000AF134B00221A7000BF3B1D21
:1008A0001946114808F064F80346002BF7D10E48AA
:1008B00008F02CF8012208214FF0402007F0CAFC74
:1008C0000A23042208214FF0402007F045FD0822AA
:1008D00008214FF0402007F031FE00BF0837BD4629
:1008E00080BD00BF701900200080004080B584B03A
:1008F00000AF78602D4808F0C3F82D4808F0C0F824
:100900002C4808F0BDF82C4808F0BAF83C214FF00C
:10091000402007F095FE0A23042204214FF04020D6
:1009200007F01AFD0A23042208214FF0402007F0A7
:1009300013FD0A23042220214FF0402007F00CFD74
:10094000012280211D4807F085FC08230422802114
:100950001A4807F001FD80228021184807F0EEFDBB
:100960007868FFF75DFFFFF787FC0023FB6015E069
:10097000FB680133124A1A441149FB680B441B7887
:10098000013B19461046FFF717FC0D4AFB6813445C
:100990001B781A46FB6813440133FB60FB684D2B40
:1009A000E6D900BF00BF1037BD4680BD1000001063
:1009B0000100002002000020040000200060004030
:1009C000C49E000080B582B000AF00237B6015E0BC
:1009D0007B6801330D4A1A440C497B680B441B7831
:1009E000013B19461046FFF7E7FB084A7B681344B2
:1009F0001B781A467B68134401337B607B684D2B60
:100A0000E6D900BF00BF0837BD4680BDC49E0000C8
:100A100080B500AF03210248FFF7CEFB00BF80BDC9
:100A20001C9F000080B584B002AF002301935023C7
:100A300000938023002200210C48FFF733FD41F290
:100A4000FF337B6007E0094A7B68134400221A7079
:100A50007B68013B7B607B68002BF4D1034B002259
:100A60001A7000BF0837BD4680BD00BF700500206A
:100A700080B500AF5AE0324808F072FB03465AB224
:100A8000304B1A702F4B93F90030DBB219462C48CB
:100A900008F078FB2B4B93F900301B2B17D12A4B16
:100AA00000221A7009E0294B1B68294A0021D15401
:100AB000264B1B68013B254A1360244B1B68002B07
:100AC000F1DC224B1B68224A0021D15436E01D4B39
:100AD00093F90030082B1DD11C4B1B68002B2CD028
:100AE000184B20221A70174B93F90030DBB21946CD
:100AF000134808F047FB0821114808F043FB134B4B
:100B00001B68013B114A1360104B1B68104A0021FF
:100B1000D1540BE00D4B1B680A4A92F900100C4AA5
:100B2000D1540A4B1B680133084A1360044808F08B
:100B3000FFFA0346002B9ED100E000BF80BD00BF3E
:100B400000C000409C190020A5190020A019002019
:100B50006C01002080B582B000AF00237B600023D1
:100B6000FB704DE0314808F0FBFA03465AB2304BB7
:100B70001A702F4B93F900300D2B01D1042350E054
:100B800097F90330002B3BD17B68022B17D07B6891
:100B9000022B32DC7B68002B03D07B68012B07D053
:100BA0002BE0234B93F900301B2B23D0062338E096
:100BB0001F4B93F900305B2B1ED0062331E01C4BFA
:100BC00093F90030413B032B12D801A252F823F0D5
:100BD000E10B0000E50B0000E90B0000ED0B00004D
:100BE00000231EE001231CE002231AE0032318E087
:100BF000062316E000BF00E000BF7B6801337B6086
:100C00000A4808F095FA0346002B02D07B68022BB5
:100C1000A8DD074B93F900301B2B01D1052300E021
:100C2000062318460837BD4680BD00BF00C00040FF
:100C3000A419002080B582B000AFFFF78BFF0346F8
:100C4000FB71FB79052B35D801A252F823F000BFC8
:100C5000690C0000770C0000850C0000930C00006C
:100C6000B50C0000A10C0000154B5B78013BDAB21B
:100C7000134B5A701FE0124B5B780133DAB2104B02
:100C80005A7018E00E4B1B780133DAB20C4B1A7015
:100C900011E00B4B1B78013BDAB2094B1A700AE0EA
:100CA000084B00221A70064B00221A70044B0022D7
:100CB0005A7000E000BF00BF0837BD4680BD00BFCE
:100CC0006C050020A519002080B582B000AFFFF7A9
:100CD00041FF0346BB710023FB71BB79052B24D870
:100CE00001A252F823F000BF010D00000F0D00001B
:100CF0002B0D00002B0D00001D0D0000230D00002A
:100D0000154B1B78013BDAB2134B1A700EE0124BF5
:100D10001B780133DAB2104B1A7007E00123FB7124
:100D200004E00E4B00221A7000E000BF0A4B1B7853
:100D300003F00103DAB2084B1A7097F90730002B61
:100D400005D0054B1B780133DAB2044B1A7000BF93
:100D50000837BD4680BD00BF6E050020A5190020E4
:100D600080B58CB000AFF860B9607A603B6000235A
:100D7000BB61BB68002B02D0BB68013BBB6000239A
:100D8000BB61C3E10023FB6202E0FB6A0133FB624B
:100D90007A68FB6A134493F90030252B06D07A68F1
:100DA000FB6A134493F90030002BEED1FA6ABB685A
:100DB0009A420BD9BA687968F86808F0ABFAFA6811
:100DC000BB681344FB600023BB600CE0FA6A7968DF
:100DD000F86808F09FFAFA68FB6A1344FB60BA6887
:100DE000FB6AD31ABB60BA69FB6A1344BB617A68B9
:100DF000FB6A13447B607B6893F90030252B40F03D
:100E000084817B6801337B6000237B622023FB7736
:100E10007B685A1C7A6093F90030782B00F3568176
:100E2000582B0ADA252B00F04081252BC0F24E8189
:100E3000303B092B00F24A8148E0583B202B00F25E
:100E4000458101A252F823F0DD0F0000CD10000013
:100E5000CD100000CD100000CD100000CD1000001E
:100E6000CD100000CD100000CD100000CD1000000E
:100E7000CD100000030F00002D0F0000CD1000006A
:100E8000CD100000CD100000CD100000CD100000EE
:100E9000CD100000CD100000CD100000CD100000DE
:100EA000CD100000CD100000CD100000CD100000CE
:100EB000CD100000650F0000CD100000CD0F000028
:100EC000CD100000CD100000DD0F00007B68013B5D
:100ED00093F90030302B04D17B6A002B01D13023F1
:100EE000FB777A6A13469B0013445B007B627B6846
:100EF000013B93F900301A467B6A1344303B7B6216
:100F000086E73B681A1D3A601B68BB62BB68002B12
:100F100008D0FB685A1CFA60BA6A52B21A70BB68F1
:100F2000013BBB60BB690133BB61EFE03B681A1D4D
:100F30003A601B68BB62BB6A002B10DABB6A5B427B
:100F4000BB62BB68002B07D0FB685A1CFA602D22DD
:100F50001A70BB68013BBB60BB690133BB610A23EC
:100F60003B6242E03B681A1D3A601B687B610023CC
:100F7000FB6202E0FB6A0133FB627A69FB6A13449D
:100F800093F90030002BF5D1FA6ABB689A420BD96D
:100F9000BA687969F86808F0BDF9FA68BB68134463
:100FA000FB600023BB600CE0FA6A7969F86808F01E
:100FB000B1F9FA68FB6A1344FB60BA68FB6AD31A9A
:100FC000BB60BA69FB6A1344BB619FE03B681A1DB2
:100FD0003A601B68BB620A233B6206E03B681A1D4D
:100FE0003A601B68BB6210233B620123FB6207E08F
:100FF000FB6A3A6A02FB03F3FB627B6A013B7B629A
:10100000FB6A3A6A02FB03F3BA6A9A4209D3FB6AA3
:101010003A6A03FB02F23B6AB2FBF3F3FA6A9A42C2
:10102000E6D07B6A012B3CD97B6A0F2B39D87B6ACF
:10103000013B7B6210E0BB68002B07D0FB685A1CA9
:10104000FA60FA7F1A70BB68013BBB60BB69013371
:10105000BB617B6A013B7B627B6A002BEBD120E0AA
:10106000BB68002B15D03048BA6AFB6AB2FBF3F3B9
:101070003A6AB3FBF2F2396A01FB02F29B1AC21818
:10108000FB68591CF96092F900201A70BB68013B9B
:10109000BB60BB690133BB61FA6A3B6AB2FBF3F325
:1010A000FB62FB6A002BDBD130E0BB68002B09D070
:1010B000FB685A1CFA607A6812F9012C1A70BB6836
:1010C000013BBB60BB690133BB611FE0BB68042B04
:1010D0000CD9FB68154A1068186012791A71FB6800
:1010E0000533FB60BB68053BBB600AE0BA680F498B
:1010F000F86808F00FF9FA68BB681344FB60002336
:10110000BB60BB690533BB6100E000BF7B6893F93E
:101110000030002B7FF436AEFB6800221A70BB69EA
:1011200018463037BD4680BD209F0000349F000028
:101130000EB480B585B000AF786007F12003BB60C6
:10114000BB68FA694FF6FF717868FFF709FEF8602F
:10115000FB6818461437BD46BDE8804003B07047B1
:101160000CB480B584B000AF7860396007F11C031F
:10117000BB60BB68BA6939687868FFF7F1FDF86051
:10118000FB6818461037BD46BDE8804002B0704786
:1011900080B588B000AF786000237B6104F04CF923
:1011A0004C4B1B68002B01D100F03CF97B68002BF5
:1011B00012D008227B6803F00703D31A08333B617F
:1011C0003B69DB437A689A4204D87A683B691344E6
:1011D0007B6001E000237B607B68002B69DB7B6820
:1011E000002B66D03C4B1B687A689A4261D83B4B17
:1011F000BB613A4B1B68FB6104E0FB69BB61FB69A7
:101200001B68FB61FB695B687A689A4203D9FB69DA
:101210001B68002BF1D12F4B1B68FA699A4248D00A
:10122000BB691B68082213447B61FB691A68BB69B0
:101230001A60FB695A687B68D21A08235B009A42DD
:1012400018D9FA697B681344FB60FB6803F0070355
:10125000002B03D0DC21224806F006FFFB695A6808
:101260007B68D21AFB685A60FB697A685A60F86832
:1012700000F034F9184B1A68FB695B68D31A164AF8
:101280001360154B1A68174B1B689A4203D2124B16
:101290001B68144A1360FB695B6843F00042FB69FA
:1012A0005A60FB6900221A600F4B1B6801330E4A1B
:1012B000136004F0CFF87B6903F00703002B04D020
:1012C0004FF48E71064806F0CFFE7B691846203732
:1012D000BD4680BDB0E10020B4E10020A8E10020BF
:1012E000449F0000B8E10020BCE1002080B584B03C
:1012F00000AF78607B68FB607B68002B3DD00823E3
:101300005B42FA681344FB60FB68BB60BB685B68C8
:10131000002B04DB40F22F111A4806F0A5FEBB6833
:101320001B68002B04D04FF49871164806F09CFE01
:10133000BB685B68DB0F03F00103DBB2002B1CD042
:10134000BB681B68002B18D1BB685B6823F00042A8
:10135000BB685A6004F070F8BB685A680A4B1B6897
:101360001344094A1360B86800F0B8F8074B1B68CB
:101370000133064A136004F06DF800BF1037BD4614
:1013800080BD00BF449F0000B4E10020C0E1002008
:1013900080B400AF024B1B681846BD4680BC704746
:1013A000B4E1002080B400AF024B1B681846BD4674
:1013B00080BC7047B8E1002080B400AF00BFBD46DC
:1013C00080BC704780B584B000AF7860396000237E
:1013D000FB607B68002B09D04FF0FF327B68B2FBCB
:1013E000F3F33A689A4201D9012300E00023002B6D
:1013F00013D17B683A6802FB03F31846FFF7C8FE77
:10140000F860FB68002B08D07B683A6802FB03F3A6
:101410001A460021F86807F029FFFB6818461037C4
:10142000BD4680BD80B485B000AF4FF44843BB607B
:10143000254BFB60FB6803F00703002B0CD0FB6817
:101440000733FB60FB6823F00703FB60BA68FB68A7
:10145000D31A1D4A1344BB60FB687B601B4A7B6840
:1014600013601A4B00225A607B68BA681344FB6011
:101470000822FB689B1AFB60FB6823F00703FB60F4
:10148000FB68134A1360124B1B6800225A60104B12
:101490001B6800221A607B683B603B68FA68D21ABE
:1014A0003B685A600A4B1A683B681A603B685B6885
:1014B000084A13603B685B68074A136000BF143733
:1014C000BD4680BC704700BFA8190020A8E10020DD
:1014D000B0E10020B8E10020B4E1002080B485B084
:1014E00000AF7860274BFB6002E0FB681B68FB6085
:1014F000FB681B687A689A42F7D8FB68BB60FB6898
:101500005B68BA6813447A689A4208D1FB685A68E3
:101510007B685B681A44FB685A60FB687B607B6889
:10152000BB607B685B68BA681A44FB681B689A42B8
:1015300018D1FB681A68144B1B689A420DD07B685F
:101540005A68FB681B685B681A447B685A60FB68D2
:101550001B681A687B681A6008E00B4B1A687B6886
:101560001A6003E0FB681A687B681A60FA687B6897
:101570009A4202D0FB687A681A6000BF1437BD46F1
:1015800080BC7047A8E10020B0E1002080B586B0A3
:1015900000AF786000233B610023FB604FF0FF3316
:1015A000BB6003F049FF224B1B687B617B69002B0A
:1015B0001BD015E03B6901333B617B695B68FA68CE
:1015C0009A4202D27B695B68FB607B695B68BA68A0
:1015D0009A4202D97B695B68BB607B691B687B614F
:1015E000144B1B687A699A42E4D103F033FF7B689D
:1015F000FA685A607B68BA689A607B683A69DA6010
:1016000000F00EF90C4B1A687B681A600B4B1A68D5
:101610007B685A610A4B1A687B689A61094B1A68A1
:101620007B681A6100F026F900BF1837BD4680BDFF
:10163000A8E10020B0E10020B4E10020BCE10020DE
:10164000C0E10020B8E1002080B485B000AFF860B0
:10165000B9607A60FB68043BFB60FB684FF0807206
:101660001A60FB68043BFB60BB6823F00102FB6867
:101670001A60FB68043BFB60084AFB681A60FB6861
:10168000143BFB607A68FB681A60FB68203BFB60D8
:10169000FB6818461437BD4680BC7047A116000091
:1016A00080B582B000AF00233B600E4B1B68B3F1E6
:1016B000FF3F03D0D1210C4806F0D6FC4FF00503C4
:1016C00083F31188BFF36F8FBFF34F8F7B6000BF31
:1016D00000BF3B68002BFCD000BF00BF0837BD46F1
:1016E00080BD00BF00010020889F000000000000B6
:1016F000074B19680868B0E8F00F80F30988BFF35A
:101700006F8F4FF0000080F311884EF00D0E704780
:101710001CE2002000BF00BF06480068006880F39C
:10172000088862B661B6BFF34F8FBFF36F8F00DFDB
:1017300000BF000008ED00E000BF00BF80B584B02E
:1017400000AF294BFB60FB681B78DBB2BB60FB681A
:10175000FF221A70FB681B78DBB2FB71FB79DBB2EE
:1017600003F00503DAB2214B1A70214B07221A60ED
:1017700009E01F4B1B68013B1D4A1360FB79DBB27C
:101780005B00DBB2FB71FB79DBB203F08003802BE3
:10179000EFD0174B1B681B02154A1360144B1B68D4
:1017A00003F4E063124A1360BB68DAB2FB681A7094
:1017B000104B1B680F4A43F47F0313600D4B1B68EB
:1017C0000C4A43F07F43136000F0C0F80A4B00223C
:1017D0001A60FFF7A1FF04F061F9FFF761FF002332
:1017E00018461037BD4680BD00E400E0C4E100208B
:1017F000C8E1002020ED00E00001002080B500AF2E
:10180000054B1B68B3F57A7F04D040F26F11034893
:1018100006F02AFC00BF80BD00010020889F000068
:1018200080B582B000AF4FF0050383F31188BFF39A
:101830006F8FBFF34F8F7B6000BF0B4B1B68013373
:10184000094A1360084B1B68012B09D1074B1B6821
:10185000DBB2002B04D040F27F11054806F004FCF7
:1018600000BF0837BD4680BD0001002004ED00E048
:10187000889F000080B582B000AF0E4B1B68002B24
:1018800004D14FF4C3710C4806F0EEFB094B1B6802
:10189000013B084A1360074B1B68002B05D100234E
:1018A0007B607B6883F3118800BF00BF0837BD46AB
:1018B00080BD00BF00010020889F000000000000E4
:1018C000EFF30980BFF36F8F0D4B1A6820E9F00F1B
:1018D00010602DE908404FF0050080F3118804F0F6
:1018E000DDF84FF0000080F31188BDE8084019686A
:1018F0000868B0E8F00F80F30988BFF36F8F704776
:101900001CE2002000BF00BF80B582B000AF4FF0E6
:10191000050383F31188BFF36F8FBFF34F8F7B6095
:1019200000BF03F0A1FF0346002B03D0064B4FF08E
:1019300080521A6000233B603B6883F3118800BF2C
:1019400000BF0837BD4680BD04ED00E080B400AFA5
:10195000084B00221A60084B00221A60074B4CF219
:101960004F321A60034B07221A6000BFBD4680BC8D
:10197000704700BF10E000E018E000E014E000E075
:1019800080B582B000AFEFF305837B607B680F2BDF
:101990000ED9104A7B6813441B78FB700E4B1B78E2
:1019A000FA789A4204D240F2E6210C4806F05CFB39
:1019B0000B4B1B6803F4E0620A4B1B689A4204D984
:1019C00040F2F621054806F04FFB00BF0837BD4640
:1019D00080BD00BFF0E300E0C4E10020889F00006C
:1019E0000CED00E0C8E1002080B584B000AF786065
:1019F0007B68002B03D16521104806F035FB2023BE
:101A0000BB60BB68202B03D06D210C4806F02CFB7B
:101A10007B68FB60FB68002B0AD0FB6800221A6021
:101A2000FB680433184600F00DFBFB6801221A77AF
:101A3000FB6818461037BD4680BD00BFCC9F000034
:101A400080B582B000AF2020FFF7A2FB78607B68F2
:101A5000002B0AD07B6800221A607B68043318468A
:101A600000F0F0FA7B6800221A777B681846083786
:101A7000BD4680BD80B58AB000AFF860B9607A60BD
:101A80003B60FB683B620023FB617B6803F07F43A4
:101A9000002B03D0CC21434806F0E6FA7B68002BEC
:101AA00003D1CD213F4806F0DFFA04F025FD0346BF
:101AB000002B02D13B68002B01D1012300E0002361
:101AC000002B03D1D021374806F0CEFA03F0B4FC46
:101AD0003B6A1B68BB61B968F86800F085F9BA69B0
:101AE000BB681A437B6813407A689A420DD1BA6981
:101AF000BB6813437B623B6A1A687B68DB431A400E
:101B00003B6A1A6000233B6013E03B68002B0BD05C
:101B10003B6A181D7B6843F0A0633A68194604F0DD
:101B200059F800237B6204E03B6A1B687B62012357
:101B3000FB6103F08FFC78613B68002B2CD07B6944
:101B4000002B07D1184B4FF080521A60BFF34F8F14
:101B5000BFF36F8F04F090FF78627B6A03F000732D
:101B6000002B15D1FFF75CFE3B6A1B687B627A6A2B
:101B70007B6813407A689A4206D13B6A1A687B6890
:101B8000DB431A403B6A1A60FFF774FE0123FB61D6
:101B90007B6A23F07F437B627B6A18462837BD4609
:101BA00080BD00BFCC9F000004ED00E080B58CB08C
:101BB00000AFF860B9607A603B60FB687B6200232D
:101BC000BB6200233B62FB68002B04D14FF4A5717C
:101BD000504806F049FABB6803F07F43002B04D05D
:101BE00040F24B114B4806F03FFABB68002B04D182
:101BF0004FF4A671474806F037FA04F07DFC03461F
:101C0000002B02D1BB6B002B01D1012300E000238C
:101C1000002B04D140F24F113E4806F025FA03F0A4
:101C20000BFC7B6A1B68FB613A68B968F86900F0D5
:101C3000B1F9B861BB69002B0ED0FB69FB620023D0
:101C4000BB637B68002B28D07B6A1A68BB68DB43C8
:101C50001A407B6A1A6020E0BB6B002B04D1FB6941
:101C6000FB6201233B6218E07B68002B03D0BB6A58
:101C700043F08073BB623B68002B03D0BB6A43F028
:101C80008063BB627B6A181DBA68BB6A1343BA6B78
:101C9000194603F09FFF0023FB6203F0DBFB786132
:101CA000BB6B002B31D07B69002B07D11A4B4FF057
:101CB00080521A60BFF34F8FBFF36F8F04F0DCFECA
:101CC000F862FB6A03F00073002B1AD1FFF7A8FD3E
:101CD0007B6A1B68FB623A68B968F86A00F05AF9D7
:101CE0000346002B09D07B68002B06D07B6A1A685C
:101CF000BB68DB431A407B6A1A6001233B62FFF733
:101D0000B9FDFB6A23F07F43FB62FB6A184630375C
:101D1000BD4680BDCC9F000004ED00E080B584B0DE
:101D200000AF786039607B68FB607B68002B04D172
:101D300040F2E1110F4806F097F93B6803F07F434A
:101D4000002B04D04FF4F1710A4806F08DF9FFF72B
:101D500067FDFB681B68BB60FB681A683B68DB4378
:101D60001A40FB681A60FFF785FDBB6818461037FC
:101D7000BD4680BDCC9F000080B584B000AF7860C8
:101D8000396000233A687968044806F049F8F86039
:101D9000FB6818461037BD4680BD00BF7B1F0000A2
:101DA00080B489B000AF78607B68FB61EFF311828B
:101DB0004FF0050383F31188BFF36F8FBFF34F8F8D
:101DC000FA60BB60FB68BB61FB691B687B61BB6938
:101DD0003B613B6983F3118800BF7B691846243758
:101DE000BD4680BC7047000080B58CB000AF786005
:101DF00039600023BB627B683B6200237B627B68A7
:101E0000002B04D140F22221374806F02DF93B681F
:101E100003F07F43002B04D040F22321324806F028
:101E200023F93B6A0433FB61FB690833BB6103F0B0
:101E300003FBFB69DB68FB623B6A1A683B681A4379
:101E40003B6A1A603CE0FB6A5B687B61FB6A1B686B
:101E50003B6100237B623B6903F07F43FB603B698E
:101E600023F07F433B61FB6803F08063002B08D1C4
:101E70003B6A1A683B691340002B0BD001237B623D
:101E800008E03B6A1A683B6913403A699A4201D1FB
:101E900001237B627B6A002B10D0FB6803F0807308
:101EA000002B03D0BA6A3B691343BB623B6A1B68D1
:101EB00043F000731946F86A03F0EAFF7B69FB629E
:101EC000FA6ABB699A42BED13B6A1A68BB6ADB43B5
:101ED0001A403B6A1A6003F0BDFA3B6A1B68184659
:101EE0003037BD4680BD00BFCC9F000080B584B0B8
:101EF00000AF78607B68FB60FB68002B04D140F288
:101F00007A21164806F0B0F8FB680433BB6003F092
:101F100093FA11E0BB68DA68BB6808339A4204D1CF
:101F200040F286210D4806F09FF8BB68DB684FF051
:101F30000071184603F0ACFFBB681B68002BE9D1A9
:101F400003F088FAFB681B7F002B02D1F868FFF7CB
:101F5000CDF900BF1037BD4680BD00BFCC9F00004B
:101F600080B582B000AF7860396039687868FFF773
:101F70003BFF00BF0837BD4680BD80B582B000AFD3
:101F80007860396039687868FFF7C8FE00BF0837A5
:101F9000BD4680BD80B487B000AFF860B9607A609C
:101FA00000237B617B68002B07D1FA68BB68134074
:101FB000002B0AD001237B6107E0FA68BB6813405D
:101FC000BA689A4201D101237B617B6918461C37AC
:101FD000BD4680BC7047000080B586B000AFF86099
:101FE000B9607A607B68BA68F968044805F018FF40
:101FF00078617B6918461837BD4680BD611F0000B7
:1020000080B485B000AF78607B68BB607B68002BD4
:1020100002D10023FB6002E0BB689B69FB60FB68A8
:1020200018461437BD4680BC704780B483B000AFFB
:10203000786039607B683A689A6100BF0C37BD46AA
:1020400080BC704780B483B000AF78607B6803F1D8
:1020500008027B685A607B684FF0FF329A607B68A9
:1020600003F108027B68DA607B6803F108027B6891
:102070001A617B6800221A6000BF0C37BD4680BC25
:10208000704780B483B000AF78607B6800221A612B
:1020900000BF0C37BD4680BC704780B485B000AF30
:1020A000786039607B685B68FB603B68FA685A60FF
:1020B000FB689A683B689A60FB689B683A685A605C
:1020C000FB683A689A603B687A681A617B681B68AB
:1020D0005A1C7B681A6000BF1437BD4680BC70472D
:1020E00080B485B000AF786039603B681B68BB6026
:1020F000BB68B3F1FF3F03D17B681B69FB600CE059
:102100007B680833FB6002E0FB685B68FB60FB6890
:102110005B681B68BA689A42F6D2FB685A683B68EB
:102120005A603B685B683A689A603B68FA689A60F4
:10213000FB683A685A603B687A681A617B681B687A
:102140005A1C7B681A6000BF1437BD4680BC7047BC
:1021500080B485B000AF78607B681B69FB607B68EA
:102160005B687A6892689A607B689B687A68526854
:102170005A60FB685B687A689A4203D17B689A6808
:10218000FB685A607B6800221A61FB681B685A1E54
:10219000FB681A60FB681B6818461437BD4680BC94
:1021A0007047000080B584B000AF786039600123CB
:1021B000FB607B68BB60BB68002B04D14FF4977158
:1021C000394805F051FFBB68002B5DD0BB68DB6B65
:1021D000002B59D0BB681A6CBB68DB6B0021A3FBDA
:1021E0000223002B00D001210B46002B4CD1FFF71E
:1021F00017FBBB681A68BB68DB6BB968096C01FB2D
:1022000003F31A44BB689A60BB6800229A63BB68F8
:102210001A68BB685A60BB681A68BB68DB6B013B15
:10222000B968096C01FB03F31A44BB68DA60BB6848
:10223000FF2283F84420BB68FF2283F845203B68D7
:10224000002B14D1BB681B69002B1AD0BB6810335C
:10225000184603F04DFD0346002B12D0134B4FF0F0
:1022600080521A60BFF34F8FBFF36F8F09E0BB68D6
:1022700010331846FFF7E6FEBB6824331846FFF715
:10228000E1FEFFF7F7FA01E00023FB60FB68002B9B
:1022900004D140F26311044805F0E6FEFB681846DD
:1022A0001037BD4680BD00BF04A0000004ED00E073
:1022B00080B588B002AFF860B9607A603B600023F7
:1022C0007B613B68002B04D140F277111E4805F07A
:1022D000CBFEFB68002B2AD03B68002B27D07B6805
:1022E000002B02D0BB68002B21D07B68002B02D1D1
:1022F000BB68002B1BD154233B613B69542B04D09A
:1023000040F28911104805F0AFFE3B693B687B61E4
:102310007B69012283F8462097F820207B6900938F
:1023200013467A68B968F86800F05EF807E07B69E0
:10233000002B04D14FF4D071034805F095FE7B6962
:1023400018461837BD4680BD04A0000080B58AB08D
:1023500002AFF860B9601346FB710023FB61FB68B4
:10236000002B32D00021BA68FB68A3FB0223002BAC
:1023700000D001210B46002B27D1FB68BA6802FB75
:1023800003F313F1550F20D8FB68BA6802FB03F37F
:10239000BB61BB6954331846FEF7FAFEF861FB696E
:1023A000002B1AD0FB697B617B6954337B61FB692D
:1023B000002283F84620FA79FB69009313467A6974
:1023C000B968F86800F010F807E0FB69002B04D149
:1023D0004FF4F271034805F047FEFB6918462037B9
:1023E000BD4680BD04A0000080B584B000AFF86099
:1023F000B9607A60FB70BB68002B03D1BB69BA6916
:102400001A6002E0BB697A681A60BB69FA68DA632D
:10241000BB69BA681A640121B869FFF7C3FEBB69DA
:10242000FA7883F85020BB6900229A6400BF103705
:10243000BD4680BD80B582B000AF78607B68002B60
:102440000ED07B6800229A607B6800221A607B684D
:102450000022DA60002300220021786800F034F9BD
:1024600000BF0837BD4680BD80B586B000AF0346CB
:10247000FB7101237B6100233B61FB791A463969BB
:102480007869FFF763FFF860F868FFF7D3FFFB6830
:1024900018461837BD4680BD80B588B002AF0346E8
:1024A0003960FB7101237B6100233B61FB79009361
:1024B0003B68002239697869FFF7FAFEF860F8682E
:1024C000FFF7B8FFFB6818461837BD4680BD00000F
:1024D00080B584B000AF78607B68BB607B68002B00
:1024E00004D140F266210B4805F0BEFDFFF798F9D4
:1024F000BB681B68002B03D1BB689B68FB6001E0D5
:102500000023FB60FFF7B6F9FB6818461037BD469D
:1025100080BD00BF04A0000080B584B000AF78602B
:102520007B68002B04D140F28621094805F09CFD10
:102530007B681B68002B03D17B689B68FB6001E014
:102540000023FB60FB6818461037BD4680BD00BF06
:1025500004A0000090B585B000AF78607B68BB60D8
:10256000BB68002B04D140F2A121114805F07CFD8D
:10257000BB689C6803F0B2FF03469C4211D1BB6864
:10258000DB685A1EBB68DA60BB68DB68002B05D1CC
:10259000002300220021B86800F096F80123FB60B8
:1025A00001E00023FB60FB6818461437BD4690BD70
:1025B00004A0000090B585B000AF786039607B68FA
:1025C000BB60BB68002B04D140F2D921114805F053
:1025D0004BFDBB689C6803F081FF03469C4207D11A
:1025E000BB68DB685A1CBB68DA600123FB600CE047
:1025F0003968B86800F08EFBF860FB68002B04D0E7
:10260000BB68DB685A1CBB68DA60FB681846143785
:10261000BD4690BD04A0000080B588B002AFF86050
:10262000B9607A6000237B61FB68002B13D0BA6825
:10263000FB689A420FD8022300937B680022002196
:10264000F868FFF735FE78617B69002B0BD07B695A
:10265000BA689A6307E07B69002B04D140F2163117
:10266000034805F001FD7B6918461837BD4680BD5B
:1026700004A0000080B584B000AF7860396000230A
:10268000FB607B68002B10D03A687B689A420CD8BC
:10269000022200217868FFF759FEF860FB68002BE2
:1026A0000BD0FB683A689A6307E0FB68002B04D103
:1026B00040F23931034805F0D7FCFB681846103763
:1026C000BD4680BD04A0000080B58AB000AFF860B0
:1026D000B9607A603B6000237B62FB683B623B6AC7
:1026E000002B04D14FF45371774805F0BDFCBB6853
:1026F000002B03D13B6A1B6C002B01D1012300E0AE
:102700000023002B04D140F24D316F4805F0ACFCA2
:102710003B68022B03D13B6ADB6B012B01D1012308
:1027200000E00023002B04D140F24E31664805F052
:102730009BFC03F0E1FE0346002B02D17B68002BDB
:1027400001D1012300E00023002B04D140F25131DC
:102750005D4805F089FCFFF763F83B6A9A6B3B6ABA
:10276000DB6B9A4202D33B68022B45D13B6A9B6BE1
:10277000FB613A68B968386A00F01BFEB8613B6AD1
:102780009B6C002B14D03B68022B02D1FB69002B01
:102790002ED1386A01F0BEF80346002B28D04B4BEF
:1027A0004FF080521A60BFF34F8FBFF36F8F1FE05F
:1027B0003B6A5B6A002B10D03B6A2433184603F057
:1027C00097FA0346002B13D0404B4FF080521A600B
:1027D000BFF34F8FBFF36F8F0AE0BB69002B07D0A9
:1027E0003A4B4FF080521A60BFF34F8FBFF36F8F99
:1027F000FFF740F8012363E07B68002B03D1FFF76C
:1028000039F800235CE07B6A002B06D107F1100346
:10281000184603F013FC01237B62FFF72BF802F04C
:102820000BFEFEF7FDFF3B6A93F844305BB2B3F159
:10283000FF3F03D13B6A002283F844203B6A93F8B0
:1028400045305BB2B3F1FF3F03D13B6A002283F80E
:102850004520FFF70FF83A1D07F1100311461846FF
:1028600003F002FC0346002B24D1386A00F0C4FEBA
:102870000346002B18D03B6A10337A68114618467D
:1028800003F088F9386A00F024FE02F0E3FD034605
:10289000002B7FF460AF0D4B4FF080521A60BFF3F6
:1028A0004F8FBFF36F8F56E7386A00F012FE02F0C9
:1028B000D1FD50E7386A00F00CFE02F0CBFD00239A
:1028C00018462837BD4680BD04A0000004ED00E096
:1028D00080B58EB000AFF860B9607A603B60FB688D
:1028E0003B633B6B002B04D14FF48461514805F0EE
:1028F000BBFBBB68002B03D13B6B1B6C002B01D1D6
:10290000012300E00023002B04D140F2214149487B
:1029100005F0AAFB3B68022B03D13B6BDB6B012B61
:1029200001D1012300E00023002B04D140F2224119
:10293000404805F099FBFFF723F8EFF311824FF0C1
:10294000050383F31188BFF36F8FBFF34F8FFA61D5
:10295000BB61FB69FB623B6B9A6B3B6BDB6B9A4227
:1029600002D33B68022B57D13B6B93F8453087F875
:102970002B303B6B9B6B7B623A68B968386B00F01D
:1029800018FD97F92B30B3F1FF3F29D13B6B9B6CBE
:10299000002B12D03B68022B02D17B6A002B38D16E
:1029A000386B00F0B7FF0346002B32D07B68002B5A
:1029B0002FD07B6801221A602BE03B6B5B6A002BF7
:1029C00027D03B6B2433184603F092F90346002BC3
:1029D0001FD07B68002B1CD07B6801221A6018E096
:1029E00002F050FE386297F92B303A6A9A4210D9B9
:1029F00097F92B307F2B04D140F2AB410D4805F005
:102A000033FB97F82B300133DBB25AB23B6B83F8C0
:102A1000452001237B6301E000237B63FB6A7B612C
:102A20007B6983F3118800BF7B6B18463837BD463E
:102A300080BD00BF04A0000080B58CB000AF7860FE
:102A400039607B68BB62BB6A002B04D140F2C9418C
:102A5000474805F009FBBB6A1B6C002B04D040F211
:102A6000CD41434805F000FBBB6A1B68002B03D136
:102A7000BB6A9B68002B01D1012300E00023002BDF
:102A800004D140F2D2413A4805F0EEFAFEF778FF61
:102A9000EFF311824FF0050383F31188BFF36F8FBB
:102AA000BFF34F8F7A613B617B697B62BB6A9B6B33
:102AB0003B62BB6ADB6B3A6A9A424BD2BB6A93F8C1
:102AC0004530FB773B6A5A1CBB6A9A6397F91F3003
:102AD000B3F1FF3F23D1BB6A9B6C002B0CD0B86ACB
:102AE00000F018FF0346002B31D03B68002B2ED09E
:102AF0003B6801221A602AE0BB6A5B6A002B26D081
:102B0000BB6A2433184603F0F3F80346002B1ED0AB
:102B10003B68002B1BD03B6801221A6017E002F0D3
:102B2000B1FDB86197F91F30BA699A420FD997F988
:102B30001F307F2B04D140F251510D4805F094FA1B
:102B4000FB7F0133DBB25AB2BB6A83F84520012315
:102B5000FB6201E00023FB627B6AFB60FB6883F39E
:102B6000118800BFFB6A18463037BD4680BD00BFE4
:102B700004A0000080B58AB000AFF860B9607A6048
:102B800000237B62FB683B623B6A002B04D140F26E
:102B90006B515E4805F068FABB68002B03D13B6AB5
:102BA0001B6C002B01D1012300E00023002B04D17A
:102BB00040F26F51554805F057FA03F09DFC03466B
:102BC000002B02D17B68002B01D1012300E0002300
:102BD000002B04D140F274514C4805F045FAFEF741
:102BE0001FFE3B6A9B6BFB61FB69002B1FD0B96822
:102BF000386A00F048FCFB695A1E3B6A9A633B6ADC
:102C00001B69002B0FD03B6A1033184603F070F895
:102C10000346002B07D03E4B4FF080521A60BFF3A3
:102C20004F8FBFF36F8FFEF725FE012369E07B68AE
:102C3000002B03D1FEF71EFE002362E07B6A002B0F
:102C400006D107F11403184603F0F8F901237B625B
:102C5000FEF710FE02F0F0FBFEF7E2FD3B6A93F890
:102C600044305BB2B3F1FF3F03D13B6A002283F8EB
:102C700044203B6A93F845305BB2B3F1FF3F03D188
:102C80003B6A002283F84520FEF7F4FD3A1D07F168
:102C900014031146184603F0E7F90346002B23D12D
:102CA000386A00F075FC0346002B17D03B6A2433CA
:102CB0007A681146184602F06DFF386A00F009FC88
:102CC00002F0C8FB0346002B89D1114B4FF0805214
:102CD0001A60BFF34F8FBFF36F8F80E7386A00F041
:102CE000F8FB02F0B7FB7AE7386A00F0F2FB02F07B
:102CF000B1FB386A00F04CFC0346002B3FF46FAF89
:102D0000002318462837BD4680BD00BF04A0000040
:102D100004ED00E080B58AB000AF78603960002330
:102D20007B627B68FB6100233B62FB69002B04D163
:102D300040F2FD516C4805F097F9FB691B6C002BC4
:102D400004D040F20161684805F08EF903F0D4FB2D
:102D50000346002B02D13B68002B01D1012300E088
:102D60000023002B04D140F206615F4805F07CF996
:102D7000FEF756FDFB699B6BBB61BB69002B24D042
:102D8000BB695A1EFB699A63FB691B68002B04D15F
:102D900003F08AFE0246FB699A60FB691B69002BFF
:102DA0000FD0FB691033184602F0A2FF0346002B38
:102DB00007D04E4B4FF080521A60BFF34F8FBFF3D6
:102DC0006F8FFEF757FD012389E03B68002B03D18D
:102DD000FEF750FD002382E07B6A002B06D107F14D
:102DE0000C03184603F02AF901237B62FEF742FD2B
:102DF00002F022FBFEF714FDFB6993F844305BB24E
:102E0000B3F1FF3F03D1FB69002283F84420FB6943
:102E100093F845305BB2B3F1FF3F03D1FB69002269
:102E200083F84520FEF726FD3A4607F10C031146CC
:102E3000184603F019F90346002B32D1F86900F067
:102E4000A7FB0346002B26D0FB691B68002B09D18A
:102E5000FEF7E6FCFB699B68184603F06BFB3862E3
:102E6000FEF708FDFB6924333A681146184602F064
:102E700091FEF86900F02DFB02F0ECFA0346002BFE
:102E80007FF476AF194B4FF080521A60BFF34F8F2B
:102E9000BFF36F8F6CE7F86900F01BFB02F0DAFA02
:102EA00066E7F86900F015FB02F0D4FAF86900F063
:102EB0006FFB0346002B3FF45BAF3B6A002B0DD04A
:102EC000FEF7AEFCF86900F05DFA7861FB699B687B
:102ED0007969184603F064FCFEF7CCFC0023184621
:102EE0002837BD4680BD00BF04A0000004ED00E00F
:102EF00080B58AB000AFF860B9607A6000237B6269
:102F0000FB683B623B6A002B04D140F2CD615F4815
:102F100005F0AAF8BB68002B03D13B6A1B6C002BA1
:102F200001D1012300E00023002B04D140F2D16144
:102F3000564805F099F803F0DFFA0346002B02D15A
:102F40007B68002B01D1012300E00023002B04D17A
:102F500040F2D6614D4805F087F8FEF761FC3B6A08
:102F60009B6BFB61FB69002B21D03B6ADB68BB617B
:102F7000B968386A00F087FA3B6ABA69DA603B6A76
:102F80005B6A002B0FD03B6A2433184602F0B0FE78
:102F90000346002B07D03E4B4FF080521A60BFF320
:102FA0004F8FBFF36F8FFEF765FC012369E07B68ED
:102FB000002B03D1FEF75EFC002362E07B6A002B4E
:102FC00006D107F11003184603F038F801237B629D
:102FD000FEF750FC02F030FAFEF722FC3B6A93F851
:102FE00044305BB2B3F1FF3F03D13B6A002283F868
:102FF00044203B6A93F845305BB2B3F1FF3F03D105
:103000003B6A002283F84520FEF734FC3A1D07F1A5
:1030100010031146184603F027F80346002B23D16E
:10302000386A00F0B5FA0346002B17D03B6A243308
:103030007A681146184602F0ADFD386A00F049FA88
:1030400002F008FA0346002B87D1114B4FF0805253
:103050001A60BFF34F8FBFF36F8F7EE7386A00F0BF
:1030600038FA02F0F7F978E7386A00F032FA02F03D
:10307000F1F9386A00F08CFA0346002B3FF46DAF8B
:10308000002318462837BD4680BD00BF04A00000BD
:1030900004ED00E080B58EB000AFF860B9607A60F2
:1030A000FB683B633B6B002B04D140F262713C48F0
:1030B00004F0DAFFBB68002B03D13B6B1B6C002BC9
:1030C00001D1012300E00023002B04D140F2637101
:1030D000334804F0C9FFFEF753FCEFF311824FF0C1
:1030E000050383F31188BFF36F8FBFF34F8FFA612E
:1030F000BB61FB69FB623B6B9B6BBB62BB6A002BDA
:1031000040D03B6B93F8443087F82730B968386B70
:1031100000F0B9F9BB6A5A1E3B6B9A6397F92730E6
:10312000B3F1FF3F12D13B6B1B69002B27D03B6BE8
:103130001033184602F0DCFD0346002B1FD07B68DD
:10314000002B1CD07B6801221A6018E002F09AFA6A
:10315000386297F927303A6A9A4210D997F927309E
:103160007F2B04D140F2A6710D4804F07DFF97F843
:1031700027300133DBB25AB23B6B83F84420012382
:103180007B6301E000237B63FB6A7B617B6983F3E4
:10319000118800BF7B6B18463837BD4680BD00BF25
:1031A00004A0000080B58AB000AF786039607B6809
:1031B0003B623B6A002B04D140F2BF71254804F00A
:1031C00053FF3B68002B03D13B6A1B6C002B01D1E2
:1031D000012300E00023002B04D14FF4F8611D48C7
:1031E00004F042FF3B6A1B6C002B04D140F2C1711A
:1031F000184804F039FFFEF7C3FBEFF311824FF0DC
:10320000050383F31188BFF36F8FBFF34F8F7A618C
:103210003B617B69FB613B6A9B6B002B0CD03B6A7B
:10322000DB68BB613968386A00F02DF93B6ABA691E
:10323000DA6001237B6201E000237B62FB69FB60B3
:10324000FB6883F3118800BF7B6A18462837BD46A8
:1032500080BD00BF04A0000080B584B000AF7860DE
:103260007B68002B04D140F2F271074804F0FCFEA9
:10327000FEF7D6FA7B689B6BFB60FEF7FBFAFB68F8
:1032800018461037BD4680BD04A0000080B584B04C
:1032900000AF78607B68FB60FB68002B04D140F6D0
:1032A0000301094804F0E0FEFEF7BAFAFB68DA6BA6
:1032B000FB689B6BD31ABB60FEF7DCFABB68184651
:1032C0001037BD4680BD00BF04A0000080B584B0AB
:1032D00000AF78607B68FB60FB68002B04D140F690
:1032E0001401054804F0C0FEFB689B6BBB60BB6823
:1032F00018461037BD4680BD04A0000080B584B0DC
:1033000000AF78607B68FB60FB68002B04D140F65F
:103310001F01094804F0A8FEF86800F01BFAFB68DA
:1033200093F84630002B02D1F868FDF7DFFF00BFAD
:103330001037BD4680BD00BF04A0000080B483B03C
:1033400000AF78607B68DB6C18460C37BD4680BCEC
:10335000704780B483B000AF786039607B683A68AA
:10336000DA6400BF0C37BD4680BC704780B483B0C0
:1033700000AF78607B6893F8503018460C37BD4634
:1033800080BC704780B485B000AF78607B685B6AB2
:10339000002B06D07B681B6B1B68C3F10603FB6028
:1033A00001E00023FB60FB6818461437BD4680BC73
:1033B000704780B586B000AFF860B9607A600023CE
:1033C0007B61FB689B6B3B61FB681B6C002B0DD129
:1033D000FB681B68002B4DD1FB689B68184603F007
:1033E00047F97861FB6800229A6043E07B68002B14
:1033F00019D1FB685868FB681B6C1A46B96805F060
:1034000027FFFB685A68FB681B6C1A44FB685A600C
:10341000FB685A68FB689B689A422BD3FB681A6862
:10342000FB685A6026E0FB68D868FB681B6C1A468C
:10343000B96805F00DFFFB68DA68FB681B6C5B423E
:103440001A44FB68DA60FB68DA68FB681B689A421A
:1034500007D2FB689A68FB681B6C5B421A44FB68E6
:10346000DA607B68022B05D13B69002B02D03B69F7
:10347000013B3B613B695A1CFB689A637B691846B8
:103480001837BD4680BD80B582B000AF7860396026
:103490007B681B6C002B18D07B68DA687B681B6C20
:1034A0001A447B68DA607B68DA687B689B689A42BA
:1034B00003D37B681A687B68DA607B68D9687B68AD
:1034C0001B6C1A46386805F0C3FE00BF0837BD46BE
:1034D00080BD80B584B000AF7860FEF7A1F97B684D
:1034E00093F84530FB731EE07B689B6C002B08D083
:1034F000786800F00FFA0346002B10D002F010FE9F
:103500000DE07B685B6A002B12D07B682433184681
:1035100002F0EEFB0346002B01D002F001FEFB7B24
:10352000013BDBB2FB7397F90F30002BDCDC00E0D2
:1035300000BF7B68FF2283F84520FEF79BF9FEF76A
:103540006FF97B6893F84430BB7311E07B681B69AB
:10355000002B12D07B681033184602F0C9FB0346DB
:10356000002B01D002F0DCFDBB7B013BDBB2BB7367
:1035700097F90E30002BE9DC00E000BF7B68FF22EA
:1035800083F84420FEF776F900BF1037BD4680BDB2
:1035900080B584B000AF7860FEF742F97B689B6B22
:1035A000002B02D10123FB6001E00023FB60FEF74A
:1035B00061F9FB6818461037BD4680BD80B584B000
:1035C00000AF78607B68BB60BB68002B04D140F61D
:1035D0007911084804F048FDBB689B6B002B02D1B1
:1035E0000123FB6001E00023FB60FB6818461037F5
:1035F000BD4680BD04A0000080B584B000AF7860F7
:10360000FEF70EF97B689A6B7B68DB6B9A4202D1FE
:103610000123FB6001E00023FB60FEF72BF9FB6850
:1036200018461037BD4680BD80B584B000AF7860C5
:103630007B68BB60BB68002B04D140F6A21109482F
:1036400004F012FDBB689A6BBB68DB6B9A4202D137
:103650000123FB6001E00023FB60FB681846103784
:10366000BD4680BD04A0000080B584B000AF786086
:1036700039600023BB607B68002B04D140F6D82161
:103680001B4804F0F1FC3B68002B24D00023FB60B6
:103690001EE0184AFB68DB0013445B687A689A42B4
:1036A00005D1FB68DB00134A1344BB6013E0BB6821
:1036B000002B0AD10F4AFB6852F83330002B04D19B
:1036C000FB68DB000B4A1344BB60FB680133FB6003
:1036D000FB68092BDDD9BB68002B05D0BB683A68B5
:1036E0001A60BB687A685A6000BF1037BD4680BD5B
:1036F00004A00000CCE1002080B584B000AF786069
:103700000023BB607B68002B04D140F606310F48D4
:1037100004F0AAFC0023FB6010E00D4AFB68DB000C
:1037200013445B687A689A4205D1094AFB6852F8EB
:103730003330BB6005E0FB680133FB60FB68092B9D
:10374000EBD9BB6818461037BD4680BD04A0000009
:10375000CCE1002080B584B000AF78607B68002B9E
:1037600004D140F62431124804F07EFC0023FB60B3
:1037700016E0104AFB68DB0013445B687A689A42E3
:103780000BD10C4AFB68002142F83310094AFB6850
:10379000DB00134400225A6006E0FB680133FB6043
:1037A000FB68092BE5D900BF00BF1037BD4680BDBF
:1037B00004A00000CCE1002080B586B000AFF86026
:1037C000B9607A60FB687B61FEF72AF87B6993F841
:1037D00044305BB2B3F1FF3F03D17B69002283F831
:1037E00044207B6993F845305BB2B3F1FF3F03D1CE
:1037F0007B69002283F84520FEF73CF87B699B6BD0
:10380000002B06D17B6924337A68B968184602F028
:103810002DFA7869FFF75DFE00BF1837BD4680BD01
:1038200080B584B000AF7860002204217868FEF78C
:103830008DFDF860FB6818461037BD4680BD80B529
:1038400084B000AF78603960FDF7EAFF7B689B6C5D
:10385000002B02D00023FB600BE07B689B6B002BEE
:1038600002D00023FB6004E07B683A689A6401237D
:10387000FB60FDF7FFFFFB6818461037BD4680BDB3
:1038800080B584B000AF786039607B68BB60BB688E
:103890009B6C3A689A4202D00023FB600FE0BB6841
:1038A0009B6B002B02D00023FB6008E0FDF7B8FF04
:1038B000BB6800229A64FDF7DDFF0123FB60FB6813
:1038C00018461037BD4680BD80B584B000AF786023
:1038D00039600023FB6007F10C033A6819467868E9
:1038E000FFF748F9FB6818461037BD4680BD80B524
:1038F00084B000AF78600023FB6007F10C03002266
:1039000019467868FFF7C6FBFB6818461037BD46B6
:1039100080BD000080B586B000AF78607B689B6C8E
:103920003B6100237B613B69002B04D140F6E3310E
:10393000274804F099FB3B699A6B3B69DB6B9A4221
:1039400004D340F6E431224804F08EFB3B699A6BC5
:103950003B69DB6B9A4236D23B6993F84530FB7387
:103960003B1D002219463869FFF723FD786197F95E
:103970000F30B3F1FF3F0ED13B695B6A002B22D0C1
:103980003B692433184602F0B3F90346002B1AD0E2
:1039900001237B6117E001F075FEB86097F90F30E5
:1039A000BA689A420FD997F90F307F2B04D140F6AD
:1039B0000441074804F058FBFB7B0133DBB25AB2E9
:1039C0003B6983F845207B6918461837BD4680BDA2
:1039D00004A0000080B58AB004AFF860B9607A60D6
:1039E0003B607B68012B0AD10123FB74FB68042B2D
:1039F0000FD84FF4A971214804F036FB09E00023E9
:103A0000FB74FB68002B04D14FF4AC711B4804F02D
:103A10002BFBBA68FB689A4204D940F25B11174845
:103A200004F022FBBB68002B01D10123BB60FB68C3
:103A300013F1260F09D8FB680133FB60FB682433C0
:103A40001846FDF7A5FB786101E000237B617B69E7
:103A5000002B0DD07B6903F124013B6A02933B6884
:103A60000193FB7C0093BB68FA68786900F0C2FDA3
:103A70007B6918461837BD4680BD00BF34A00000E2
:103A800080B58CB004AFF860B9607A603B60BB6A07
:103A90007B613B68002B04D14FF4CD712A4804F0C0
:103AA000E3FABB6A002B04D140F29B11264804F0D4
:103AB000DBFABA68FB689A4204D94FF4CE71224807
:103AC00004F0D2FABB68002B01D10123BB607B68F4
:103AD000002B02D00323FB7601E00223FB76FB6878
:103AE000042B04D84FF4DA71174804F0BDFA2423EC
:103AF0003B613B69242B04D04FF4DE71124804F083
:103B0000B3FA3B68002B18D0BB6A002B15D03B6B77
:103B10000293FB6A0193FB7E0093BB68FA683968E5
:103B2000786900F067FD7B691B7F43F00203DAB21E
:103B30007B691A77BB6AFB6101E00023FB61FB69CB
:103B400018462037BD4680BD34A0000080B584B043
:103B500000AF78607B68FB60FB68002B04D140F20B
:103B6000E1110B4804F080FAFB681B7F03F00203AD
:103B7000002B03D1F868FDF7B9FB04E024220021F3
:103B8000F86805F073FB00BF1037BD4680BD00BF6D
:103B900034A0000090B58DB004AF78607B68BB6145
:103BA0000023FB6100237B6100233B61BB69002B89
:103BB00004D14FF40271174804F056FABB691B6A2E
:103BC000FB60FDF72DFEBB691B69002B1AD1BB6999
:103BD0005B69002B16D1BB699969BB699868BB69A1
:103BE000DC68BB691B7F3A6902927A690192009393
:103BF00023460246B86900F0FDFCBB69FA681A6208
:103C00000123FB61FDF736FEFB6918462437BD46EC
:103C100090BD00BF34A0000080B584B000AF7860D4
:103C200039607B68BB60BB68002B04D140F23D214A
:103C30000C4804F019FA3B68002B01D101233B60CA
:103C4000BB689B683A689A4205D2BB683A68DA60FA
:103C50000123FB6001E00023FB60FB68184610377E
:103C6000BD4680BD34A0000080B586B000AF78604E
:103C70007B683B613B69002B04D140F25B21144817
:103C800004F0F2F93B691B68FB603B699A683B6989
:103C90001B6813447B613B695B687A69D31A7B615B
:103CA0003B691B68FA689A42ECD17B69013B7B61F6
:103CB0003B699B687A699A4204D33B699B687A693D
:103CC000D31A7B617B6918461837BD4680BD00BF9B
:103CD00034A0000080B584B000AF78607B68FB60E2
:103CE000FB68002B04D140F27B21064804F0BCF9AC
:103CF000F86800F05FFCB860BB6818461037BD4636
:103D000080BD00BF34A0000080B58EB002AFF86067
:103D1000B9607A603B60FB687B620023FB627B6872
:103D2000BB6200233B62BB68002B04D140F28D21B3
:103D3000504804F099F97B6A002B04D140F28E219F
:103D40004C4804F091F97B6A9B68013B3B627B6ABB
:103D50001B7F03F00103002B12D0BB6A0433BB624C
:103D6000BA6A7B689A4204D840F29D21414804F027
:103D70007BF9BA6A3B6A9A4208D900233B6005E0A6
:103D8000BA6A3B6A9A4201D93B6ABB623B68002B24
:103D90003BD007F11403184602F02EF9FDF740FD61
:103DA000786AFFF761FFF862FA6ABB6A9A4212D238
:103DB0000021002003F0B4FA7B6A5B69002B04D079
:103DC00040F2CD212B4804F04FF902F087FB024668
:103DD0007B6A5A6102E0FDF74DFD16E0FDF74AFDF2
:103DE0003B680093002300220021002002F0D4FE53
:103DF0007B6A00225A613A4607F1140311461846BD
:103E000002F032F90346002BC8D0FB6A002B03D125
:103E1000786AFFF729FFF862BB6A0093FB6A7A6849
:103E2000B968786A00F092F8F861FB69002B1BD042
:103E3000786A00F0BFFB02467B6ADB689A4213D3C4
:103E400001F0FAFA7B6A1B69002B0BD07B6A1869B8
:103E50000023009300230022002102F019FF7B6A57
:103E600000221A6101F0F6FAFB6918463037BD46A8
:103E700080BD00BF34A0000080B58EB002AFF860F6
:103E8000B9607A603B60FB68BB627B68FB62BB68C1
:103E9000002B04D140F20E312B4804F0E5F8BB6A48
:103EA000002B04D140F20F31274804F0DDF8BB6A43
:103EB0001B7F03F00103002B02D0FB6A0433FB627B
:103EC000B86AFFF7D1FE7862FB6A00937B6A7A6872
:103ED000B968B86A00F03AF838623B6A002B2DD016
:103EE000B86A00F067FB0246BB6ADB689A4225D3DA
:103EF000EFF311824FF0050383F31188BFF36F8F47
:103F0000BFF34F8FBA617B61BB69FB61BB6A1B6901
:103F1000002B0DD0BB6A18693B6801930023009306
:103F200000230022002102F0BFFFBB6A00221A61B9
:103F3000FB693B613B6983F3118800BF3B6A18460C
:103F40003037BD4680BD00BF34A0000080B586B0CC
:103F500000AFF860B9607A603B60FB685B687B61CA
:103F6000FB681B7F03F00103002B1AD07B683B61C9
:103F70003B697A689A4204D040F24931144804F00F
:103F800073F83A683B6A9A4208D307F110017B69DB
:103F90000422F86800F056FA786108E000237B609C
:103FA00005E07A683B68934228BF13467B607B68D4
:103FB000002B08D07B697A68B968F86800F042FA8B
:103FC0000246FB685A607B6818461837BD4680BDBC
:103FD00034A0000080B58AB002AFF860B9607A60A2
:103FE0003B60FB683B610023FB61BB68002B04D195
:103FF00040F272313A4804F037F83B69002B04D1A3
:1040000040F27331364804F02FF83B691B7F03F010
:104010000103002B02D004237B6101E000237B61BC
:104020003B68002B31D0FDF7FBFB386900F0C2FA8A
:10403000B861BA697B699A4211D80021002003F067
:104040006FF93B691B69002B04D040F2963124487C
:1040500004F00AF802F042FA02463B691A61FDF7E1
:1040600009FCBA697B699A4213D83B680093002324
:1040700000220021002002F08FFD3B6900221A611E
:10408000386900F097FAB86103E0386900F092FAF5
:10409000B861BA697B699A421DD9BB697A68B96807
:1040A000386900F0BFF8F861FB69002B13D001F00C
:1040B000C3F9FB685B69002B0BD0FB6858690023D0
:1040C000009300230022002102F0E2FDFB680022A1
:1040D0005A6101F0BFF9FB6918462037BD4680BD23
:1040E00034A0000080B586B000AF78607B683B618B
:1040F0003B69002B04D14FF47671164803F0B4FFEE
:104100003B691B7F03F00103002B1CD0386900F0D2
:1041100051FAF860FB68042B0AD93B691B6807F168
:1041200008010422386900F0EBF9BB687B610CE000
:10413000FB68002B04D040F2ED31064803F094FFF9
:1041400000237B6101E000237B617B6918461837FF
:10415000BD4680BD34A0000080B58EB002AFF860CF
:10416000B9607A603B60FB687B620023FB62BB68DE
:10417000002B04D140F20241294803F075FF7B6A0D
:10418000002B04D140F20341254803F06DFF7B6A08
:104190001B7F03F00103002B02D00423BB6201E06C
:1041A0000023BB62786A00F005FA38623A6ABB6A9B
:1041B0009A422FD93B6A7A68B968786A00F032F877
:1041C000F862FB6A002B25D0EFF311824FF0050354
:1041D00083F31188BFF36F8FBFF34F8FBA617B6199
:1041E000BB69FB617B6A5B69002B0DD07B6A5869F8
:1041F0003B6801930023009300230022002102F07A
:1042000053FE7B6A00225A61FB693B613B6983F381
:10421000118800BFFB6A18463037BD4680BD00BF1D
:1042200034A0000080B588B000AFF860B9607A6053
:104230003B60FB681B68BB61FB681B7F03F00103ED
:10424000002B13D007F11001BB690422F86800F0BD
:1042500057F9B8613B69FB613B68043B3B60FA6915
:104260007B689A4204D90023FB6101E07B68FB6113
:104270003A68FB69934228BF13467B617B69002B38
:1042800008D0BB697A69B968F86800F039F9024664
:10429000FB681A607B6918462037BD4680BD000068
:1042A00080B586B000AF78607B683B613B69002BCE
:1042B00004D140F26D410A4803F0D6FE3B691B6809
:1042C000FB603B695B68FA689A4202D101237B611B
:1042D00001E000237B617B6918461837BD4680BD2D
:1042E00034A0000080B586B000AF78607B68FB60CA
:1042F000FB68002B04D140F285410F4803F0B4FE67
:10430000FB681B7F03F00103002B02D004233B61F9
:1043100001E000233B617868FFF7A6FC02463B6999
:10432000934202D301237B6101E000237B617B691F
:1043300018461837BD4680BD34A0000080B58AB04D
:1043400002AF786039607B68BB61BB69002B04D128
:1043500040F2A941194803F087FEEFF311824FF0B4
:10436000050383F31188BFF36F8FBFF34F8F3A615B
:10437000FB603B697B61BB691B69002B10D0BB698B
:1043800018693B6801930023009300230022002159
:1043900002F08AFDBB6900221A610123FB6101E082
:1043A0000023FB617B69BB60BB6883F3118800BF9E
:1043B000FB6918462037BD4680BD00BF34A0000011
:1043C00080B58AB002AF786039607B68BB61BB6939
:1043D000002B04D14FF49961194803F045FEEFF327
:1043E00011824FF0050383F31188BFF36F8FBFF382
:1043F0004F8F3A61FB603B697B61BB695B69002B56
:1044000010D0BB6958693B680193002300930023D7
:104410000022002102F048FDBB6900225A610123FD
:10442000FB6101E00023FB617B69BB60BB6883F338
:10443000118800BFFB6918462037BD4680BD00BF0C
:1044400034A0000080B586B000AFF860B9607A6033
:104450003B607B68002B04D140F2E741274803F022
:1044600003FEFB689A683B68D31A7A68934228BFB8
:1044700013467B613A687B691A44FB689B689A42E1
:1044800004D940F2EF411D4803F0EEFDFB689A6944
:104490003B6813447A69B968184604F0D9FE7A6813
:1044A0007B699A4216D97A687B69D21AFB689B6845
:1044B0009A4204D940F2F741104803F0D5FDFB6859
:1044C0009869BA687B69D1187A687B69D31A1A46E9
:1044D00004F0BEFE3A687B6813443B60FB689B684F
:1044E0003A689A4204D3FB689B683A68D31A3B60E7
:1044F0003B6818461837BD4680BD00BF34A0000099
:1045000080B586B000AFF860B9607A603B607B68C8
:10451000002B04D140F21551254803F0A5FDFB689E
:104520009A683B68D31A7A68934228BF13467B6126
:104530007A697B689A4204D940F21E511C4803F004
:1045400093FD3A687B691A44FB689B689A4204D9D8
:1045500040F21F51164803F087FDFB689A693B68DB
:1045600013447A691946B86804F072FE7A687B6968
:104570009A420AD9BA687B69D018FB6899697A6847
:104580007B69D31A1A4604F063FE3A687B681344C9
:104590003B60FB689B683A689A4204D3FB689B685F
:1045A0003A68D31A3B603B6818461837BD4680BD51
:1045B00034A0000080B485B000AF78607B689A6852
:1045C0007B685B681344FB607B681B68FA68D31ADE
:1045D000FB607B689B68FA689A4204D37B689B689F
:1045E000FA68D31AFB60FB6818461437BD4680BCD6
:1045F0007047000080B586B000AFF860B9607A609F
:104600003B6055237B617A687969B86804F02EFEB7
:104610000246BB68934204D04FF4AC610C4803F0EF
:1046200023FD24220021F86804F020FEFB68BA680C
:104630009A61FB687A689A60FB683A68DA60FB689E
:1046400097F820201A7700BF1837BD4680BD00BFFD
:1046500034A0000080B483B000AF78607B681B6A30
:1046600018460C37BD4680BC704780B483B000AF9D
:10467000786039607B683A681A6200BF0C37BD46C3
:1046800080BC704780B483B000AF78607B681B7FCC
:1046900003F00103DBB218460C37BD4680BC7047FF
:1046A00080B58CB004AFF860B9607A603B60FB6A9B
:1046B000002B04D140F23F21214803F0D5FC3B6B95
:1046C000002B04D14FF410711D4803F0CDFC58238A
:1046D0007B617B69582B04D04FF41271184803F0AA
:1046E000C3FC7B693B6B002B23D0FB6A002B20D0E3
:1046F0003B6BFB6158220021F86904F0B7FDFB69B0
:10470000FA6A1A63FB69022283F855200023039397
:10471000FB69029307F118030193BB6A00933B689E
:104720007A68B968F86800F057F8F86900F0DAF8C4
:1047300001E00023BB61BB6918462037BD4680BD40
:104740006CA0000080B58CB004AFF860B9603B602D
:104750001346FB80FB889B001846FCF719FD786127
:104760007B69002B13D05820FCF712FDF861FB6920
:10477000002B08D058220021F86904F077FDFB696E
:104780007A691A6305E07869FCF7B0FD01E000235F
:10479000FB61FB69002B17D0FB69002283F85520D1
:1047A000FA8800230393FB690293FB6A0193BB6AB7
:1047B00000933B68B968F86800F00EF8F86900F0FB
:1047C00091F80123BB6102E04FF0FF33BB61BB698D
:1047D00018462037BD4680BD80B586B000AFF86072
:1047E000B9607A603B60BB6A186B7B689B001A46B5
:1047F000A52104F03BFDBB6A1A6B7B6803F1804383
:10480000013B9B0013443B613B6923F007033B6181
:104810003B6903F00703002B04D040F25D313048C0
:1048200003F022FCBB68002B20D000237B6114E046
:10483000BA687B69134493F90010BA6A7B69134420
:1048400034330A461A70BA687B69134493F900300E
:10485000002B06D07B6901337B617B690B2BE7D989
:1048600000E000BFBB6A002283F83F203B6A052BB3
:1048700004D940F292311A4803F0F6FB3B6A052B4B
:1048800001D905233B62BB6A3A6ADA62BB6A3A6ABB
:104890009A64BB6A04331846FDF7F3FBBB6A18330E
:1048A0001846FDF7EEFBBB6ABA6A1A613B6AC3F1B0
:1048B0000602BB6A9A61BB6ABA6A5A623A68F968C8
:1048C0003869FCF7C1FE0246BB6A1A607B6A002B9E
:1048D00002D07B6ABA6A1A6000BF1837BD4680BD35
:1048E0006CA0000080B584B000AF7860FCF798FF42
:1048F000404B1B6801333F4A13603F4B1B68002B42
:1049000009D13D4A7B6813603A4B1B68012B10D1DB
:1049100001F040FC0DE0394B1B68002B09D1364BF0
:104920001B68DA6A7B68DB6A9A4202D8324A7B6883
:104930001360334B1B680133314A1360304B1A68E4
:104940007B681A647B68DB6A01229A402D4B1B68E6
:1049500013432C4A13607B68DA6A2B4913469B0089
:1049600013449B000B4404331B68FB607B68FA68AC
:104970009A60FB689A687B68DA60FB689B687A6873
:1049800004325A607B681A1DFB689A607B68DA6A99
:1049900013469B0013449B001B4A1A447B685A61D0
:1049A0007B68DA6A184913469B0013449B000B444A
:1049B0001B68591C144813469B0013449B00034476
:1049C0001960FCF757FF0D4B1B68002B0ED00A4BEC
:1049D0001B68DA6A7B68DB6A9A4207D20B4B4FF09E
:1049E00080521A60BFF34F8FBFF36F8F00BF103735
:1049F000BD4680BD08E300201CE2002014E3002037
:104A000024E3002010E3002020E2002004ED00E079
:104A100080B584B000AF7860FCF702FF7B68002BA4
:104A200002D1384B1B6800E07B68FB60FB680433F5
:104A30001846FDF78DFB0346002B15D1FB68DA6A9B
:104A4000314913469B0013449B000B441B68002B09
:104A50000AD1FB68DB6A012202FA03F3DA432B4B2B
:104A60001B681340294A1360FB689B6A002B04D023
:104A7000FB6818331846FDF76BFB254B1B680133A9
:104A8000234A13601F4B1B68FA689A420BD1FB68DC
:104A9000043319461F48FDF700FB1F4B1B68013309
:104AA0001D4A136006E01D4B1B68013B1B4A136047
:104AB00001F0FAFCFCF7DEFE124B1B68FA689A4222
:104AC00002D0F86801F0C4FC154B1B68002B15D010
:104AD0000C4B1B68FA689A4210D1124B1B68002BD2
:104AE00004D040F2AF41104803F0BEFA0F4B4FF034
:104AF00080521A60BFF34F8FBFF36F8F00BF103724
:104B0000BD4680BD1CE2002020E2002010E3002012
:104B100024E30020DCE20020F0E2002008E3002093
:104B200014E3002030E300206CA0000004ED00E05E
:104B300080B586B000AF7860396000237B617B6808
:104B4000002B04D140F2C4412C4803F08DFA3B689D
:104B5000002B04D140F2C541284803F085FA284BC8
:104B60001B68002B04D040F2C641244803F07CFAB5
:104B700000F062FC234B1B683B617B681B683A6852
:104B80001344FB607B681B683A699A420BD27B68CE
:104B90001B68FA689A4211D2FA683B699A420DD9A9
:104BA00001237B610AE07B681B68FA689A4203D3A1
:104BB000FA683B699A4201D901237B617B68FA68F4
:104BC0001A607B69002B06D0FA683B69D31A002172
:104BD000184602F009FC00F03DFCB860BB68002BF1
:104BE00007D1094B4FF080521A60BFF34F8FBFF3CC
:104BF0006F8F7B6918461837BD4680BD6CA00000DA
:104C000030E300200CE3002004ED00E080B584B028
:104C100000AF78600023FB607B68002B11D0104B45
:104C20001B68002B04D040F21C510E4803F01CFA04
:104C300000F002FC0021786802F0D6FB00F00AFCCC
:104C4000F860FB68002B07D1074B4FF080521A60C9
:104C5000BFF34F8FBFF36F8F00BF1037BD4680BDCE
:104C600030E300206CA0000004ED00E080B588B0C7
:104C700000AF78607B687B617B69002B04D140F2D8
:104C80004A512B4803F0F0F92A4B1B687A699A4283
:104C900002D10023FB7745E0FCF7C2FD7B695B692D
:104CA0003B61254B1B68FB60244B1B68BB60FCF71A
:104CB000E1FD3A69FB689A4203D03A69BB689A42BF
:104CC00002D10223FB772DE03B691D4A93421DD19F
:104CD0007B699B6A002B16D10323FB770023BB6102
:104CE0000DE07A69BB69134454331B78DBB2012BA6
:104CF00002D10223FB7715E0BB690133BB61BB69BD
:104D0000002BEEDD0EE00223FB770BE03B690D4A42
:104D1000934202D03B69002B02D10423FB7701E0D0
:104D20000123FB77FB7F18462037BD4680BD00BFBF
:104D30006CA000001CE20020C0E20020C4E20020C1
:104D4000F4E20020DCE2002080B584B000AF78609F
:104D5000FCF766FD7B68002B02D1074B1B6800E067
:104D60007B68FB60FB68DB6ABB60FCF783FDBB68AC
:104D700018461037BD4680BD1CE2002080B588B0C3
:104D800000AF7860FCF7FCFDEFF311824FF00503F4
:104D900083F31188BFF36F8FBFF34F8F3A61FB60CE
:104DA0003B69FB617B68002B02D1094B1B6800E06B
:104DB0007B68BB61BB69DB6A7B61FB69BB60BB680D
:104DC00083F3118800BF7B6918462037BD4680BD3C
:104DD0001CE2002080B588B000AF78603960002305
:104DE000FB613B68052B04D940F2EA515B4803F0B4
:104DF0003BF93B68052B01D905233B60FCF710FD0F
:104E00007B68002B02D1564B1B6800E07B68BB61BE
:104E1000BB699B6C7B617A693B689A4200F0988021
:104E20003A687B699A420DD94D4B1B68BA699A4220
:104E30000FD04B4B1B68DB6A3A689A4209D30123B7
:104E4000FB6106E0464B1B68BA699A4201D1012317
:104E5000FB61BB69DB6A3B61BB699A6CBB69DB6A5E
:104E60009A4202D1BB693A68DA62BB693A689A64CD
:104E7000BB699B69002B04DB3B68C3F10602BB697D
:104E80009A61BB6959693A6913469B0013449B00B8
:104E9000344A1344994250D1BB6904331846FDF794
:104EA00057F90346002B09D101223B6902FA03F3AB
:104EB000DA432D4B1B6813402B4A1360BB69DB6A36
:104EC00001229A40284B1B681343274A1360BB6991
:104ED000DA6A244913469B0013449B000B440433B5
:104EE0001B68FB60BB69FA689A60FB689A68BB69DB
:104EF000DA60FB689B68BA6904325A60BB691A1DA4
:104F0000FB689A60BB69DA6A13469B0013449B00F6
:104F1000144A1A44BB695A61BB69DA6A11491346DB
:104F20009B0013449B000B441B68591C0D481346FF
:104F30009B0013449B0003441960FB69002B07D0BE
:104F40000A4B4FF080521A60BFF34F8FBFF36F8F41
:104F5000FCF790FC00BF2037BD4680BD6CA0000070
:104F60001CE2002020E2002010E3002004ED00E01D
:104F700080B584B000AF7860FCF752FC7B68002BF2
:104F800002D1404B1B6800E07B68BB60BB68043308
:104F90001846FDF7DDF80346002B15D1BB68DA6A29
:104FA000394913469B0013449B000B441B68002B9C
:104FB0000AD1BB68DB6A012202FA03F3DA43334BFE
:104FC0001B681340314A1360BB689B6A002B04D0F6
:104FD000BB6818331846FDF7BBF8BB6804331946A5
:104FE0002B48FDF75AF80023FB6010E0BA68FB6815
:104FF000134454331B78DBB2012B05D1BA68FB682C
:105000001344543300221A70FB680133FB60FB68C1
:10501000002BEBDDFCF72EFC1E4B1B68002B05D094
:10502000FCF7FEFB01F040FAFCF724FC154B1B6873
:10503000BA689A4221D1174B1B68002B11D0164B2E
:105040001B68002B04D040F2D261144803F00CF826
:10505000134B4FF080521A60BFF34F8FBFF36F8F27
:105060000BE00B4B1A680F4B1B689A4203D1054BA0
:1050700000221A6001E000F011FD00BF1037BD46AC
:1050800080BD00BF1CE2002020E2002010E30020D1
:10509000F4E2002014E3002030E300206CA00000C4
:1050A00004ED00E008E3002080B584B000AF786034
:1050B0000023FB607B68BB607B68002B04D140F25F
:1050C000FC610C4802F0D0FFBB685B690A4A93425E
:1050D0000AD1BB689B6A094A934205D0BB689B6AA8
:1050E000002B01D10123FB60FB6818461037BD4639
:1050F00080BD00BF6CA00000F4E20020C8E20020E8
:1051000080B584B000AF78607B68FB607B68002B63
:1051100004D140F22671364802F0A6FF354B1B68D9
:10512000FA689A425FD0FB68002B5CD0FCF778FBF2
:10513000F868FFF7B9FF0346002B52D0FB68043331
:105140001846FDF705F8FB68DB6A01229A402A4BF6
:105150001B681343284A1360FB68DA6A2749134621
:105160009B0013449B000B4404331B68BB60FB682B
:10517000BA689A60BB689A68FB68DA60BB689B682B
:10518000FA6804325A60FB681A1DBB689A60FB68B3
:10519000DA6A13469B0013449B00184A1A44FB68C2
:1051A0005A61FB68DA6A154913469B0013449B0059
:1051B0000B441B68591C114813469B0013449B0069
:1051C00003441960FB68DA6A0A4B1B68DB6A9A427F
:1051D00007D30B4B4FF080521A60BFF34F8FBFF3D2
:1051E0006F8FFCF747FB00BF1037BD4680BD00BF87
:1051F0006CA000001CE2002010E3002020E2002050
:1052000004ED00E080B58AB000AF786000237B62D7
:105210007B683B627B68002B04D140F25D713F48A4
:1052200002F022FFFCF7ACFBEFF311824FF0050315
:1052300083F31188BFF36F8FBFF34F8F7A613B61A8
:105240007B69FB61386AFFF72FFF0346002B5AD0BA
:10525000334B1B68002B50D13B6ADA6A314B1B6819
:10526000DB6A9A4204D301237B622F4B01221A602E
:105270003B6A04331846FCF76BFF3B6ADB6A01228A
:105280009A402A4B1B681343284A13603B6ADA6A28
:10529000274913469B0013449B000B4404331B68AF
:1052A000BB613B6ABA699A60BB699A683B6ADA601B
:1052B000BB699B683A6A04325A603B6A1A1DBB6933
:1052C0009A603B6ADA6A13469B0013449B00184AB3
:1052D0001A443B6A5A613B6ADA6A154913469B00D5
:1052E00013449B000B441B68591C114813469B0038
:1052F00013449B000344196005E03B6A18331946C8
:105300000C48FCF7CAFEFB69FB60FB6883F311885D
:1053100000BF7B6A18462837BD4680BD6CA00000E0
:1053200030E300201CE200201CE3002010E30020FA
:1053300020E20020C8E2002080B58AB004AF00233C
:10534000FB600023BB603A1D07F1080107F10C0365
:10535000184602F09DFE7968BB68FA6802920193D4
:105360000023009300230A461F492048FFF798F9BD
:1053700003461F4A13601E4B1B68002B02D00123FB
:105380007B6101E000237B617B69012B02D102F08C
:10539000ABF878617B69012B16D14FF0050383F3DD
:1053A0001188BFF36F8FBFF34F8F3B6100BF114B6D
:1053B0004FF0FF321A60104B01221A600F4B00228F
:1053C0001A60FCF7BBF908E07B69B3F1FF3F04D139
:1053D00040F612010A4802F047FE0A4B1B6800BF64
:1053E0001837BD4680BD00BF9CA00000876100004B
:1053F0002CE3002028E3002014E300200CE300202D
:105400006CA000000401002080B582B000AF4FF016
:10541000050383F31188BFF36F8FBFF34F8F7B605A
:1054200000BF044B00221A60FCF7E8F900BF083700
:10543000BD4680BD14E3002080B400AF044B1B6860
:105440000133034A136000BFBD4680BC704700BFF4
:1054500030E3002080B586B000AF00237B610023DD
:105460003B616E4B1B68002B04D140F685016C48F4
:1054700002F0FAFDFCF7D4F9684B1B68013B674A60
:105480001360664B1B68002B40F0C080654B1B68A7
:10549000002B00F0BB808AE0634BDB68DB687B613C
:1054A0007B699B6ABB607B69DB697A69126A9A6077
:1054B0007B691B6A7A69D2695A60BB685A687B69E2
:1054C00018339A4203D17B691A6ABB685A607B69B8
:1054D00000229A62BB681B685A1EBB681A607B690F
:1054E0005B697B607B699B687A69D2689A607B693B
:1054F000DB687A6992685A607B685A687B69043312
:105500009A4203D17B69DA687B685A607B69002222
:105510005A617B681B685A1E7B681A607B69DB6A6C
:1055200001229A40414B1B681343404A13607B6938
:10553000DA6A3F4913469B0013449B000B44043333
:105540001B683B607B693A689A603B689A687B6934
:10555000DA603B689B687A6904325A607B691A1D7D
:105560003B689A607B69DA6A13469B0013449B0090
:105570002F4A1A447B695A617B69DA6A2C491346BF
:105580009B0013449B000B441B68591C284813467E
:105590009B0013449B00034419607B69DA6A254B26
:1055A0001B68DB6A9A4202D3234B01221A601E4B0E
:1055B0001B68002B7FF470AF7B69002B01D000F0DB
:1055C00073FF1E4B1B68FB60FB68002B10D000F0C4
:1055D0004BF90346002B02D0174B01221A60FB68DF
:1055E000013BFB60FB68002BF1D1144B00221A60D9
:1055F000114B1B68002B09D001233B61104B4FF06E
:1056000080521A60BFF34F8FBFF36F8FFCF732F9F0
:105610003B6918461837BD4680BD00BF30E3002007
:105620006CA0000008E30020C8E2002010E3002086
:1056300020E200201CE200201CE3002018E30020F0
:1056400004ED00E080B483B000AF044B1B687B60C6
:105650007B6818460C37BD4680BC70470CE30020C1
:1056600080B582B000AFFCF78BF900237B60044B60
:105670001B683B603B6818460837BD4680BD00BFCD
:105680000CE3002080B400AF024B1B681846BD46F7
:1056900080BC704708E3002080B584B000AF78601C
:1056A0007B68002B02D1094B1B6800E07B68FB6024
:1056B000FB68002B04D140F62B11054802F0D4FC06
:1056C000FB68343318461037BD4680BD1CE200200D
:1056D0006CA0000080B586B000AFF860B9607A6059
:1056E00000237B6106233B61FFF7A6FE3A4B1B6854
:1056F000BA689A4268D33B69013B3B617A691346B9
:10570000DB0013449B001A46FB6898183A6913465D
:105710009B0013449B00314A13440122194600F0B8
:105720000DFE02467B6913447B613B69002BE2D18D
:105730007A691346DB0013449B001A46FB68134446
:10574000274A11680222184600F0F8FD02467B69DC
:1057500013447B617A691346DB0013449B001A46AD
:10576000FB6813441F4A11680222184600F0E6FD48
:1057700002467B6913447B617A691346DB0013445C
:105780009B001A46FB68134404221749184600F090
:10579000D5FD02467B6913447B617A691346DB00C1
:1057A00013449B001A46FB68134403220F49184612
:1057B00000F0C4FD02467B6913447B617B68002BCB
:1057C00002D07B6800221A60FFF744FE7B6918460E
:1057D0001837BD4680BD00BF08E3002020E200204E
:1057E000C0E20020C4E20020DCE20020F4E200205D
:1057F00080B500AF064B1B68002B04D140F6082192
:10580000044802F031FC024B1B68184680BD00BF03
:105810002CE300206CA0000080B584B000AF78605D
:105820000E4B1B68002B04D040F63E210C4802F0C2
:105830001BFCFFF701FEFBF7F3FF0A4B1A687B68BE
:105840001344084A1360FCF715F8FFF703FEF860ED
:10585000FB6818461037BD4680BD00BF30E300200E
:105860006CA0000018E3002080B588B000AF0023D2
:10587000FB617E4B1B68002B40F0EC807C4B1B686F
:105880000133BB617A4ABB691360BB69002B1AD133
:10589000784B1B681B68002B04D040F6B721764874
:1058A00002F0E2FB734B1B687B61744B1B68714A0F
:1058B0001360724A7B691360714B1B680133704A35
:1058C000136000F0F1FD6F4B1B68BA699A42C0F09B
:1058D000A680684B1B681B68002B04D1694B4FF0F6
:1058E000FF321A609BE0634B1B68DB68DB683B613F
:1058F0003B695B68FB60BA69FB689A4203D2614A04
:10590000FB6813608BE03B695B69BB603B699B682C
:105910003A69D2689A603B69DB683A6992685A6072
:10592000BB685A683B6904339A4203D13B69DA6821
:10593000BB685A603B6900225A61BB681B685A1EEB
:10594000BB681A603B699B6A002B1ED03B699B6A4F
:105950007B603B69DB693A69126A9A603B691B6A42
:105960003A69D2695A607B685A683B6918339A422F
:1059700003D13B691A6A7B685A603B6900229A62CC
:105980007B681B685A1E7B681A603B69DB6A0122D0
:105990009A403D4B1B6813433B4A13603B69DA6AEC
:1059A0003A4913469B0013449B000B4404331B6885
:1059B0003B603B693A689A603B689A683B69DA6089
:1059C0003B689B683A6904325A603B691A1D3B6820
:1059D0009A603B69DA6A13469B0013449B002B4A8A
:1059E0001A443B695A613B69DA6A284913469B00AD
:1059F00013449B000B441B68591C244813469B000E
:105A000013449B00034419603B69DA6A204B1B680E
:105A1000DB6A9A427FF65DAF0123FB6159E71C4BBD
:105A20001B68DA6A194913469B0013449B000B4418
:105A30001B68012B01D90123FB61164B1B68002B4E
:105A400001D102F0A7FA144B1B68002B09D00123E7
:105A5000FB6106E00F4B1B6801330E4A136002F036
:105A600099FAFB6918462037BD4680BD30E3002017
:105A70000CE30020C0E200206CA00000C4E2002083
:105A800020E3002028E3002010E3002020E2002093
:105A90001CE2002018E300201CE3002080B586B043
:105AA00000AF364B1B68002B03D0354B01221A6028
:105AB00060E0334B00221A60324B1B681B6B7B612A
:105AC0004FF0A5333B617B691B683A699A4211D15B
:105AD0007B6904331B683A699A420BD17B690833AE
