:1000000000E5002095830000818300006D830000DF
:10001000598300005983000059830000000000004C
:10002000000000000000000000000000111D0000A2
:100030005983000000000000E11E0000291F00009D
:100040005983000059830000598300005983000040
:100050005983000059830000598300005983000030
:100060005983000059830000598300005983000020
:100070005983000059830000598300005983000010
:100080005983000059830000598300005983000000
:1000900059830000598300005983000059830000F0
:1000A00059830000598300005983000059830000E0
:1000B00059830000598300005983000059830000D0
:1000C00059830000598300005983000059830000C0
:1000D00059830000598300005983000059830000B0
:1000E000598300000000000059830000598300007C
:1000F00080B584B002AF00237B60194B1B684FF0C2
:10010000FF31184603F048F80346012B23D114E0D1
:100110007B68144A98187B68134A82FB031292107A
:10012000DB17D31ADB001A46012300930F230021AB
:1001300000F0A4F97B6815337B600A4A7B6813449E
:1001400093F90030002BE3D1054B186800230022FF
:10015000002102F0FBFC00BF0837BD4680BD00BF98
:100160007001002078010020310CC33080B500AF51
:10017000064B1B7803F07F00044B5B7803F03F01D4
:1001800001230F2200F0EAFA00BF80BD78050020AD
:1001900080B582B002AF012300930F23002200211B
:1001A000154800F06BF9154B1B78022B18D0022B69
:1001B0001FDC002B02D0012B09D01AE00123009391
:1001C0000F230F2200210E4800F058F911E00123FF
:1001D00000930F230F2200210A4800F04FF908E096
:1001E000012300930F230F220021074800F046F956
:1001F00000BF00BFBD4680BD4CA000007A050020B6
:1002000058A000006CA0000078A0000080B588B065
:1002100002AF012300930F2300220021424800F087
:100220002DF9012300930F23082241213F4800F0BC
:1002300025F9012300930F231C2241213C4800F0A3
:100240001DF9012300930F2330224121394800F08A
:1002500015F9394B1B684FF0FF31184602F09CFF2F
:100260000346012B0ED1012300930F2320220A21E4
:10027000324800F003F9304B1868002300220021B7
:1002800002F064FC2E4B1A6807F114032D4918463E
:1002900009F036F907F11400012300930F2310220F
:1002A000412100F0EBF8284B1A6807F114032549A7
:1002B000184609F025F907F11400012300930F23D4
:1002C0002422412100F0DAF8204B1A6807F11403C8
:1002D0001C49184609F014F907F114000123009392
:1002E0000F233822412100F0C9F8194B1B68391D32
:1002F0000022184603F03EF80346012B0FD17A681E
:1003000007F108031349184609F0FAF807F1080045
:10031000012300930F230C22002100F0AFF800BF4F
:100320001837BD4680BD00BF88A0000090A0000027
:100330009CA00000A8A0000070010020780100200F
:1003400080050020B4A0000084050020880500205E
:100350007C050020B8A0000080B584B000AF7860B4
:100360003960124B1B78DBB2002B1AD0002280219F
:100370000F4808F001FA10E07B685A1C7A601B787D
:1003800019460C4808F0F8FB07F10C031946094818
:1003900008F002FC3B68013B3B603B68002BEBD163
:1003A00000E000BF1037BD4680BD00BF8C150020A7
:1003B000006000400080004080B584B000AF7860ED
:1003C0003960124B1B78DBB2002B1AD080228021BF
:1003D0000F4808F0D1F910E07B685A1C7A601B784E
:1003E00019460C4808F0C8FB07F10C0319460948E8
:1003F00008F0D2FB3B68013B3B603B68002BEBD134
:1004000000E000BF1037BD4680BD00BF8C15002046
:10041000006000400080004080B582B000AF032142
:100420001248FFF799FF03211148FFF795FF0221BA
:100430001048FFF791FF00233B600FE000237B6033
:1004400006E008210C48FFF7B7FF7B6808337B60A4
:100450007B684F2BF5D93B6801333B603B683F2BF2
:10046000ECD900BF00BF0837BD4680BDF8A2000030
:10047000FCA20000C0A000009015002080B588B04C
:1004800000AFF860B9607A60FB7097F82830002BF5
:1004900040F0C780684B15221A70BB685B08DAB25F
:1004A000654B5A70644B3F229A7003216248FFF7F4
:1004B00053FF614B75221A707B68DAB25E4B5A703B
:1004C0007B68DBB20733DAB25B4B9A7003215A4880
:1004D000FFF742FF02215948FFF73EFFA1E0FB680A
:1004E00093F90030FB75FB7D03F07F03FB75FB7D0B
:1004F0001F2B02D82023FB7502E0FB7D203BFB7500
:100500000023FB6186E00023BB6149E04A4ABB69E6
:10051000134400221A70FA7DFB69590048481346BB
:100520009B00134403440B441B781A46BB6942FAF0
:1005300003F303F00103002B07D0FB781B01D9B2B2
:100540003D4ABB6913440A461A70FB69012B24D843
:10055000FA7DFB695B00591C394813469B00134424
:1005600003440B441B781A46BB6942FA03F303F0B9
:100570000103002B11D0304ABB6913441B785AB2D7
:1005800097F9033003F00F035BB213435BB2D9B2A8
:10059000294ABB6913440A461A70BB690133BB611F
:1005A000BB69072BB2D9BB687D2B41D897F828309F
:1005B000002B04D108212048FFF7FEFE24E0002391
:1005C0003B611EE07A683B69D1181B4A3B691344C2
:1005D0001B781B09DAB20123B86800F0BFF8BB68CA
:1005E000581C7A683B69D118134A3B6913441B783D
:1005F00003F00F03DAB2012300F0B0F83B690133D6
:100600003B613B69072BDDD9BB680233BB60FB69EB
:100610000133FB61FB69022B7FF675AFFB68013389
:10062000FB60FB6893F90030002B7FF458AF00E0CB
:1006300000BF2037BD4680BD98150020C0A0000037
:10064000C8A0000080B588B000AFF860B9607A60DB
:100650003B6097F82C30002B2CD13E4B15221A70A2
:10066000BB685B08DAB23B4B5A70BA683B6813440C
:10067000023B5B08DAB2374B9A7003213548FFF72B
:100680006BFE344B75221A707B68DAB2314B5A70AC
:100690007B68DAB2BB6ADBB21344DBB2013BDAB28D
:1006A0002C4B9A7003212B48FFF756FE02212A4853
:1006B000FFF752FEBB6A7B6143E097F82C30002BBA
:1006C00031D00023FB6129E0FB695A087969BB6AD4
:1006D000CB1A3968490801FB03F31344FA68134441
:1006E0001B78FB76FB6903F00103002B03D1FB7E33
:1006F0001B09FB7603E0FB7E03F00F03FB76BA6871
:10070000FB69D0187A687B691A44BB6AD11AFA7EF1
:10071000012300F023F8FB690133FB61FA693B68B0
:100720009A42D1D30AE03B685B081946F868FFF7A4
:1007300043FE3B685B08FA681344FB60BB6A013BFD
:10074000BB62BB6A002BB8D100BF00BF2037BD46DB
:1007500080BD00BFA0150020C4A0000080B584B0FB
:1007600000AFF860B96011461A460B46FB7113469C
:10077000BB71BB79002B1BD0BB689A01FB685B087F
:100780001A4426498A5C51B2FA6802F00102002A32
:1007900003D1FA79120152B201E097F907200A4316
:1007A00051B2BA6892011344C9B21C4AD15431E023
:1007B0001B4B15221A70FB685B08DAB2184B5A7093
:1007C000174B3F229A7003211548FFF7C5FD144BC4
:1007D00075221A70BB68DAB2114B5A70BB68DBB273
:1007E0000733DAB20E4B9A7003210D48FFF7B4FDC0
:1007F0000B4AFB791370FB6803F00103002B05D152
:10080000074B1B781B01DAB2054B1A700121044813
:10081000FFF7D2FD00BF1037BD4680BD8C0500201C
:10082000A815002080B588B000AFF860B9607A6084
:100830003B6097F82C30002B1ED07B687B6117E063
:10084000FA687B681344581EBA683B681344591E03
:1008500097F828200123FFF781FF7B68013B7B602D
:100860007B68002BECD13B68013B3B607B697B6084
:100870003B68002BF4D196E04D4B15221A70FB68B3
:100880005B08DAB24A4B5A70FA687B681344023B41
:100890005B08DAB2FB68D9B27B68DBB20B44DBB22F
:1008A00003F00103DBB21344DAB2414B9A70032127
:1008B0003F48FFF751FD3E4B75221A70BB68DAB214
:1008C0003B4B5A70BB68DAB23B68DBB21344DBB215
:1008D000013BDAB2364B9A7003213548FFF73CFDF5
:1008E00002213448FFF738FD97F828301B015AB22F
:1008F00097F9283013435BB2DAB22D4B1A7097F890
:1009000028301B01DAB22A4B5A70294A97F828304E
:1009100093707B685A087B6803F001031344FA68FC
:1009200002F00102002A08D0F9687A680A4402F04D
:100930000102002A01D0012200E000221344BB6121
:100940002EE0BB69FB6125E0FB69012B0CD1FA6845
:100950007B68134403F00103002B05D0164B0121E3
:100960001846FFF729FD12E0FA69BB699A420AD1DD
:10097000FB6803F00103002B05D0104B0121184642
:10098000FFF71AFD03E001210948FFF715FDFB6998
:10099000013BFB61FB69002BD6D13B68013B3B600F
:1009A0003B68002BCDD100BF2037BD4680BD00BFC6
:1009B000B0150020C4A00000B1150020B215002021
:1009C00080B586B002AF7860174808F0BDF808F02F
:1009D000FBFA0146082301937B6800930023012260
:1009E000114808F087F808214FF0402007F046FF33
:1009F0000A23042208214FF0402007F0CBFD0A48CB
:100A000008F09CF800BF07F10C031946064808F0EF
:100A1000CDF80346002BF6D1044B01221A7000BF1B
:100A20001037BD4680BD00BF008000408C150020FF
:100A300080B582B000AF134B00221A7000BF3B1D7F
:100A40001946114808F0B2F80346002BF7D10E48BA
:100A500008F07AF8012208214FF0402007F018FD35
:100A60000A23042208214FF0402007F093FD0822BA
:100A700008214FF0402007F07FFE00BF0837BD4639
:100A800080BD00BF8C1500200080004080B584B080
:100A900000AF78602D4808F011F92D4808F00EF9E4
:100AA0002C4808F00BF92C4808F008F93C214FF0CD
:100AB000402007F0E3FE0A23042204214FF04020E7
:100AC00007F068FD0A23042208214FF0402007F0B8
:100AD00061FD0A23042220214FF0402007F05AFD37
:100AE000012280211D4807F0D3FC08230422802125
:100AF0001A4807F04FFD80228021184807F03CFE7D
:100B00007868FFF75DFFFFF787FC0023FB6015E0C7
:100B1000FB680133124A1A441149FB680B441B78E5
:100B2000013B19461046FFF717FC0D4AFB681344BA
:100B30001B781A46FB6813440133FB60FB684D2B9E
:100B4000E6D900BF00BF1037BD4680BD10000010C1
:100B5000010000200200002004000020006000408E
:100B6000A8A2000080B582B000AF00237B6015E032
:100B70007B6801330D4A1A440C497B680B441B788F
:100B8000013B19461046FFF7E7FB084A7B68134410
:100B90001B781A467B68134401337B607B684D2BBE
:100BA000E6D900BF00BF0837BD4680BDA8A200003F
:100BB00080B500AF03210248FFF7CEFB00BF80BD28
:100BC00000A3000080B584B002AF0023019340234E
:100BD00000938023002200210C48FFF733FD40F6EC
:100BE000FF737B6007E0094A7B68134400221A7098
:100BF0007B68013B7B607B68002BF4D1034B0022B8
:100C00001A7000BF0837BD4680BD00BF8C050020AC
:100C100080B500AF02E0134808F0C0FB114808F0AF
:100C2000A5FB0346002BF6D11B210E4808F0C8FB9C
:100C30005B210C4808F0C4FB32210A4808F0C0FBD5
:100C40004A21084808F0BCFB1B21064808F0B8FB05
:100C50005B21044808F0B4FB4821024808F0B0FBCF
:100C600000BF80BD00C0004080B582B000AF78609A
:100C70000B46FB700C4B1B684FF0FF31184602F01F
:100C80008BFA0346012B0BD1084A7B681344FA7890
:100C90001A70054B186800230022002101F056FF4E
:100CA00000BF0837BD4680BD7001002078010020DC
:100CB00080B500AF70E03E4808F070FB03465AB2C2
:100CC0003C4B1A703B4B93F900301B2B2AD13A4B0B
:100CD00000221A70394B1B684FF0FF31184602F0A2
:100CE0005BFA0346012B5ED109E0354B1B68354AA0
:100CF0000021D154324B1B68013B314A1360304B09
:100D00001B68002BF1DC2E4B1B682E4A0021D154AE
:100D1000FFF77EFF294B186800230022002101F015
:100D200015FF40E0234B93F90030DBB21946204811
:100D300008F046FB1F4B93F90030082B1ED1204BC7
:100D40001B68002B31D01B4B20221A70194B93F9D2
:100D50000030DBB21946164808F032FB082114486F
:100D600008F02EFB164B1B68013B154A1360144B11
:100D70001B6800211846FFF777FF0DE0104B1B683A
:100D80000C4A92F9002011461846FFF76DFF0C4BF4
:100D90001B6801330A4A1360054808F0E7FA034666
:100DA000002B88D102E000BF00E000BF80BD00BF83
:100DB00000C00040B8150020740100207001002020
:100DC000BC1500207801002080B582B000AF002360
:100DD0007B600023FB704DE0314808F0DFFA0346EA
:100DE0005AB2304B1A702F4B93F900300D2B01D1B2
:100DF000042350E097F90330002B3BD17B68022B92
:100E000017D07B68022B32DC7B68002B03D07B6819
:100E1000012B07D02BE0234B93F900301B2B23D061
:100E2000062338E01F4B93F900305B2B1ED00623BE
:100E300031E01C4B93F90030413B032B12D801A247
:100E400052F823F0550E0000590E00005D0E000010
:100E5000610E000000231EE001231CE002231AE0C3
:100E6000032318E0062316E000BF00E000BF7B6804
:100E700001337B600A4808F079FA0346002B02D060
:100E80007B68022BA8DD074B93F900301B2B01D1A7
:100E9000052300E0062318460837BD4680BD00BF85
:100EA00000C00040C015002080B582B000AFFFF741
:100EB0008BFF0346FB71FB79052B37D801A252F853
:100EC00023F000BFDD0E0000EB0E0000F90E000065
:100ED000070F00002D0F0000150F0000164B5B7868
:100EE000013BDAB2144B5A7021E0134B5B780133AB
:100EF000DAB2114B5A701AE00F4B1B780133DAB299
:100F00000D4B1A7013E00C4B1B78013BDAB20A4B05
:100F10001A700CE0094B00221A70074B00221A705D
:100F2000054B00225A70FFF773FE00E000BF00BFC0
:100F30000837BD4680BD00BF780500207401002041
:100F400080B582B000AFBAE0644808F027FA0346E3
:100F50005AB2634B1A70624B93F900300D2B11D1CA
:100F6000604B1B68002B40F3AA805F4808F08EFAA4
:100F700003467B605D4B1868391D0023002201F099
:100F8000E5FD9CE0564B93F900301B2B2DD1584BBF
:100F900000221A70574B1B684FF0FF31184602F0C1
:100FA000FBF80346012B40F0928009E04D4B1B6893
:100FB0004D4A0021D1544B4B1B68013B494A1360F9
:100FC000484B1B68002BF1DC464B1B68464A00214E
:100FD000D15400F0A5F9FFF71BFE464B186800231B
:100FE0000022002101F0B2FD71E03E4B1B68022B94
:100FF00011DC3B4B93F9003001333F4A134493F922
:101000000030DBB203F00403002B0DD1344B93F915
:101010000030082B08D0334B1B68032B0CD1304B0E
:1010200093F90030082B07D12D4B93F90030DBB238
:1010300019462A4808F0C4F9294B93F90030082BC7
:101040001ED1284B1B68002B43D0254B20221A7041
:10105000234B93F90030DBB21946204808F0B0F971
:1010600008211E4808F0ACF91E4B1B68013B1D4AC5
:1010700013601C4B1B6800211846FFF7F5FD1EE0AE
:10108000184B1B68022B1ADC154B93F90030013307
:10109000194A134493F90030DBB203F00403002B28
:1010A0000DD0104B1B680E4A92F9002011461846CD
:1010B000FFF7DAFD0B4B1B6801330A4A1360074840
:1010C00008F054F90346002B7FF43EAF02E000BF66
:1010D00000E000BF0837BD4680BD00BF00C0004033
:1010E000C1150020C4150020780100207C050020D7
:1010F000740100207001002020A6000080B582B09D
:1011000000AFFFF761FE0346BB710023FB71BB79A3
:10111000052B24D801A252F823F000BF351100009E
:10112000431100005F1100005F1100005111000029
:10113000571100001B4B1B78013BDAB2194B1A7098
:101140000EE0184B1B780133DAB2164B1A7007E029
:101150000123FB7104E0144B00221A7000E000BF71
:10116000104B1B78114A92F9002093FBF2F101FB1E
:1011700002F29B1ADAB20B4B1A7097F90730002B68
:101180000BD0084B1B780133DAB2074B1A70064BB1
:101190001B78032B01D100F087F800BF0837BD464C
:1011A00080BD00BF7A0500207401002000010020EE
:1011B00080B58CB000AF786032237B624FF47A73D5
:1011C0003B6204F0A5FB0346FB610023FB6207F1D1
:1011D0001003184606F0D2FA07F110032B491846FF
:1011E00008F0AEF90346002B02D1294BBB6216E092
:1011F00007F110032749184608F0A2F90346002B0F
:1012000002D1254BBB620AE007F1100323491846BF
:1012100008F096F90346002B01D1214BBB6207F180
:101220001C03796A184603F003FEFB6A002B29D1E0
:101230001C4B1B6807F10C010022184601F0DCFE74
:101240000346012B1ED1FB68002B1BD0FB681A46FE
:10125000BB6A1A600123FB6204F05AFB0346FB6180
:1012600010E007F11C03396A184603F0E1FDBB6A80
:101270001B685A1EBB6A1A60BB6A1B68002B01D12F
:101280000023FB62FB6A002BEBD1C8E704A300003C
:10129000800500200CA300008405002014A300009A
:1012A000880500207C05002080B582B002AF0022B6
:1012B00004210A2001F0DAFA0346114A1360114BA7
:1012C00001930223009300233C220F490F4803F0AF
:1012D000BDFB0F4B01930223009300233C220D49D9
:1012E0000A4803F0B3FB0C4B019302230093002345
:1012F0003C220A49054803F0A9FB00BFBD4680BD5A
:101300007C050020C815002004A30000B1110000D6
:10131000CC1500200CA30000D015002014A3000061
:1013200080B500AF0F4B1B68184603F0F1FC0E4B65
:101330001B68184603F0ECFC0C4B1B68184603F0C6
:10134000E7FC0B4B00221A600A4B00221A600A4B82
:1013500000221A60094B1B68184602F011FA00BF00
:1013600080BD00BFC8150020CC150020D01500207E
:101370008005002084050020880500207C050020D1
:1013800080B58CB000AFF860B9607A603B60002334
:10139000BB61BB68002B02D0BB68013BBB60002374
:1013A000BB61C3E10023FB6202E0FB6A0133FB6225
:1013B0007A68FB6A134493F90030252B06D07A68CB
:1013C000FB6A134493F90030002BEED1FA6ABB6834
:1013D0009A420BD9BA687968F86808F0CBF8FA68CD
:1013E000BB681344FB600023BB600CE0FA6A7968B9
:1013F000F86808F0BFF8FA68FB6A1344FB60BA6843
:10140000FB6AD31ABB60BA69FB6A1344BB617A6892
:10141000FB6A13447B607B6893F90030252B40F016
:1014200084817B6801337B6000237B622023FB7710
:101430007B685A1C7A6093F90030782B00F3568150
:10144000582B0ADA252B00F04081252BC0F24E8163
:10145000303B092B00F24A8148E0583B202B00F238
:10146000458101A252F823F0FD150000ED160000A1
:10147000ED160000ED160000ED160000ED16000060
:10148000ED160000ED160000ED160000ED16000050
:10149000ED160000231500004D150000ED160000AC
:1014A000ED160000ED160000ED160000ED16000030
:1014B000ED160000ED160000ED160000ED16000020
:1014C000ED160000ED160000ED160000ED16000010
:1014D000ED16000085150000ED160000ED1500006A
:1014E000ED160000ED160000FD1500007B68013BC5
:1014F00093F90030302B04D17B6A002B01D13023CB
:10150000FB777A6A13469B0013445B007B627B681F
:10151000013B93F900301A467B6A1344303B7B62EF
:1015200086E73B681A1D3A601B68BB62BB68002BEC
:1015300008D0FB685A1CFA60BA6A52B21A70BB68CB
:10154000013BBB60BB690133BB61EFE03B681A1D27
:101550003A601B68BB62BB6A002B10DABB6A5B4255
:10156000BB62BB68002B07D0FB685A1CFA602D22B7
:101570001A70BB68013BBB60BB690133BB610A23C6
:101580003B6242E03B681A1D3A601B687B610023A6
:10159000FB6202E0FB6A0133FB627A69FB6A134477
:1015A00093F90030002BF5D1FA6ABB689A420BD947
:1015B000BA687969F86807F0DDFFFA68BB68134418
:1015C000FB600023BB600CE0FA6A7969F86807F0F9
:1015D000D1FFFA68FB6A1344FB60BA68FB6AD31A4E
:1015E000BB60BA69FB6A1344BB619FE03B681A1D8C
:1015F0003A601B68BB620A233B6206E03B681A1D27
:101600003A601B68BB6210233B620123FB6207E068
:10161000FB6A3A6A02FB03F3FB627B6A013B7B6273
:10162000FB6A3A6A02FB03F3BA6A9A4209D3FB6A7D
:101630003A6A03FB02F23B6AB2FBF3F3FA6A9A429C
:10164000E6D07B6A012B3CD97B6A0F2B39D87B6AA9
:10165000013B7B6210E0BB68002B07D0FB685A1C83
:10166000FA60FA7F1A70BB68013BBB60BB6901334B
:10167000BB617B6A013B7B627B6A002BEBD120E084
:10168000BB68002B15D03048BA6AFB6AB2FBF3F393
:101690003A6AB3FBF2F2396A01FB02F29B1AC218F2
:1016A000FB68591CF96092F900201A70BB68013B75
:1016B000BB60BB690133BB61FA6A3B6AB2FBF3F3FF
:1016C000FB62FB6A002BDBD130E0BB68002B09D04A
:1016D000FB685A1CFA607A6812F9012C1A70BB6810
:1016E000013BBB60BB690133BB611FE0BB68042BDE
:1016F0000CD9FB68154A1068186012791A71FB68DA
:101700000533FB60BB68053BBB600AE0BA680F4964
:10171000F86807F02FFFFA68BB681344FB600023EA
:10172000BB60BB690533BB6100E000BF7B6893F918
:101730000030002B7FF436AEFB6800221A70BB69C4
:1017400018463037BD4680BD1CA3000030A3000002
:101750000EB480B585B000AF786007F12003BB60A0
:10176000BB68FA694FF6FF717868FFF709FEF86009
:10177000FB6818461437BD46BDE8804003B070478B
:101780000CB480B584B000AF7860396007F11C03F9
:10179000BB60BB68BA6939687868FFF7F1FDF8602B
:1017A000FB6818461037BD46BDE8804002B0704760
:1017B00080B588B000AF786000237B6103F0A2FFA2
:1017C0004C4B1B68002B01D100F03CF97B68002BCF
:1017D00012D008227B6803F00703D31A08333B6159
:1017E0003B69DB437A689A4204D87A683B691344C0
:1017F0007B6001E000237B607B68002B69DB7B68FA
:10180000002B66D03C4B1B687A689A4261D83B4BF0
:10181000BB613A4B1B68FB6104E0FB69BB61FB6980
:101820001B68FB61FB695B687A689A4203D9FB69B4
:101830001B68002BF1D12F4B1B68FA699A4248D0E4
:10184000BB691B68082213447B61FB691A68BB698A
:101850001A60FB695A687B68D21A08235B009A42B7
:1018600018D9FA697B681344FB60FB6803F007032F
:10187000002B03D0DC21224806F014FDFB695A68D6
:101880007B68D21AFB685A60FB697A685A60F8680C
:1018900000F034F9184B1A68FB695B68D31A164AD2
:1018A0001360154B1A68174B1B689A4203D2124BF0
:1018B0001B68144A1360FB695B6843F00042FB69D4
:1018C0005A60FB6900221A600F4B1B6801330E4AF5
:1018D000136003F025FF7B6903F00703002B04D09E
:1018E0004FF48E71064806F0DDFC7B691846203700
:1018F000BD4680BDDCDD0020E0DD0020D4DD002021
:1019000040A30000E4DD0020E8DD002080B584B0C5
:1019100000AF78607B68FB607B68002B3DD00823BC
:101920005B42FA681344FB60FB68BB60BB685B68A2
:10193000002B04DB40F22F111A4806F0B3FCBB6801
:101940001B68002B04D04FF49871164806F0AAFCCF
:10195000BB685B68DB0F03F00103DBB2002B1CD01C
:10196000BB681B68002B18D1BB685B6823F0004282
:10197000BB685A6003F0C6FEBB685A680A4B1B6816
:101980001344094A1360B86800F0B8F8074B1B68A5
:101990000133064A136003F0C3FE00BF1037BD4693
:1019A00080BD00BF40A30000E0DD0020ECDD002092
:1019B00080B400AF024B1B681846BD4680BC704720
:1019C000E0DD002080B400AF024B1B681846BD4626
:1019D00080BC7047E4DD002080B400AF00BFBD468E
:1019E00080BC704780B584B000AF78603960002358
:1019F000FB607B68002B09D04FF0FF327B68B2FBA5
:101A0000F3F33A689A4201D9012300E00023002B46
:101A100013D17B683A6802FB03F31846FFF7C8FE50
:101A2000F860FB68002B08D07B683A6802FB03F380
:101A30001A460021F86807F03FFDFB68184610378A
:101A4000BD4680BD80B485B000AF4FF44843BB6055
:101A5000254BFB60FB6803F00703002B0CD0FB68F1
:101A60000733FB60FB6823F00703FB60BA68FB6881
:101A7000D31A1D4A1344BB60FB687B601B4A7B681A
:101A800013601A4B00225A607B68BA681344FB60EB
:101A90000822FB689B1AFB60FB6823F00703FB60CE
:101AA000FB68134A1360124B1B6800225A60104BEC
:101AB0001B6800221A607B683B603B68FA68D21A98
:101AC0003B685A600A4B1A683B681A603B685B685F
:101AD000084A13603B685B68074A136000BF14370D
:101AE000BD4680BC704700BFD4150020D4DD002067
:101AF000DCDD0020E4DD0020E0DD002080B485B0E6
:101B000000AF7860274BFB6002E0FB681B68FB605E
:101B1000FB681B687A689A42F7D8FB68BB60FB6871
:101B20005B68BA6813447A689A4208D1FB685A68BD
:101B30007B685B681A44FB685A60FB687B607B6863
:101B4000BB607B685B68BA681A44FB681B689A4292
:101B500018D1FB681A68144B1B689A420DD07B6839
:101B60005A68FB681B685B681A447B685A60FB68AC
:101B70001B681A687B681A6008E00B4B1A687B6860
:101B80001A6003E0FB681A687B681A60FA687B6871
:101B90009A4202D0FB687A681A6000BF1437BD46CB
:101BA00080BC7047D4DD0020DCDD002080B586B02D
:101BB00000AF786000233B610023FB604FF0FF33F0
:101BC000BB6003F09FFD224B1B687B617B69002B90
:101BD0001BD015E03B6901333B617B695B68FA68A8
:101BE0009A4202D27B695B68FB607B695B68BA687A
:101BF0009A4202D97B695B68BB607B691B687B6129
:101C0000144B1B687A699A42E4D103F089FD7B6822
:101C1000FA685A607B68BA689A607B683A69DA60E9
:101C200000F00EF90C4B1A687B681A600B4B1A68AF
:101C30007B685A610A4B1A687B689A61094B1A687B
:101C40007B681A6100F026F900BF1837BD4680BDD9
:101C5000D4DD0020DCDD0020E0DD0020E8DD002018
:101C6000ECDD0020E4DD002080B485B000AFF8603A
:101C7000B9607A60FB68043BFB60FB684FF08072E0
:101C80001A60FB68043BFB60BB6823F00102FB6841
:101C90001A60FB68043BFB60084AFB681A60FB683B
:101CA000143BFB607A68FB681A60FB68203BFB60B2
:101CB000FB6818461437BD4680BC7047C11C000045
:101CC00080B582B000AF00233B600E4B1B68B3F1C0
:101CD000FF3F03D0D1210C4806F0E4FA4FF0050392
:101CE00083F31188BFF36F8FBFF34F8F7B6000BF0B
:101CF00000BF3B68002BFCD000BF00BF0837BD46CB
:101D000080BD00BF0401002084A30000000000008B
:101D1000074B19680868B0E8F00F80F30988BFF333
:101D20006F8F4FF0000080F311884EF00D0E70475A
:101D300048DE002000BF00BF06480068006880F34E
:101D4000088862B661B6BFF34F8FBFF36F8F00DFB5
:101D500000BF000008ED00E000BF00BF80B584B008
:101D600000AF294BFB60FB681B78DBB2BB60FB68F4
:101D7000FF221A70FB681B78DBB2FB71FB79DBB2C8
:101D800003F00503DAB2214B1A70214B07221A60C7
:101D900009E01F4B1B68013B1D4A1360FB79DBB256
:101DA0005B00DBB2FB71FB79DBB203F08003802BBD
:101DB000EFD0174B1B681B02154A1360144B1B68AE
:101DC00003F4E063124A1360BB68DAB2FB681A706E
:101DD000104B1B680F4A43F47F0313600D4B1B68C5
:101DE0000C4A43F07F43136000F0C0F80A4B002216
:101DF0001A60FFF7A1FF03F0B7FFFFF761FF0023B1
:101E000018461037BD4680BD00E400E0F0DD00203C
:101E1000F4DD002020ED00E00401002080B500AFDB
:101E2000054B1B68B3F57A7F04D040F26F1103486D
:101E300006F038FA00BF80BD0401002084A3000032
:101E400080B582B000AF4FF0050383F31188BFF374
:101E50006F8FBFF34F8F7B6000BF0B4B1B6801334D
:101E6000094A1360084B1B68012B09D1074B1B68FB
:101E7000DBB2002B04D040F27F11054806F012FAC5
:101E800000BF0837BD4680BD0401002004ED00E01E
:101E900084A3000080B582B000AF0E4B1B68002BFE
:101EA00004D14FF4C3710C4806F0FCF9094B1B68D0
:101EB000013B084A1360074B1B68002B05D1002328
:101EC0007B607B6883F3118800BF00BF0837BD4685
:101ED00080BD00BF0401002084A3000000000000BA
:101EE000EFF30980BFF36F8F0D4B1A6820E9F00FF5
:101EF00010602DE908404FF0050080F3118803F0D1
:101F000033FF4FF0000080F31188BDE808401968E6
:101F10000868B0E8F00F80F30988BFF36F8F70474F
:101F200048DE002000BF00BF80B582B000AF4FF098
:101F3000050383F31188BFF36F8FBFF34F8F7B606F
:101F400000BF03F0F7FD0346002B03D0064B4FF014
:101F500080521A6000233B603B6883F3118800BF06
:101F600000BF0837BD4680BD04ED00E080B400AF7F
:101F7000084B00221A60084B00221A60074B4CF2F3
:101F80004F321A60034B07221A6000BFBD4680BC67
:101F9000704700BF10E000E018E000E014E000E04F
:101FA00080B582B000AFEFF305837B607B680F2BB9
:101FB0000ED9104A7B6813441B78FB700E4B1B78BC
:101FC000FA789A4204D240F2E6210C4806F06AF907
:101FD0000B4B1B6803F4E0620A4B1B689A4204D95E
:101FE00040F2F621054806F05DF900BF0837BD460E
:101FF00080BD00BFF0E300E0F0DD002084A300001E
:102000000CED00E0F4DD002080B582B000AF1C20B4
:10201000FFF7CEFB78607B68002B07D07B6800223F
:102020001A607B680433184600F0EAFA7B681846A9
:102030000837BD4680BD000080B58AB000AFF860AB
:10204000B9607A603B60FB683B620023FB617B68A0
:1020500003F07F43002B03D0CC21434806F022F944
:102060007B68002B03D1CD213F4806F01BF904F01B
:102070008DFB0346002B02D13B68002B01D10123CD
:1020800000E00023002B03D1D021374806F00AF9E5
:1020900003F038FB3B6A1B68BB61B968F86800F065
:1020A00085F9BA69BB681A437B6813407A689A421B
:1020B0000DD1BA69BB6813437B623B6A1A687B68BF
:1020C000DB431A403B6A1A6000233B6013E03B6825
:1020D000002B0BD03B6A181D7B6843F0A0633A6865
:1020E000194603F0DDFE00237B6204E03B6A1B68B7
:1020F0007B620123FB6103F013FB78613B68002BDB
:102100002CD07B69002B07D1184B4FF080521A60FE
:10211000BFF34F8FBFF36F8F04F0F8FD78627B6AD7
:1021200003F00073002B15D1FFF78AFE3B6A1B6892
:102130007B627A6A7B6813407A689A4206D13B6A6E
:102140001A687B68DB431A403B6A1A60FFF7A2FEFD
:102150000123FB617B6A23F07F437B627B6A184625
:102160002837BD4680BD00BFC8A3000004ED00E0D5
:1021700080B58CB000AFF860B9607A603B60FB68F6
:102180007B620023BB6200233B62FB68002B04D10F
:102190004FF4A571504806F085F8BB6803F07F4303
:1021A000002B04D040F24B114B4806F07BF8BB6883
:1021B000002B04D14FF4A671474806F073F804F0E1
:1021C000E5FA0346002B02D1BB6B002B01D10123A2
:1021D00000E00023002B04D140F24F113E4806F0EE
:1021E00061F803F08FFA7B6A1B68FB613A68B96893
:1021F000F86900F0ADF9B861BB69002B0ED0FB693E
:10220000FB620023BB637B68002B28D07B6A1A68C3
:10221000BB68DB431A407B6A1A6020E0BB6B002B73
:1022200004D1FB69FB6201233B6218E07B68002B51
:1022300003D0BB6A43F08073BB623B68002B03D0C2
:10224000BB6A43F08063BB627B6A181DBA68BB6AD5
:102250001343BA6B194603F023FE0023FB6203F01D
:102260005FFA7861BB6B002B31D07B69002B07D103
:102270001A4B4FF080521A60BFF34F8FBFF36F8F2E
:1022800004F044FDF862FB6A03F00073002B1AD1DE
:10229000FFF7D6FD7B6A1B68FB623A68B968F86A8B
:1022A00000F056F90346002B09D07B68002B06D0BE
:1022B0007B6A1A68BB68DB431A407B6A1A60012399
:1022C0003B62FFF7E7FDFB6A23F07F43FB62FB6A9B
:1022D00018463037BD4680BDC8A3000004ED00E0BD
:1022E00080B584B000AF786039607B68FB607B6844
:1022F000002B04D140F2E1110F4805F0D3FF3B68F9
:1023000003F07F43002B04D04FF4F1710A4805F02D
:10231000C9FFFFF795FDFB681B68BB60FB681A6887
:102320003B68DB431A40FB681A60FFF7B3FDBB68EC
:1023300018461037BD4680BDC8A3000080B584B0E4
:1023400000AF7860396000233A687968044805F086
:102350006FFEF860FB6818461037BD4680BD00BFB1
:102360003725000080B489B000AF78607B68FB61DE
:10237000EFF311824FF0050383F31188BFF36F8FE2
:10238000BFF34F8FFA60BB60FB68BB61FB691B68E2
:102390007B61BB693B613B6983F3118800BF7B694B
:1023A00018462437BD4680BC7047000080B58CB00D
:1023B00000AF786039600023BB627B683B6200231A
:1023C0007B627B68002B04D140F22221374805F064
:1023D00069FF3B6803F07F43002B04D040F22321C8
:1023E000324805F05FFF3B6A0433FB61FB69083349
:1023F000BB6103F087F9FB69DB68FB623B6A1A6823
:102400003B681A433B6A1A603CE0FB6A5B687B618D
:10241000FB6A1B683B6100237B623B6903F07F43DF
:10242000FB603B6923F07F433B61FB6803F0806303
:10243000002B08D13B6A1A683B691340002B0BD074
:1024400001237B6208E03B6A1A683B6913403A69E2
:102450009A4201D101237B627B6A002B10D0FB687A
:1024600003F08073002B03D0BA6A3B691343BB624D
:102470003B6A1B6843F000731946F86A03F06EFE6E
:102480007B69FB62FA6ABB699A42BED13B6A1A68F1
:10249000BB6ADB431A403B6A1A6003F041F93B6AAE
:1024A0001B6818463037BD4680BD00BFC8A300007A
:1024B00080B584B000AF78607B68FB60FB68002B60
:1024C00004D140F27A21144805F0ECFEFB68043395
:1024D000BB6003F017F911E0BB68DA68BB6808332A
:1024E0009A4204D140F286210B4805F0DBFEBB681E
:1024F000DB684FF00071184603F030FEBB681B68C4
:10250000002BE9D103F00CF9F868FFF7FFF900BFE1
:102510001037BD4680BD00BFC8A3000080B582B0A3
:1025200000AF7860396039687868FFF73FFF00BF17
:102530000837BD4680BD80B582B000AF7860396095
:1025400039687868FFF7CCFE00BF0837BD4680BD0C
:1025500080B487B000AFF860B9607A6000237B6117
:102560007B68002B07D1FA68BB681340002B0AD0A8
:1025700001237B6107E0FA68BB681340BA689A429E
:1025800001D101237B617B6918461C37BD4680BCA5
:102590007047000080B586B000AFF860B9607A601F
:1025A0007B68BA68F968044805F042FD78617B6988
:1025B00018461837BD4680BD1D25000080B485B083
:1025C00000AF78607B68BB607B68002B02D1002382
:1025D000FB6002E0BB689B69FB60FB681846143730
:1025E000BD4680BC704780B483B000AF786039606E
:1025F0007B683A689A6100BF0C37BD4680BC704763
:1026000080B483B000AF78607B6803F108027B6818
:102610005A607B684FF0FF329A607B6803F10802D2
:102620007B68DA607B6803F108027B681A617B686B
:1026300000221A6000BF0C37BD4680BC704780B4D2
:1026400083B000AF78607B6800221A6100BF0C374E
:10265000BD4680BC704780B485B000AF78603960FB
:102660007B685B68FB603B68FA685A60FB689A6845
:102670003B689A60FB689B683A685A60FB683A68F6
:102680009A603B687A681A617B681B685A1C7B6891
:102690001A6000BF1437BD4680BC704780B485B057
:1026A00000AF786039603B681B68BB60BB68B3F102
:1026B000FF3F03D17B681B69FB600CE07B6808333C
:1026C000FB6002E0FB685B68FB60FB685B681B68A3
:1026D000BA689A42F6D2FB685A683B685A603B680F
:1026E0005B683A689A603B68FA689A60FB683A6887
:1026F0005A603B687A681A617B681B685A1C7B6861
:102700001A6000BF1437BD4680BC704780B485B0E6
:1027100000AF78607B681B69FB607B685B687A68E8
:1027200092689A607B689B687A6852685A60FB6816
:102730005B687A689A4203D17B689A68FB685A6042
:102740007B6800221A61FB681B685A1EFB681A60CE
:10275000FB681B6818461437BD4680BC70470000F4
:1027600080B584B000AF786039600123FB607B687E
:10277000BB60BB68002B04D14FF49771394805F05A
:1027800091FDBB68002B5DD0BB68DB6B002B59D083
:10279000BB681A6CBB68DB6B0021A3FB0223002B18
:1027A00000D001210B46002B4CD1FFF749FBBB6841
:1027B0001A68BB68DB6BB968096C01FB03F31A4448
:1027C000BB689A60BB6800229A63BB681A68BB68E2
:1027D0005A60BB681A68BB68DB6B013BB968096C5F
:1027E00001FB03F31A44BB68DA60BB68FF2283F87D
:1027F0004420BB68FF2283F845203B68002B14D19E
:10280000BB681B69002B1AD0BB681033184603F055
:10281000D5FB0346002B12D0134B4FF080521A60A9
:10282000BFF34F8FBFF36F8F09E0BB6810331846BB
:10283000FFF7E6FEBB6824331846FFF7E1FEFFF71B
:1028400029FB01E00023FB60FB68002B04D140F270
:102850006311044805F026FDFB6818461037BD4695
:1028600080BD00BF00A4000004ED00E080B58AB088
:1028700002AFF860B9601346FB710023FB61FB688F
:10288000002B2ED00021BA68FB68A3FB0223002B8B
:1028900000D001210B46002B23D1FB68BA6802FB54
:1028A00003F313F1550F1CD8FB68BA6802FB03F35E
:1028B000BB61BB6954331846FEF77AFFF861FB69C8
:1028C000002B16D0FB697B617B6954337B61FA79FD
:1028D000FB69009313467A69B968F86800F010F84C
:1028E00007E0FB69002B04D14FF4F271034805F0B7
:1028F000D9FCFB6918462037BD4680BD00A4000006
:1029000080B584B000AFF860B9607A60FB70BB68D6
:10291000002B03D1BB69BA691A6002E0BB697A680F
:102920001A60BB69FA68DA63BB69BA681A64012184
:10293000B869FFF715FFBB69FA7883F85020BB69C7
:1029400000229A6400BF1037BD4680BD80B582B0BA
:1029500000AF78607B68002B0ED07B6800229A6005
:102960007B6800221A607B680022DA600023002264
:102970000021786800F0EAF800BF0837BD4680BD46
:1029800080B586B000AF0346FB7101237B61002355
:102990003B61FB791A4639697869FFF767FFF86090
:1029A000F868FFF7D3FFFB6818461837BD4680BDAF
:1029B00080B584B000AF78607B68BB607B68002B1B
:1029C00004D140F266210B4805F06CFCFFF738FAA1
:1029D000BB681B68002B03D1BB689B68FB6001E0F0
:1029E0000023FB60FFF756FAFB6818461037BD4618
:1029F00080BD00BF00A4000080B584B000AF786047
:102A00007B68002B04D140F28621094805F04AFC7E
:102A10007B681B68002B03D17B689B68FB6001E02F
:102A20000023FB60FB6818461037BD4680BD00BF21
:102A300000A4000090B585B000AF78607B68BB60F3
:102A4000BB68002B04D140F2A121114805F02AFCFB
:102A5000BB689C6803F08CFE03469C4211D1BB68A6
:102A6000DB685A1EBB68DA60BB68DB68002B05D1E7
:102A7000002300220021B86800F068F80123FB6001
:102A800001E00023FB60FB6818461437BD4690BD8B
:102A900000A4000090B585B000AF786039607B6815
:102AA000BB60BB68002B04D140F2D921114805F06E
:102AB000F9FBBB689C6803F05BFE03469C4207D1B0
:102AC000BB68DB685A1CBB68DA600123FB600CE062
:102AD0003968B86800F060FBF860FB68002B04D030
:102AE000BB68DB685A1CBB68DA60FB6818461437A1
:102AF000BD4690BD00A4000080B584B000AF7860F2
:102B000039600023FB607B68002B10D03A687B683B
:102B10009A420CD8022200217868FFF7A7FEF860DD
:102B2000FB68002B0BD0FB683A689A6307E0FB68F0
:102B3000002B04D140F23931034805F0B3FBFB68A8
:102B400018461037BD4680BD00A4000080B58AB08D
:102B500000AFF860B9607A603B6000237B62FB687D
:102B60003B623B6A002B04D14FF45371774805F068
:102B700099FBBB68002B03D13B6A1B6C002B01D176
:102B8000012300E00023002B04D140F24D316F48B7
:102B900005F088FB3B68022B03D13B6ADB6B012B02
:102BA00001D1012300E00023002B04D140F24E317B
:102BB000664805F077FB03F0E9FD0346002B02D1E0
:102BC0007B68002B01D1012300E00023002B04D1FE
:102BD00040F251315D4805F065FBFFF731F93B6A82
:102BE0009A6B3B6ADB6B9A4202D33B68022B45D15E
:102BF0003B6A9B6BFB613A68B968386A00F015FE66
:102C0000B8613B6A9B6C002B14D03B68022B02D14D
:102C1000FB69002B2ED1386A01F0B8F80346002B6F
:102C200028D04B4B4FF080521A60BFF34F8FBFF349
:102C30006F8F1FE03B6A5B6A002B10D03B6A243326
:102C4000184603F0BBF90346002B13D0404B4FF05E
:102C500080521A60BFF34F8FBFF36F8F0AE0BB69DA
:102C6000002B07D03A4B4FF080521A60BFF34F8FC2
:102C7000BFF36F8FFFF70EF9012363E07B68002B32
:102C800003D1FFF707F900235CE07B6A002B06D134
:102C900007F11003184603F037FB01237B62FFF7AF
:102CA000F9F802F02FFDFFF7CBF83B6A93F84430B8
:102CB0005BB2B3F1FF3F03D13B6A002283F84420AB
:102CC0003B6A93F845305BB2B3F1FF3F03D13B6AF7
:102CD000002283F84520FFF7DDF83A1D07F11003C5
:102CE0001146184603F026FB0346002B24D1386A10
:102CF00000F0BEFE0346002B18D03B6A10337A6802
:102D00001146184603F0ACF8386A00F01EFE02F0D7
:102D100007FD0346002B7FF460AF0D4B4FF0805250
:102D20001A60BFF34F8FBFF36F8F56E7386A00F01A
:102D30000CFE02F0F5FC50E7386A00F006FE02F0E7
:102D4000EFFC002318462837BD4680BD00A40000D4
:102D500004ED00E080B58EB000AFF860B9607A6035
:102D60003B60FB683B633B6B002B04D14FF48461F9
:102D7000514805F097FABB68002B03D13B6B1B6CE5
:102D8000002B01D1012300E00023002B04D140F2ED
:102D90002141494805F086FA3B68022B03D13B6B81
:102DA000DB6B012B01D1012300E00023002B04D1B8
:102DB00040F22241404805F075FAFFF7F1F8EFF3D1
:102DC00011824FF0050383F31188BFF36F8FBFF3B8
:102DD0004F8FFA61BB61FB69FB623B6B9A6B3B6B8C
:102DE000DB6B9A4202D33B68022B57D13B6B93F8C3
:102DF000453087F82B303B6B9B6B7B623A68B96838
:102E0000386B00F012FD97F92B30B3F1FF3F29D159
:102E10003B6B9B6C002B12D03B68022B02D17B6A70
:102E2000002B38D1386B00F0B1FF0346002B32D0B5
:102E30007B68002B2FD07B6801221A602BE03B6B54
:102E40005B6A002B27D03B6B2433184603F0B6F89F
:102E50000346002B1FD07B68002B1CD07B6801220F
:102E60001A6018E002F074FD386297F92B303A6A64
:102E70009A4210D997F92B307F2B04D140F2AB4105
:102E80000D4805F00FFA97F82B300133DBB25AB238
:102E90003B6B83F8452001237B6301E000237B63C8
:102EA000FB6A7B617B6983F3118800BF7B6B1846EB
:102EB0003837BD4680BD00BF00A4000080B58CB08F
:102EC00000AF786039607B68BB62BB6A002B04D1BD
:102ED00040F2C941474805F0E5F9BB6A1B6C002B7D
:102EE00004D040F2CD41434805F0DCF9BB6A1B68D1
:102EF000002B03D1BB6A9B68002B01D1012300E0AA
:102F00000023002B04D140F2D2413A4805F0CAF91F
:102F1000FFF746F8EFF311824FF0050383F31188B2
:102F2000BFF36F8FBFF34F8F7A613B617B697B6229
:102F3000BB6A9B6B3B62BB6ADB6B3A6A9A424BD2C1
:102F4000BB6A93F84530FB773B6A5A1CBB6A9A63AD
:102F500097F91F30B3F1FF3F23D1BB6A9B6C002B65
:102F60000CD0B86A00F012FF0346002B31D03B684A
:102F7000002B2ED03B6801221A602AE0BB6A5B6AF4
:102F8000002B26D0BB6A2433184603F017F80346FB
:102F9000002B1ED03B68002B1BD03B6801221A601F
:102FA00017E002F0D5FCB86197F91F30BA699A4270
:102FB0000FD997F91F307F2B04D140F251510D48A2
:102FC00005F070F9FB7F0133DBB25AB2BB6A83F8BC
:102FD00045200123FB6201E00023FB627B6AFB606A
:102FE000FB6883F3118800BFFB6A18463037BD4683
:102FF00080BD00BF00A4000080B58AB000AFF860BB
:10300000B9607A6000237B62FB683B623B6A002BFD
:1030100004D140F26B515E4805F044F9BB68002BC7
:1030200003D13B6A1B6C002B01D1012300E000237C
:10303000002B04D140F26F51554805F033F903F0ED
:10304000A5FB0346002B02D17B68002B01D1012395
:1030500000E00023002B04D140F274514C4805F0ED
:1030600021F9FEF7EDFE3B6A9B6BFB61FB69002BD0
:103070001FD0B968386A00F042FCFB695A1E3B6AEF
:103080009A633B6A1B69002B0FD03B6A10331846CA
:1030900002F094FF0346002B07D03E4B4FF08052C6
:1030A0001A60BFF34F8FBFF36F8FFEF7F3FE01235C
:1030B00069E07B68002B03D1FEF7ECFE002362E0A1
:1030C0007B6A002B06D107F11403184603F01CF9A4
:1030D00001237B62FEF7DEFE02F014FBFEF7B0FE7A
:1030E0003B6A93F844305BB2B3F1FF3F03D13B6AD4
:1030F000002283F844203B6A93F845305BB2B3F179
:10310000FF3F03D13B6A002283F84520FEF7C2FE51
:103110003A1D07F114031146184603F00BF9034654
:10312000002B23D1386A00F06FFC0346002B17D028
:103130003B6A24337A681146184602F091FE386AD9
:1031400000F003FC02F0ECFA0346002B89D1114B8E
:103150004FF080521A60BFF34F8FBFF36F8F80E73D
:10316000386A00F0F2FB02F0DBFA7AE7386A00F026
:10317000ECFB02F0D5FA386A00F046FC0346002B5F
:103180003FF46FAF002318462837BD4680BD00BF0F
:1031900000A4000004ED00E080B58AB000AF7860C4
:1031A000396000237B627B68FB6100233B62FB6923
:1031B000002B04D140F2FD516C4805F073F8FB6917
:1031C0001B6C002B04D040F20161684805F06AF8DE
:1031D00003F0DCFA0346002B02D13B68002B01D13F
:1031E000012300E00023002B04D140F206615F4878
:1031F00005F058F8FEF724FEFB699B6BBB61BB69C9
:10320000002B24D0BB695A1EFB699A63FB691B68BB
:10321000002B04D103F092FD0246FB699A60FB6922
:103220001B69002B0FD0FB691033184602F0C6FE55
:103230000346002B07D04E4B4FF080521A60BFF36D
:103240004F8FBFF36F8FFEF725FE012389E03B68A8
:10325000002B03D1FEF71EFE002382E07B6A002BC9
:1032600006D107F10C03184603F04EF801237B62E8
:10327000FEF710FE02F046FAFEF7E2FDFB6993F856
:1032800044305BB2B3F1FF3F03D1FB69002283F806
:103290004420FB6993F845305BB2B3F1FF3F03D1A3
:1032A000FB69002283F84520FEF7F4FD3A4607F15A
:1032B0000C031146184603F03DF80346002B32D1AB
:1032C000F86900F0A1FB0346002B26D0FB691B68C0
:1032D000002B09D1FEF7B4FDFB699B68184603F08B
:1032E00073FA3862FEF7D6FDFB6924333A6811465B
:1032F000184602F0B5FDF86900F027FB02F010FA5D
:103300000346002B7FF476AF194B4FF080521A60C2
:10331000BFF34F8FBFF36F8F6CE7F86900F015FBB9
:1033200002F0FEF966E7F86900F00FFB02F0F8F929
:10333000F86900F069FB0346002B3FF45BAF3B6A82
:10334000002B0DD0FEF77CFDF86900F057FA78618C
:10335000FB699B687969184603F06CFBFEF79AFDE0
:10336000002318462837BD4680BD00BF00A40000DA
:1033700004ED00E080B58AB000AFF860B9607A6013
:1033800000237B62FB683B623B6A002B04D140F266
:10339000CD615F4804F086FFBB68002B03D13B6A18
:1033A0001B6C002B01D1012300E00023002B04D172
:1033B00040F2D161564804F075FF03F0E7F9034687
:1033C000002B02D17B68002B01D1012300E00023F8
:1033D000002B04D140F2D6614D4804F063FFFEF7A4
:1033E0002FFD3B6A9B6BFB61FB69002B21D03B6A85
:1033F000DB68BB61B968386A00F081FA3B6ABA6978
:10340000DA603B6A5B6A002B0FD03B6A24331846B4
:1034100002F0D4FD0346002B07D03E4B4FF0805204
:103420001A60BFF34F8FBFF36F8FFEF733FD012399
:1034300069E07B68002B03D1FEF72CFD002362E0DE
:103440007B6A002B06D107F11003184602F05CFFDF
:1034500001237B62FEF71EFD02F054F9FEF7F0FC3B
:103460003B6A93F844305BB2B3F1FF3F03D13B6A50
:10347000002283F844203B6A93F845305BB2B3F1F5
:10348000FF3F03D13B6A002283F84520FEF702FD8F
:103490003A1D07F110031146184602F04BFF034690
:1034A000002B23D1386A00F0AFFA0346002B17D067
:1034B0003B6A24337A681146184602F0D1FC386A18
:1034C00000F043FA02F02CF90346002B87D1114B90
:1034D0004FF080521A60BFF34F8FBFF36F8F7EE7BC
:1034E000386A00F032FA02F01BF978E7386A00F027
:1034F0002CFA02F015F9386A00F086FA0346002B20
:103500003FF46DAF002318462837BD4680BD00BF8D
:1035100000A4000004ED00E080B58EB000AFF860BC
:10352000B9607A60FB683B633B6B002B04D140F2CF
:1035300062713C4804F0B6FEBB68002B03D13B6BC4
:103540001B6C002B01D1012300E00023002B04D1D0
:1035500040F26371334804F0A5FEFEF721FDEFF35E
:1035600011824FF0050383F31188BFF36F8FBFF310
:103570004F8FFA61BB61FB69FB623B6B9B6BBB626C
:10358000BB6A002B40D03B6B93F8443087F8273060
:10359000B968386B00F0B3F9BB6A5A1E3B6B9A638B
:1035A00097F92730B3F1FF3F12D13B6B1B69002B1A
:1035B00027D03B6B1033184602F000FD0346002B6A
:1035C0001FD07B68002B1CD07B6801221A6018E09A
:1035D00002F0BEF9386297F927303A6A9A4210D958
:1035E00097F927307F2B04D140F2A6710D4804F0E3
:1035F00059FE97F827300133DBB25AB23B6B83F8A0
:10360000442001237B6301E000237B63FB6A7B6131
:103610007B6983F3118800BF7B6B18463837BD4642
:1036200080BD00BF00A4000080B58AB000AF786004
:1036300039607B683B623B6A002B04D140F2BF716A
:10364000254804F02FFE3B68002B03D13B6A1B6C1E
:10365000002B01D1012300E00023002B04D14FF403
:10366000F8611D4804F01EFE3B6A1B6C002B04D160
:1036700040F2C171184804F015FEFEF791FCEFF31B
:1036800011824FF0050383F31188BFF36F8FBFF3EF
:103690004F8F7A613B617B69FB613B6A9B6B002BBF
:1036A0000CD03B6ADB68BB613968386A00F027F9E7
:1036B0003B6ABA69DA6001237B6201E000237B6226
:1036C000FB69FB60FB6883F3118800BF7B6A1846C7
:1036D0002837BD4680BD00BF00A4000080B584B07F
:1036E00000AF78607B68002B04D140F2F27107488C
:1036F00004F0D8FDFEF7A4FB7B689B6BFB60FEF734
:10370000C9FBFB6818461037BD4680BD00A4000009
:1037100080B584B000AF78607B68FB60FB68002BED
:1037200004D140F60301094804F0BCFDFEF788FB14
:10373000FB68DA6BFB689B6BD31ABB60FEF7AAFBD6
:10374000BB6818461037BD4680BD00BF00A400000E
:1037500080B584B000AF78607B68FB60FB68002BAD
:1037600004D140F61401054804F09CFDFB689B6BF6
:10377000BB60BB6818461037BD4680BD00A4000082
:1037800080B584B000AF78607B68FB60FB68002B7D
:1037900004D140F61F01064804F084FDF86800F0EB
:1037A00015FAF868FEF7B2F800BF1037BD4680BDC5
:1037B00000A4000080B483B000AF78607B68DB6C4D
:1037C00018460C37BD4680BC704780B483B000AF4C
:1037D000786039607B683A68DA6400BF0C37BD46B0
:1037E00080BC704780B483B000AF78607B6893F88A
:1037F000503018460C37BD4680BC704780B485B049
:1038000000AF78607B685B6A002B06D07B681B6B1F
:103810001B68C3F10603FB6001E00023FB60FB684B
:1038200018461437BD4680BC704780B586B000AFDF
:10383000F860B9607A6000237B61FB689B6B3B6139
:10384000FB681B6C002B0DD1FB681B68002B4DD156
:10385000FB689B68184603F055F87861FB68002206
:103860009A6043E07B68002B19D1FB685868FB68BD
:103870001B6C1A46B96805F011FEFB685A68FB68B4
:103880001B6C1A44FB685A60FB685A68FB689B68AB
:103890009A422BD3FB681A68FB685A6026E0FB68E3
:1038A000D868FB681B6C1A46B96805F0F7FDFB6821
:1038B000DA68FB681B6C5B421A44FB68DA60FB68E1
:1038C000DA68FB681B689A4207D2FB689A68FB6853
:1038D0001B6C5B421A44FB68DA607B68022B05D1E3
:1038E0003B69002B02D03B69013B3B613B695A1CA1
:1038F000FB689A637B6918461837BD4680BD80B562
:1039000082B000AF786039607B681B6C002B18D0E8
:103910007B68DA687B681B6C1A447B68DA607B68BA
:10392000DA687B689B689A4203D37B681A687B6875
:10393000DA607B68D9687B681B6C1A46386805F0CA
:10394000ADFD00BF0837BD4680BD80B584B000AF77
:103950007860FEF775FA7B6893F84530FB731EE0DC
:103960007B689B6C002B08D0786800F00FFA034648
:10397000002B10D002F03AFD0DE07B685B6A002B53
:1039800012D07B682433184602F018FB0346002B44
:1039900001D002F02BFDFB7B013BDBB2FB7397F9FF
:1039A0000F30002BDCDC00E000BF7B68FF2283F8D7
:1039B0004520FEF76FFAFEF743FA7B6893F8443030
:1039C000BB7311E07B681B69002B12D07B6810333E
:1039D000184602F0F3FA0346002B01D002F006FD70
:1039E000BB7B013BDBB2BB7397F90E30002BE9DCEC
:1039F00000E000BF7B68FF2283F84420FEF74AFA0C
:103A000000BF1037BD4680BD80B584B000AF786080
:103A1000FEF716FA7B689B6B002B02D10123FB603B
:103A200001E00023FB60FEF735FAFB68184610370B
:103A3000BD4680BD80B584B000AF78607B68BB6058
:103A4000BB68002B04D140F67911084804F02AFC29
:103A5000BB689B6B002B02D10123FB6001E00023BC
:103A6000FB60FB6818461037BD4680BD00A400000F
:103A700080B584B000AF7860FEF7E2F97B689A6B9E
:103A80007B68DB6B9A4202D10123FB6001E00023DB
:103A9000FB60FEF7FFF9FB6818461037BD4680BD96
:103AA00080B584B000AF78607B68BB60BB68002BDA
:103AB00004D140F6A211094804F0F4FBBB689A6BEC
:103AC000BB68DB6B9A4202D10123FB6001E000235B
:103AD000FB60FB6818461037BD4680BD00A400009F
:103AE00080B584B000AF786039600023BB607B682C
:103AF000002B04D140F6D8211B4804F0D3FB3B68CF
:103B0000002B24D00023FB601EE0184AFB68DB007A
:103B100013445B687A689A4205D1FB68DB00134A5C
:103B20001344BB6013E0BB68002B0AD10F4AFB684B
:103B300052F83330002B04D1FB68DB000B4A1344EE
:103B4000BB60FB680133FB60FB68092BDDD9BB68F8
:103B5000002B05D0BB683A681A60BB687A685A6067
:103B600000BF1037BD4680BD00A40000F8DD002076
:103B700080B584B000AF78600023BB607B68002B09
:103B800004D140F606310F4804F08CFB0023FB60A3
:103B900010E00D4AFB68DB0013445B687A689A42C8
:103BA00005D1094AFB6852F83330BB6005E0FB6879
:103BB0000133FB60FB68092BEBD9BB681846103753
:103BC000BD4680BD00A40000F8DD002080B584B0B3
:103BD00000AF78607B68002B04D140F62431124896
:103BE00004F060FB0023FB6016E0104AFB68DB007A
:103BF00013445B687A689A420BD10C4AFB68002137
:103C000042F83310094AFB68DB00134400225A6073
:103C100006E0FB680133FB60FB68092BE5D900BFB8
:103C200000BF1037BD4680BD00A40000F8DD0020B5
:103C300080B586B000AFF860B9607A60FB687B61E0
:103C4000FEF7FEF87B6993F844305BB2B3F1FF3FB7
:103C500003D17B69002283F844207B6993F84530C7
:103C60005BB2B3F1FF3F03D17B69002283F84520AB
:103C7000FEF710F97B699B6B002B06D17B6924331F
:103C80007A68B968184602F057F97869FFF75DFE5F
:103C900000BF1837BD4680BD80B584B000AF7860E6
:103CA000002204217868FEF7E1FDF860FB68184601
:103CB0001037BD4680BD80B584B000AF78603960F4
:103CC000FEF7BEF87B689B6C002B02D00023FB60E4
:103CD0000BE07B689B6B002B02D00023FB6004E0B1
:103CE0007B683A689A640123FB60FEF7D3F8FB68AF
:103CF00018461037BD4680BD80B584B000AF7860EF
:103D000039607B68BB60BB689B6C3A689A4202D0A2
:103D10000023FB600FE0BB689B6B002B02D00023ED
:103D2000FB6008E0FEF78CF8BB6800229A64FEF79F
:103D3000B1F80123FB60FB6818461037BD4680BD13
:103D400080B584B000AF786039600023FB6007F174
:103D50000C033A6819467868FFF74EF9FB68184675
:103D60001037BD4680BD80B584B000AF78600023B9
:103D7000FB6007F10C03002219467868FFF7CCFBC3
:103D8000FB6818461037BD4680BD000080B586B080
:103D900000AF78607B689B6C3B6100237B613B6973
:103DA000002B04D140F6E331274804F07BFA3B694D
:103DB0009A6B3B69DB6B9A4204D340F6E4312248AC
:103DC00004F070FA3B699A6B3B69DB6B9A4236D21E
:103DD0003B6993F84530FB733B1D00221946386957
:103DE000FFF723FD786197F90F30B3F1FF3F0ED154
:103DF0003B695B6A002B22D03B692433184602F0F2
:103E0000DDF80346002B1AD001237B6117E001F097
:103E10009FFDB86097F90F30BA689A420FD997F9A9
:103E20000F307F2B04D140F60441074804F03AFAE2
:103E3000FB7B0133DBB25AB23B6983F845207B69D7
:103E400018461837BD4680BD00A4000080B58AB072
:103E500004AFF860B9607A603B607B68012B0AD1DF
:103E60000123FB74FB68042B0FD84FF4A971214880
:103E700004F018FA09E00023FB74FB68002B04D15E
:103E80004FF4AC711B4804F00DFABA68FB689A4213
:103E900004D940F25B11174804F004FABB68002B08
:103EA00001D10123BB60FB6813F1260F09D8FB6821
:103EB0000133FB60FB6824331846FDF779FC786119
:103EC00001E000237B617B69002B0DD07B6903F14E
:103ED00024013B6A02933B680193FB7C0093BB681F
:103EE000FA68786900F05CFD7B6918461837BD46B2
:103EF00080BD00BF30A4000080B584B000AF786002
:103F00007B68FB60FB68002B04D140F2E1110B4899
:103F100004F0C8F9FB681B7F03F00203002B03D1F8
:103F2000F868FDF7F3FC04E024220021F86805F0AE
:103F3000C3FA00BF1037BD4680BD00BF30A40000EB
:103F400090B58DB004AF78607B68BB610023FB61E6
:103F500000237B6100233B61BB69002B04D14FF43C
:103F60000271174804F09EF9BB691B6AFB60FDF7FC
:103F700067FFBB691B69002B1AD1BB695B69002B0A
:103F800016D1BB699969BB699868BB69DC68BB6974
:103F90001B7F3A6902927A69019200932346024696
:103FA000B86900F0FDFCBB69FA681A620123FB6185
:103FB000FDF770FFFB6918462437BD4690BD00BF72
:103FC00030A4000080B584B000AF786039607B68B1
:103FD000BB60BB68002B04D140F23D210C4804F0CB
:103FE00061F93B68002B01D101233B60BB689B68F2
:103FF0003A689A4205D2BB683A68DA600123FB60EE
:1040000001E00023FB60FB6818461037BD4680BD09
:1040100030A4000080B586B000AF78607B683B615B
:104020003B69002B04D140F25B21144804F03AF9BB
:104030003B691B68FB603B699A683B691B681344DA
:104040007B613B695B687A69D31A7B613B691B685A
:10405000FA689A42ECD17B69013B7B613B699B68C2
:104060007A699A4204D33B699B687A69D31A7B6167
:104070007B6918461837BD4680BD00BF30A40000DC
:1040800080B584B000AF78607B68FB60FB68002B74
:1040900004D140F27B21064804F004F9F86800F0EE
:1040A0005FFCB860BB6818461037BD4680BD00BFD6
:1040B00030A4000080B58EB002AFF860B9607A60BD
:1040C0003B60FB687B620023FB627B68BB62002372
:1040D0003B62BB68002B04D140F28D21504804F0B4
:1040E000E1F87B6A002B04D140F28E214C4804F0A9
:1040F000D9F87B6A9B68013B3B627B6A1B7F03F0BC
:104100000103002B12D0BB6A0433BB62BA6A7B681E
:104110009A4204D840F29D21414804F0C3F8BA6A9B
:104120003B6A9A4208D900233B6005E0BA6A3B6AC1
:104130009A4201D93B6ABB623B68002B3BD007F136
:104140001403184602F0BEF8FDF77AFE786AFFF70E
:1041500061FFF862FA6ABB6A9A4212D2002100201B
:1041600003F028FA7B6A5B69002B04D040F2CD2172
:104170002B4804F097F802F0FBFA02467B6A5A617A
:1041800002E0FDF787FE16E0FDF784FE3B68009332
:10419000002300220021002002F048FE7B6A00225A
:1041A0005A613A4607F114031146184602F0C2F864
:1041B0000346002BC8D0FB6A002B03D1786AFFF7B7
:1041C00029FFF862BB6A0093FB6A7A68B968786A6B
:1041D00000F092F8F861FB69002B1BD0786A00F0C0
:1041E000BFFB02467B6ADB689A4213D301F08AFA6E
:1041F0007B6A1B69002B0BD07B6A18690023009334
:1042000000230022002102F08DFE7B6A00221A6149
:1042100001F086FAFB6918463037BD4680BD00BF05
:1042200030A4000080B58EB002AFF860B9607A604B
:104230003B60FB68BB627B68FB62BB68002B04D100
:1042400040F20E312B4804F02DF8BB6A002B04D14C
:1042500040F20F31274804F025F8BB6A1B7F03F0BA
:104260000103002B02D0FB6A0433FB62B86AFFF73C
:10427000D1FE7862FB6A00937B6A7A68B968B86A93
:1042800000F03AF838623B6A002B2DD0B86A00F093
:1042900067FB0246BB6ADB689A4225D3EFF31182C3
:1042A0004FF0050383F31188BFF36F8FBFF34F8F78
:1042B000BA617B61BB69FB61BB6A1B69002B0DD0D6
:1042C000BB6A18693B680193002300930023002216
:1042D000002102F033FFBB6A00221A61FB693B61D7
:1042E0003B6983F3118800BF3B6A18463037BD46EF
:1042F00080BD00BF30A4000080B586B000AFF8607C
:10430000B9607A603B60FB685B687B61FB681B7F20
:1043100003F00103002B1AD07B683B613B697A688C
:104320009A4204D040F24931144803F0BBFF3A6886
:104330003B6A9A4208D307F110017B690422F868AE
:1043400000F056FA786108E000237B6005E07A68A7
:104350003B68934228BF13467B607B68002B08D0E4
:104360007B697A68B968F86800F042FA0246FB682F
:104370005A607B6818461837BD4680BD30A40000DF
:1043800080B58AB002AFF860B9607A603B60FB68C4
:104390003B610023FB61BB68002B04D140F272310A
:1043A0003A4803F07FFF3B69002B04D140F27331A0
:1043B000364803F077FF3B691B7F03F00103002BB6
:1043C00002D004237B6101E000237B613B68002B6A
:1043D00031D0FDF735FD386900F0C2FAB861BA692D
:1043E0007B699A4211D80021002003F0E3F83B6971
:1043F0001B69002B04D040F29631244803F052FF91
:1044000002F0B6F902463B691A61FDF743FDBA694D
:104410007B699A4213D83B68009300230022002155
:10442000002002F003FD3B6900221A61386900F0A8
:1044300097FAB86103E0386900F092FAB861BA6996
:104440007B699A421DD9BB697A68B968386900F0FE
:10445000BFF8F861FB69002B13D001F053F9FB683A
:104460005B69002B0BD0FB68586900230093002385
:104470000022002102F056FDFB6800225A6101F083
:104480004FF9FB6918462037BD4680BD30A40000B7
:1044900080B586B000AF78607B683B613B69002BDC
:1044A00004D14FF47671164803F0FCFE3B691B7F84
:1044B00003F00103002B1CD0386900F051FAF860BA
:1044C000FB68042B0AD93B691B6807F10801042229
:1044D000386900F0EBF9BB687B610CE0FB68002BEE
:1044E00004D040F2ED31064803F0DCFE00237B618E
:1044F00001E000237B617B6918461837BD4680BD0B
:1045000030A4000080B58EB002AFF860B9607A6068
:104510003B60FB687B620023FB62BB68002B04D11D
:1045200040F20241294803F0BDFE7B6A002B04D112
:1045300040F20341254803F0B5FE7B6A1B7F03F080
:104540000103002B02D00423BB6201E00023BB6205
:10455000786A00F005FA38623A6ABB6A9A422FD943
:104560003B6A7A68B968786A00F032F8F862FB6AE8
:10457000002B25D0EFF311824FF0050383F3118850
:10458000BFF36F8FBFF34F8FBA617B61BB69FB6174
:104590007B6A5B69002B0DD07B6A58693B6801938D
:1045A0000023009300230022002102F0C7FD7B6A54
:1045B00000225A61FB693B613B6983F3118800BFAC
:1045C000FB6A18463037BD4680BD00BF30A40000EE
:1045D00080B588B000AFF860B9607A603B60FB6876
:1045E0001B68BB61FB681B7F03F00103002B13D02A
:1045F00007F11001BB690422F86800F057F9B861AF
:104600003B69FB613B68043B3B60FA697B689A420B
:1046100004D90023FB6101E07B68FB613A68FB6918
:10462000934228BF13467B617B69002B08D0BB698E
:104630007A69B968F86800F039F90246FB681A60CF
:104640007B6918462037BD4680BD000080B586B026
:1046500000AF78607B683B613B69002B04D140F27E
:104660006D410A4803F01EFE3B691B68FB603B6915
:104670005B68FA689A4202D101237B6101E0002362
:104680007B617B6918461837BD4680BD30A40000A9
:1046900080B586B000AF78607B68FB60FB68002B5C
:1046A00004D140F285410F4803F0FCFDFB681B7FFD
:1046B00003F00103002B02D004233B6101E000233F
:1046C0003B617868FFF7A6FC02463B69934202D340
:1046D00001237B6101E000237B617B691846183769
:1046E000BD4680BD30A4000080B58AB002AF7860BE
:1046F00039607B68BB61BB69002B04D140F2A941E2
:10470000194803F0CFFDEFF311824FF0050383F357
:104710001188BFF36F8FBFF34F8F3A61FB603B6926
:104720007B61BB691B69002B10D0BB6918693B68B2
:1047300001930023009300230022002102F0FEFCDD
:10474000BB6900221A610123FB6101E00023FB61C8
:104750007B69BB60BB6883F3118800BFFB691846A7
:104760002037BD4680BD00BF30A4000080B58AB0B0
:1047700002AF786039607B68BB61BB69002B04D1F4
:104780004FF49961194803F08DFDEFF311824FF05A
:10479000050383F31188BFF36F8FBFF34F8F3A6127
:1047A000FB603B697B61BB695B69002B10D0BB6917
:1047B00058693B68019300230093002300220021E5
:1047C00002F0BCFCBB6900225A610123FB6101E0DD
:1047D0000023FB617B69BB60BB6883F3118800BF6A
:1047E000FB6918462037BD4680BD00BF30A40000DD
:1047F00080B586B000AFF860B9607A603B607B68D6
:10480000002B04D140F2E741274803F04BFDFB6841
:104810009A683B68D31A7A68934228BF13467B6133
:104820003A687B691A44FB689B689A4204D940F253
:10483000EF411D4803F036FDFB689A693B6813445D
:104840007A69B968184604F029FE7A687B699A4249
:1048500016D97A687B69D21AFB689B689A4204D998
:1048600040F2F741104803F01DFDFB689869BA68F3
:104870007B69D1187A687B69D31A1A4604F00EFE58
:104880003A687B6813443B60FB689B683A689A42CD
:1048900004D3FB689B683A68D31A3B603B681846B0
:1048A0001837BD4680BD00BF30A4000080B586B07B
:1048B00000AFF860B9607A603B607B68002B04D180
:1048C00040F21551254803F0EDFCFB689A683B68FF
:1048D000D31A7A68934228BF13467B617A697B6852
:1048E0009A4204D940F21E511C4803F0DBFC3A689E
:1048F0007B691A44FB689B689A4204D940F21F51B5
:10490000164803F0CFFCFB689A693B6813447A6948
:104910001946B86804F0C2FD7A687B699A420AD9E0
:10492000BA687B69D018FB6899697A687B69D31A81
:104930001A4604F0B3FD3A687B6813443B60FB6899
:104940009B683A689A4204D3FB689B683A68D31A1A
:104950003B603B6818461837BD4680BD30A4000058
:1049600080B485B000AF78607B689A687B685B68CC
:104970001344FB607B681B68FA68D31AFB607B6892
:104980009B68FA689A4204D37B689B68FA68D31ADA
:10499000FB60FB6818461437BD4680BC70470000BA
:1049A00080B586B000AFF860B9607A603B6055238F
:1049B0007B617A687969B86804F07EFD0246BB685D
:1049C000934204D04FF4AC610C4803F06BFC2422FA
:1049D0000021F86804F070FDFB68BA689A61FB6812
:1049E0007A689A60FB683A68DA60FB6897F820207A
:1049F0001A7700BF1837BD4680BD00BF30A4000045
:104A000080B483B000AF78607B681B6A18460C37AF
:104A1000BD4680BC704780B483B000AF7860396019
:104A20007B683A681A6200BF0C37BD4680BC70478D
:104A300080B483B000AF78607B681B7F03F0010314
:104A4000DBB218460C37BD4680BC704780B58CB0D1
:104A500004AFF860B9603B601346FB80FB889B00A5
:104A60001846FCF7A5FE78617B69002B13D058200F
:104A7000FCF79EFEF861FB69002B08D0582200214C
:104A8000F86904F019FDFB697A691A6305E0786931
:104A9000FCF73CFF01E00023FB61FB69002B13D016
:104AA000FA8800230393FB690293FB6A0193BB6AB4
:104AB00000933B68B968F86800F00EF8F86900F0F8
:104AC00091F80123BB6102E04FF0FF33BB61BB698A
:104AD00018462037BD4680BD80B586B000AFF8606F
:104AE000B9607A603B60BB6A186B7B689B001A46B2
:104AF000A52104F0E1FCBB6A1A6B7B6803F18043DB
:104B0000013B9B0013443B613B6923F007033B617E
:104B10003B6903F00703002B04D040F25D313048BD
:104B200003F0C0FBBB68002B20D000237B6114E0A6
:104B3000BA687B69134493F90010BA6A7B6913441D
:104B400034330A461A70BA687B69134493F900300B
:104B5000002B06D07B6901337B617B690B2BE7D986
:104B600000E000BFBB6A002283F83F203B6A052BB0
:104B700004D940F292311A4803F094FB3B6A052BAA
:104B800001D905233B62BB6A3A6ADA62BB6A3A6AB8
:104B90009A64BB6A04331846FDF751FDBB6A1833AB
:104BA0001846FDF74CFDBB6ABA6A1A613B6AC3F14D
:104BB0000602BB6A9A61BB6ABA6A5A623A68F968C5
:104BC0003869FDF751F80246BB6A1A607B6A002B10
:104BD00002D07B6ABA6A1A6000BF1837BD4680BD32
:104BE00068A4000080B584B000AF7860FDF728F9B4
:104BF000404B1B6801333F4A13603F4B1B68002B3F
:104C000009D13D4A7B6813603A4B1B68012B10D1D8
:104C100001F026FC0DE0394B1B68002B09D1364B07
:104C20001B68DA6A7B68DB6A9A4202D8324A7B6880
:104C30001360334B1B680133314A1360304B1A68E1
:104C40007B681A647B68DB6A01229A402D4B1B68E3
:104C500013432C4A13607B68DA6A2B4913469B0086
:104C600013449B000B4404331B68FB607B68FA68A9
:104C70009A60FB689A687B68DA60FB689B687A6870
:104C800004325A607B681A1DFB689A607B68DA6A96
:104C900013469B0013449B001B4A1A447B685A61CD
:104CA0007B68DA6A184913469B0013449B000B4447
:104CB0001B68591C144813469B0013449B00034473
:104CC0001960FDF7E7F80D4B1B68002B0ED00A4B5F
:104CD0001B68DA6A7B68DB6A9A4207D20B4B4FF09B
:104CE00080521A60BFF34F8FBFF36F8F00BF103732
:104CF000BD4680BD34DF002048DE002040DF0020BC
:104D000050DF00203CDF00204CDE002004ED00E0FE
:104D100080B584B000AF7860FDF792F87B68002B17
:104D200002D1384B1B6800E07B68FB60FB680433F2
:104D30001846FDF7EBFC0346002B15D1FB68DA6A39
:104D4000314913469B0013449B000B441B68002B06
:104D50000AD1FB68DB6A012202FA03F3DA432B4B28
:104D60001B681340294A1360FB689B6A002B04D020
:104D7000FB6818331846FDF7C9FC254B1B68013347
:104D8000234A13601F4B1B68FA689A420BD1FB68D9
:104D9000043319461F48FDF75EFC1F4B1B680133A7
:104DA0001D4A136006E01D4B1B68013B1B4A136044
:104DB00001F0C4FCFDF76EF8124B1B68FA689A42CA
:104DC00002D0F86801F0AAFC154B1B68002B15D027
:104DD0000C4B1B68FA689A4210D1124B1B68002BCF
:104DE00004D040F2AF41104803F05CFA0F4B4FF093
:104DF00080521A60BFF34F8FBFF36F8F00BF103721
:104E0000BD4680BD48DE00204CDE00203CDF002097
:104E100050DF002008DF00201CDF002034DF0020EE
:104E200040DF00205CDF002068A4000004ED00E00B
:104E300080B586B000AF7860396000237B617B6805
:104E4000002B04D140F2C4412C4803F02BFA3B68FC
:104E5000002B04D140F2C541284803F023FA284B27
:104E60001B68002B04D040F2C641244803F01AFA14
:104E700000F048FC234B1B683B617B681B683A6869
:104E80001344FB607B681B683A699A420BD27B68CB
:104E90001B68FA689A4211D2FA683B699A420DD9A6
:104EA00001237B610AE07B681B68FA689A4203D39E
:104EB000FA683B699A4201D901237B617B68FA68F1
:104EC0001A607B69002B06D0FA683B69D31A00216F
:104ED000184602F0D3FB00F023FCB860BB68002B3F
:104EE00007D1094B4FF080521A60BFF34F8FBFF3C9
:104EF0006F8F7B6918461837BD4680BD68A40000D7
:104F00005CDF002038DF002004ED00E080B584B0D5
:104F100000AF78600023FB607B68002B11D0104B42
:104F20001B68002B04D040F21C510E4803F0BAF964
:104F300000F0E8FB0021786802F0A0FB00F0F0FB35
:104F4000F860FB68002B07D1074B4FF080521A60C6
:104F5000BFF34F8FBFF36F8F00BF1037BD4680BDCB
:104F60005CDF002068A4000004ED00E080B588B09C
:104F700000AF78607B687B617B69002B04D140F2D5
:104F80004A512B4803F08EF92A4B1B687A699A42E2
:104F900002D10023FB7745E0FCF752FF7B695B6998
:104FA0003B61254B1B68FB60244B1B68BB60FCF717
:104FB00071FF3A69FB689A4203D03A69BB689A422A
:104FC00002D10223FB772DE03B691D4A93421DD19C
:104FD0007B699B6A002B16D10323FB770023BB61FF
:104FE0000DE07A69BB69134454331B78DBB2012BA3
:104FF00002D10223FB7715E0BB690133BB61BB69BA
:10500000002BEEDD0EE00223FB770BE03B690D4A3F
:10501000934202D03B69002B02D10423FB7701E0CD
:105020000123FB77FB7F18462037BD4680BD00BFBC
:1050300068A4000048DE0020ECDE0020F0DE002046
:1050400020DF002008DF002080B584B000AF78604A
:10505000FCF7F6FE7B68002B02D1074B1B6800E0D3
:105060007B68FB60FB68DB6ABB60FCF713FFBB6817
:1050700018461037BD4680BD48DE002080B588B098
:1050800000AF7860FCF78CFFEFF311824FF005035F
:1050900083F31188BFF36F8FBFF34F8F3A61FB60CB
:1050A0003B69FB617B68002B02D1094B1B6800E068
:1050B0007B68BB61BB69DB6A7B61FB69BB60BB680A
:1050C00083F3118800BF7B6918462037BD4680BD39
:1050D00048DE002080B588B000AF786039600023DA
:1050E000FB613B68052B04D940F2EA515B4803F0B1
:1050F000D9F83B68052B01D905233B60FCF7A0FEDE
:105100007B68002B02D1564B1B6800E07B68BB61BB
:10511000BB699B6C7B617A693B689A4200F098801E
:105120003A687B699A420DD94D4B1B68BA699A421D
:105130000FD04B4B1B68DB6A3A689A4209D30123B4
:10514000FB6106E0464B1B68BA699A4201D1012314
:10515000FB61BB69DB6A3B61BB699A6CBB69DB6A5B
:105160009A4202D1BB693A68DA62BB693A689A64CA
:10517000BB699B69002B04DB3B68C3F10602BB697A
:105180009A61BB6959693A6913469B0013449B00B5
:10519000344A1344994250D1BB6904331846FDF791
:1051A000B5FA0346002B09D101223B6902FA03F349
:1051B000DA432D4B1B6813402B4A1360BB69DB6A33
:1051C00001229A40284B1B681343274A1360BB698E
:1051D000DA6A244913469B0013449B000B440433B2
:1051E0001B68FB60BB69FA689A60FB689A68BB69D8
:1051F000DA60FB689B68BA6904325A60BB691A1DA1
:10520000FB689A60BB69DA6A13469B0013449B00F3
:10521000144A1A44BB695A61BB69DA6A11491346D8
:105220009B0013449B000B441B68591C0D481346FC
:105230009B0013449B0003441960FB69002B07D0BB
:105240000A4B4FF080521A60BFF34F8FBFF36F8F3E
:10525000FCF720FE00BF2037BD4680BD68A40000DB
:1052600048DE00204CDE00203CDF002004ED00E0A2
:1052700080B584B000AF7860FCF7E2FD7B68002B5E
:1052800002D1404B1B6800E07B68BB60BB68043305
:105290001846FDF73BFA0346002B15D1BB68DA6AC6
:1052A000394913469B0013449B000B441B68002B99
:1052B0000AD1BB68DB6A012202FA03F3DA43334BFB
:1052C0001B681340314A1360BB689B6A002B04D0F3
:1052D000BB6818331846FDF719FABB680433194642
:1052E0002B48FDF7B8F90023FB6010E0BA68FB68B3
:1052F000134454331B78DBB2012B05D1BA68FB6829
:105300001344543300221A70FB680133FB60FB68BE
:10531000002BEBDDFCF7BEFD1E4B1B68002B05D000
:10532000FCF78EFD01F00AFAFCF7B4FD154B1B6883
:10533000BA689A4221D1174B1B68002B11D0164B2B
:105340001B68002B04D040F2D261144802F0AAFF7F
:10535000134B4FF080521A60BFF34F8FBFF36F8F24
:105360000BE00B4B1A680F4B1B689A4203D1054B9D
:1053700000221A6001E000F0F7FC00BF1037BD46C4
:1053800080BD00BF48DE00204CDE00203CDF002056
:1053900020DF002040DF00205CDF002068A4000048
:1053A00004ED00E034DF002080B584B000AF786009
:1053B0000023FB607B68BB607B68002B04D140F25C
:1053C000FC610C4802F06EFFBB685B690A4A9342BD
:1053D0000AD1BB689B6A094A934205D0BB689B6AA5
:1053E000002B01D10123FB60FB6818461037BD4636
:1053F00080BD00BF68A4000020DF0020F4DE002094
:1054000080B584B000AF78607B68FB607B68002B60
:1054100004D140F22671364802F044FF354B1B6838
:10542000FA689A425FD0FB68002B5CD0FCF708FD5D
:10543000F868FFF7B9FF0346002B52D0FB6804332E
:105440001846FDF763F9FB68DB6A01229A402A4B94
:105450001B681343284A1360FB68DA6A274913461E
:105460009B0013449B000B4404331B68BB60FB6828
:10547000BA689A60BB689A68FB68DA60BB689B6828
:10548000FA6804325A60FB681A1DBB689A60FB68B0
:10549000DA6A13469B0013449B00184A1A44FB68BF
:1054A0005A61FB68DA6A154913469B0013449B0056
:1054B0000B441B68591C114813469B0013449B0066
:1054C00003441960FB68DA6A0A4B1B68DB6A9A427C
:1054D00007D30B4B4FF080521A60BFF34F8FBFF3CF
:1054E0006F8FFCF7D7FC00BF1037BD4680BD00BFF3
:1054F00068A4000048DE00203CDF00204CDE0020D5
:1055000004ED00E080B58AB000AF786000237B62D4
:105510007B683B627B68002B04D140F25D713F48A1
:1055200002F0C0FEFCF73CFDEFF311824FF00503E3
:1055300083F31188BFF36F8FBFF34F8F7A613B61A5
:105540007B69FB61386AFFF72FFF0346002B5AD0B7
:10555000334B1B68002B50D13B6ADA6A314B1B6816
:10556000DB6A9A4204D301237B622F4B01221A602B
:105570003B6A04331846FDF7C9F83B6ADB6A01222F
:105580009A402A4B1B681343284A13603B6ADA6A25
:10559000274913469B0013449B000B4404331B68AC
:1055A000BB613B6ABA699A60BB699A683B6ADA6018
:1055B000BB699B683A6A04325A603B6A1A1DBB6930
:1055C0009A603B6ADA6A13469B0013449B00184AB0
:1055D0001A443B6A5A613B6ADA6A154913469B00D2
:1055E00013449B000B441B68591C114813469B0035
:1055F00013449B000344196005E03B6A18331946C5
:105600000C48FDF728F8FB69FB60FB6883F3118801
:1056100000BF7B6A18462837BD4680BD68A40000DD
:105620005CDF002048DE002048DF00203CDF002057
:105630004CDE0020F4DE002080B584B002AF1D4BAC
:1056400001930023009300235A221B491B48FFF7B4
:10565000FDF978607B68012B02D102F0A1F8786037
:105660007B68012B16D14FF0050383F31188BFF33C
:105670006F8FBFF34F8F3B6000BF114B4FF0FF3276
:105680001A60104B01221A600F4B00221A60FCF7BF
:1056900065FB08E07B68B3F1FF3F04D140F61201DF
:1056A0000A4802F0FFFD0A4B1B6800BF0837BD46E1
:1056B00080BD00BF58DF002098A4000053640000A4
:1056C00054DF002040DF002038DF002068A4000005
:1056D0000801002080B582B000AF4FF0050383F3CE
:1056E0001188BFF36F8FBFF34F8F7B6000BF044BF8
:1056F00000221A60FCF792FB00BF0837BD4680BD50
:1057000040DF002080B400AF044B1B680133034A24
:10571000136000BFBD4680BC704700BF5CDF002047
:1057200080B586B000AF00237B6100233B616E4BE8
:105730001B68002B04D140F685016C4802F0B2FDD5
:10574000FCF77EFB684B1B68013B674A1360664BA6
:105750001B68002B40F0C080654B1B68002B00F0DD
:10576000BB808AE0634BDB68DB687B617B699B6A9B
:10577000BB607B69DB697A69126A9A607B691B6A24
:105780007A69D2695A60BB685A687B6918339A4251
:1057900003D17B691A6ABB685A607B6900229A62EE
:1057A000BB681B685A1EBB681A607B695B697B60BB
:1057B0007B699B687A69D2689A607B69DB687A69E1
:1057C00092685A607B685A687B6904339A4203D1B5
:1057D0007B69DA687B685A607B6900225A617B6862
:1057E0001B685A1E7B681A607B69DB6A01229A403B
:1057F000414B1B681343404A13607B69DA6A3F4997
:1058000013469B0013449B000B4404331B683B600E
:105810007B693A689A603B689A687B69DA603B68A2
:105820009B687A6904325A607B691A1D3B689A60EA
:105830007B69DA6A13469B0013449B002F4A1A4483
:105840007B695A617B69DA6A2C4913469B001344D1
:105850009B000B441B68591C284813469B001344AB
:105860009B00034419607B69DA6A254B1B68DB6A7D
:105870009A4202D3234B01221A601E4B1B68002B55
:105880007FF470AF7B69002B01D000F057FF1E4BF7
:105890001B68FB60FB68002B10D000F04BF903463F
:1058A000002B02D0174B01221A60FB68013BFB6002
:1058B000FB68002BF1D1144B00221A60114B1B68BE
:1058C000002B09D001233B61104B4FF080521A602E
:1058D000BFF34F8FBFF36F8FFCF7DCFA3B691846BD
:1058E0001837BD4680BD00BF5CDF002068A4000003
:1058F00034DF0020F4DE00203CDF00204CDE0020FE
:1059000048DE002048DF002044DF002004ED00E0F6
:1059100080B483B000AF044B1B687B607B68184683
:105920000C37BD4680BC704738DF002080B582B0A0
:1059300000AFFCF735FB00237B60044B1B683B602A
:105940003B6818460837BD4680BD00BF38DF0020E1
:1059500080B400AF024B1B681846BD4680BC704740
:1059600034DF002080B584B000AF78607B68002B06
:1059700002D1094B1B6800E07B68FB60FB68002BD1
:1059800004D140F62B11054802F08CFCFB6834333F
:1059900018461037BD4680BD48DE002068A40000D0
:1059A00080B586B000AFF860B9607A6000237B6193
:1059B00006233B61FFF7A6FE3A4B1B68BA689A4282
:1059C00068D33B69013B3B617A691346DB001344B2
:1059D0009B001A46FB6898183A6913469B001344CB
:1059E0009B00314A13440122194600F00DFE024685
:1059F0007B6913447B613B69002BE2D17A691346D2
:105A0000DB0013449B001A46FB681344274A1168C5
:105A10000222184600F0F8FD02467B6913447B61C0
:105A20007A691346DB0013449B001A46FB68134453
:105A30001F4A11680222184600F0E6FD02467B6903
:105A400013447B617A691346DB0013449B001A46BA
:105A5000FB68134404221749184600F0D5FD02469E
:105A60007B6913447B617A691346DB0013449B0016
:105A70001A46FB68134403220F49184600F0C4FD80
:105A800002467B6913447B617B68002B02D07B68F4
:105A900000221A60FFF744FE7B6918461837BD469E
:105AA00080BD00BF34DF00204CDE0020ECDE002093
:105AB000F0DE002008DF002020DF002080B500AFEE
:105AC000064B1B68002B04D140F60821044802F065
:105AD000E9FB024B1B68184680BD00BF58DF002061
