:1000000010E40020F19A0000DD9A0000C99A000077
:10001000B59A0000B59A0000B59A000000000000F3
:10002000000000000000000000000000613200003D
:10003000B59A00000000000031340000793400005F
:10004000B59A0000B59A0000B59A0000B59A000074
:10005000B59A0000B59A0000B59A0000B59A000064
:10006000B59A0000B59A0000B59A0000B59A000054
:10007000B59A0000B59A0000B59A0000B59A000044
:10008000B59A0000B59A0000B59A0000B59A000034
:10009000B59A0000B59A0000B59A0000B59A000024
:1000A000B59A0000B59A0000B59A0000B59A000014
:1000B000B59A0000B59A0000B59A0000B59A000004
:1000C000B59A0000B59A0000B59A0000B59A0000F4
:1000D000B59A0000B59A0000B59A0000B59A0000E4
:1000E000B59A000000000000B59A0000B59A000023
:1000F00080B584B002AF00237B6014E07B68274AA0
:1001000098187A68264BA3FB0213D21A520813449C
:100110001B09DA00012300930F23002100F088FF60
:100120007B6815337B607B68A82BE7D91D4B19686A
:100130001B4BA3FB0123CA1A520813441A09134686
:100140005B001344DA00D21A8A1A13465B00134488
:100150005B001846134B1A68114BA3FB0213D21A0B
:10016000520813441B095A1C1346DB00991A0D4B05
:100170001A680B4BA3FB02C3D21A520813441B0983
:100180001944094B1B780122019200930123052297
:1001900001F050F900BF0837BD4680BD0C010020BA
:1001A000876118864C040020B501002080B500AF9F
:1001B000064B1B7803F07F00044B5B7803F03F0194
:1001C00001230F2201F0D2F800BF80BD50040020AF
:1001D00090B585B002AF012300930F2300220021C8
:1001E0003B4800F025FF3B4B1B78052B4CD801A268
:1001F00052F823F00D0200001F020000310200003F
:100200004302000055020000670200000123009332
:100210000F230F220021304800F00AFF34E00123B1
:1002200000930F230F2200212C4800F001FF2BE048
:10023000012300930F230F220021294800F0F8FE2C
:1002400022E0012300930F230F220021254800F014
:10025000EFFE19E0012300930F230F220021224813
:1002600000F0E6FE10E0012300930F230F2200218F
:100270001E4800F0DDFE012300930F23172200210A
:100280001B4800F0D5FE00BF1A4B1B681A4AA2FBA0
:1002900003235C09174B1968174BA3FB01235A0969
:1002A00013461B019B1A9B00CA1A38461346224666
:1002B00012490BF07BFA3846012300930A233822B7
:1002C000002100F0B5FE00BF0C37BD4690BD00BF59
:1002D00038F303005204002044F3030050F30300FA
:1002E00058F3030060F303006CF303007CF3030096
:1002F00090F30300540400208988888898F3030051
:1003000080B588B002AF012300930F2300220021A3
:10031000424800F08DFE012300930F230822412163
:100320003F4800F085FE012300930F231C2241214A
:100330003C4800F07DFE012300930F233022412131
:10034000394800F075FE012300930F2320220A2173
:10035000364800F06DFE364B1A6807F11403354934
:1003600018460BF023FA07F11400012300930F2322
:100370001022412100F05CFE2F4B1A6807F1140394
:100380002C4918460BF012FA07F1140001230093D0
:100390000F232422412100F04BFE284B1A6807F15D
:1003A0001403244918460BF001FA07F11400012345
:1003B00000930F233822412100F03AFE204B1A68A7
:1003C00013465B0013445B0003F10A001D4B1B78CE
:1003D00001220192009301230522272101F02AF82E
:1003E000194B1B68391D0022184604F0A9FA034670
:1003F000012B0FD17A6807F10803144918460BF056
:10040000D5F907F10800012300930F230C220021E6
:1004100000F00EFE00BF1837BD4680BD58F3030044
:10042000A4F30300B0F30300BCF303000C010020AD
:100430005C040020C8F30300600400206404002072
:100440004C040020B501002058040020CCF3030028
:1004500080B586B002AF294BD3F80032FB6013E0C1
:10046000264AFB6812F8133003F07F00234AFB682A
:100470005B0013445B7803F03F010123082200F086
:1004800075FFFB68013BFB60FB68002BE8D11B4B51
:100490001B7803F07F00194B5B7803F03F010123C9
:1004A0000B2200F063FF154B93F805321846134BEF
:1004B00093F80632194601230F2200F057FF01235B
:1004C00001930123009328235A220C21132000F0CA
:1004D000B1FF0A4BD3F800223B46094918460BF0FE
:1004E00065F93846012300930F230022002100F014
:1004F0009FFD00BF1037BD4680BD00BFB801002082
:10050000D4F3030080B588B004AF5B4B1B685A0876
:1005100013469B0013445B01584A98180323029327
:10052000012301931023009314230022222100F0C1
:1005300063FE534B1B684FF6FF71184604F012F927
:100540000346012B16D14C4B1B6801334A4A1360FA
:10055000494B1B684B4A1268B3FBF2F101FB02F2F4
:100560009B1A454A1360464B18680023002200215D
:1005700003F0D0FD404B1B68434AA2FB0323990ABA
:100580003D4B1A68404BA3FB02039B0A4FF4E1600A
:1005900000FB03F3D31A3D4AA2FB03231B0907F117
:1005A00008000A463A490BF001F907F10800012357
:1005B00000930F230022002100F03AFD314B1B680D
:1005C000314AA2FB0323990A2E4B1A682E4BA3FB38
:1005D00002039B0A4FF4E16000FB03F3D31A2B4A9A
:1005E000A2FB03231B0938460A4629490BF0DEF813
:1005F0003846012300930F2300225F2100F018FDED
:100600001D4B1B68642203FB02F21E4B1B68B2FBEE
:10061000F3F2012301930F230093042336210E20CC
:1006200000F008FF144B1B68642203FB02F2154B19
:100630001B68B2FBF3F303F10E000F4B1B6840F293
:10064000DC5203FB02F20F4B1B68B2FBF3F10F4BC2
:10065000A3FB0123DA0813461B019B1ACA1AD3B263
:1006600001220192009304230122362100F0E2FED0
:1006700000BF1037BD4680BD68040020F8C20000EE
:100680006C04002000010020C5B3A29189888888ED
:1006900098F3030080B584B002AF012300930F23C9
:1006A00000220021454800F0C3FC454B1B78002B7D
:1006B00008D1012300930F2308220021414800F0B4
:1006C000B7FC18E03E4B1B78012B08D101230093A7
:1006D0000F23082200213C4800F0AAFC0BE0384B15
:1006E0001B78022B07D1012300930F23082200213E
:1006F000364800F09DFC012300930F2308220C21B3
:10070000334800F095FC2E4B1B78032B11D0314B56
:100710001A6813465B0013445B0003F10C002E4B78
:100720001B78012201920093012305220F2100F082
:1007300081FE0123019307230093012364222321D7
:100740000E2000F077FE012301930723009332234C
:1007500001220A21402000F06DFE194B1B78032B6B
:1007600027D10023FB7120E097F907300E3318469C
:1007700097F90730194A92F900201344184A92F960
:100780000020520093FBF2F101FB02F29B1A154A82
:10079000D3562333194601230F2200F0E7FD97F9C2
:1007A0000730DBB20133DBB2FB7197F90730632B03
:1007B000DADD00BF0837BD4680BD00BFE0F30300AF
:1007C00071040020F0F30300F4F30300F8F30300D6
:1007D0000C0100204C040020B50100207004002012
:1007E0009E0400207404002080B584B000AF7860BF
:1007F0000523BB8106F07EFB03467B810123FB734F
:10080000BA8907F10A031146184605F0FBFD184B9B
:100810001B684FF6FF71184603F0A4FF0346012B37
:10082000EED1FB7B002B0DD0124B1B780C2B02D191
:100830000023FB7313E00F4B1B780133DAB20D4B2F
:100840001A700CE00B4B1B78002B02D10123FB73B9
:1008500005E0084B1B78013BDAB2064B1A70044BDB
:10086000186800230022002103F054FCC8E700BFF1
:1008700044040020B501002080B582B002AF064BD1
:1008800001930223009300233C220449044805F00D
:10089000C5FB00BFBD4680BD3C040020FCF3030047
:1008A000E907000080B500AF034B1B68184605F050
:1008B00019FD00BF80BD00BF3C04002080B584B09E
:1008C00000AF78606423FB8106F014FB0346BB8114
:1008D000FA8907F10C031146184605F093FD104BF9
:1008E0001B78002B16D10F4B1B684FF6FF71184673
:1008F00003F038FF0346012BEAD10B4B1B68013391
:10090000094A1360074B186800230022002103F0F6
:1009100001FCDDE7044B1B680133034A1360D7E792
:10092000480400204404002054040020000000007B
:10093000B0B582B000AFC7E90001D7E90023D7E91D
:1009400000010AF037FC02460B4610461946D7E96B
:1009500000230AF02FFC02460B46104619464FF0C2
:1009600000026D4B0AF050FD02460B46D7E900012C
:100970000AF068FA02460B4614461D46D7E90023E2
:10098000D7E900010AF016FC02460B46104619464C
:10099000D7E900230AF00EFC02460B461046194622
:1009A000D7E900230AF006FC02460B46104619461A
:1009B000D7E900230AF0FEFB02460B461046194613
:1009C0004FF00002554B0AF01FFD02460B46204631
:1009D00029460AF039FA02460B4614461D46D7E965
:1009E0000023D7E900010AF0E5FB02460B4610465A
:1009F0001946D7E900230AF0DDFB02460B461046F4
:100A00001946D7E900230AF0D5FB02460B461046EB
:100A10001946D7E900230AF0CDFB02460B461046E3
:100A20001946D7E900230AF0C5FB02460B461046DB
:100A30001946D7E900230AF0BDFB02460B461046D3
:100A4000194631A3D3E900230AF0DEFC02460B4627
:100A5000204629460AF0F6F902460B4614461D4682
:100A6000D7E90023D7E900010AF0A4FB02460B46B0
:100A700010461946D7E900230AF09CFB02460B46B4
:100A800010461946D7E900230AF094FB02460B46AC
:100A900010461946D7E900230AF08CFB02460B46A4
:100AA00010461946D7E900230AF084FB02460B469C
:100AB00010461946D7E900230AF07CFB02460B4694
:100AC00010461946D7E900230AF074FB02460B468C
:100AD00010461946D7E900230AF06CFB02460B4684
:100AE000104619460AA3D3E900230AF08DFC0246FA
:100AF0000B46204629460AF0A7F902460B46104647
:100B000019460837BD46B0BD0000000000B0B34034
:100B100000000000002616410000184000005E4062
:100B20002DE9B04F92B000AF78600623A7F84230AD
:100B3000994B1B6807F110014FF6FF72184603F03E
:100B400041FD0346012B02D1944B01221A70924BB6
:100B50001B6807F10C014FF6FF72184603F032FDD7
:100B60000346012B02D18D4B02221A708A4B1B685F
:100B700007F108014FF6FF72184603F023FD034604
:100B8000012B02D1854B03221A703B6918460AF0EB
:100B9000A7FA02460B46C7E90E23FB6818460AF07F
:100BA0009FFA02460B46C7E90C23BB6818460AF0B9
:100BB00097FA02460B46C7E90A2300237B64BC6B05
:100BC000FB6B23F0004522462B464FF00000744992
:100BD0000AF01AFC02460B46104619460AF084FD3C
:100BE00003465AB26F4B1A70A9E0786C0AF078FA93
:100BF00004460D466B4B93F9003018460AF070FA24
:100C000002460B46204629460AF0FEFB02460B46EA
:100C1000104619465EA3D3E900230AF0CBFA024638
:100C20000B46C7E90823D7E90801FFF781FED7E99A
:100C30000C230AF0BFFA02460B46104619464FF045
:100C40000002594B0AF0B6FA02460B46C7E90623E2
:100C50004FF000024FF00003D7E906010AF03AFD19
:100C60000346002B35D0D7E906010AF03DFD0346C7
:100C70005BB218460AF034FA02460B46D7E9060181
:100C80000AF0E0F802460B46904623F000494FF088
:100C90000002464B404649460AF012FD0346002B2F
:100CA00008D0D7E906010AF01FFD03465BB2DB431B
:100CB0005BB209E0D7E906010AF016FD03465BB214
:100CC000DBB25B42DBB25BB239497A6C0A44137027
:100CD00032E0D7E906010AF007FD03465BB2184689
:100CE0000AF0FEF902460B46D7E906010AF0AAF817
:100CF00002460B46924623F0004B4FF000022B4B6E
:100D0000504659460AF0DCFC0346002B0AD0D7E9CE
:100D100006010AF0E9FC03465BB2DBB2013BDBB241
:100D20005BB205E0D7E906010AF0DEFC03465BB2E0
:100D30001F497A6C0A4413707B6C01337B64194B36
:100D400093F900301A467B6C9342FFF64EAF0023B6
:100D50007B6413E0164A7B6C134493F90030DBB2DA
:100D60005B42DAB20F4B93F9003019467B6C0B44AF
:100D700051B20F4AD1547B6C01337B64094B93F918
:100D800000301A467B6C9342E4DB00237B6438E03E
:100D90006E861BF0F9210940A00400207104002098
:100DA000000035409E040020000014400000E03F99
:100DB00074040020324A7B6C134493F900301846C7
:100DC0000AF08EF904460D464FF000022D4BD7E98C
:100DD0000A010AF0EFF902460B46204629460AF0BE
:100DE00031F802460B46104619460AF07DFC0346D0
:100DF00059B2234A7B6C13440A461A707B6C013348
:100E00007B64214B93F900305B007A6C9A42D1DB12
:100E100006F070F80346FB82B7F8422007F116038C
:100E20001146184605F0EEFA184B1B684FF6FF7195
:100E3000184603F097FC0346012BEDD1144B93F9B0
:100E40000030DBB20133DBB25AB2114B1A70104BD7
:100E500093F900301A460C4B93F900305B0092FB7B
:100E6000F3F101FB03F3D31A5AB2094B1A70074B83
:100E7000186800230022002103F04CF9CCE700BFE2
:100E800074040020000014409E040020440400204C
:100E90007004002080B582B002AF0D4B00221A70A2
:100EA0000C4B00221A7000220421032002F0C0FF24
:100EB0000346094A1360094B019302230093002360
:100EC00064220749074805F0A9F800BFBD4680BD68
:100ED0007004002071040020A004002040040020C1
:100EE00008F40300210B000080B500AF054B1B6820
:100EF000184603F02BFF044B1B68184605F0F2F967
:100F000000BF80BDA00400204004002080B584B054
:100F100000AF78603960124B1B78DBB2002B1AD01F
:100F2000002280210F4808F0D5FF10E07B685A1C92
:100F30007A601B7819460C4809F0CCF907F10C03CC
:100F40001946094809F0D6F93B68013B3B603B680C
:100F5000002BEBD100E000BF1037BD4680BD00BFC5
:100F6000A4140020006000400080004080B584B0E0
:100F700000AF78603960124B1B78DBB2002B1AD0BF
:100F8000802280210F4808F0A5FF10E07B685A1CE2
:100F90007A601B7819460C4809F09CF907F10C039C
:100FA0001946094809F0A6F93B68013B3B603B68DC
:100FB000002BEBD100E000BF1037BD4680BD00BF65
:100FC000A4140020006000400080004080B582B082
:100FD00000AF03211248FFF799FF03211148FFF7E3
:100FE00095FF02211048FFF791FF00233B600FE0BF
:100FF00000237B6006E008210C48FFF7B7FF7B6801
:1010000008337B607B684F2BF5D93B6801333B602D
:101010003B683F2BECD900BF00BF0837BD4680BD01
:1010200048F603004CF6030010F40300A814002057
:1010300080B588B000AFF860B9607A60FB7097F84F
:101040002830002B40F0C780684B15221A70BB680F
:101050005B08DAB2654B5A70644B3F229A700321E9
:101060006248FFF753FF614B75221A707B68DAB252
:101070005E4B5A707B68DBB20733DAB25B4B9A7017
:1010800003215A48FFF742FF02215948FFF73EFF6C
:10109000A1E0FB6893F90030FB75FB7D03F07F0353
:1010A000FB75FB7D1F2B02D82023FB7502E0FB7D27
:1010B000203BFB750023FB6186E00023BB6149E018
:1010C0004A4ABB69134400221A70FA7DFB69590031
:1010D000484813469B00134403440B441B781A46AC
:1010E000BB6942FA03F303F00103002B07D0FB783E
:1010F0001B01D9B23D4ABB6913440A461A70FB6909
:10110000012B24D8FA7DFB695B00591C3948134632
:101110009B00134403440B441B781A46BB6942FAF4
:1011200003F303F00103002B11D0304ABB691344D1
:101130001B785AB297F9033003F00F035BB21343E5
:101140005BB2D9B2294ABB6913440A461A70BB691B
:101150000133BB61BB69072BB2D9BB687D2B41D87A
:1011600097F82830002B04D108212048FFF7FEFE15
:1011700024E000233B611EE07A683B69D1181B4ADA
:101180003B6913441B781B09DAB20123B86800F0ED
:10119000EDF8BB68581C7A683B69D118134A3B6963
:1011A00013441B7803F00F03DAB2012300F0DEF8DA
:1011B0003B6901333B613B69072BDDD9BB680233D7
:1011C000BB60FB690133FB61FB69022B7FF675AFE6
:1011D000FB680133FB60FB6893F90030002B7FF460
:1011E00058AF00E000BF2037BD4680BDB0140020DE
:1011F00010F4030018F4030080B588B000AFF86065
:10120000B9607A603B6097F82C30002B2CD1554B9D
:1012100015221A70BB685B08DAB2524B5A70BA6872
:101220003B681344023B5B08DAB24E4B9A700321D1
:101230004C48FFF76BFE4B4B75221A707B68DAB295
:10124000484B5A707B68DAB2BB6ADBB21344DBB23C
:10125000013BDAB2434B9A7003214248FFF756FE36
:1012600002214148FFF752FEBB6A7B6171E097F8AB
:101270002C30002B5FD00023FB6157E0FB695A083C
:101280007969BB6ACB1A3968490801FB03F3134437
:10129000FA6813441B78FB76FB6903F00103002B0B
:1012A00003D1FB7E1B09FB7603E0FB7E03F00F03FB
:1012B000FB7697F83030013BDBB2BB762FE097F836
:1012C0003030013BDBB27B761FE097F83030FA69B3
:1012D00003FB02F2BB681A4497F91A30D0187A69F6
:1012E000BB6AD31A97F8302003FB02F27B681A44DA
:1012F00097F91930D118FA7E012300F037F897F9E1
:101300001930DBB2013BDBB27B7697F91930002B49
:10131000DBDA97F91A30DBB2013BDBB2BB7697F927
:101320001A30002BCBDAFB690133FB61FA693B68A9
:101330009A42A3D30AE03B685B081946F868FFF7B6
:1013400015FE3B685B08FA681344FB60BB6A013B0F
:10135000BB62BB6A002B8AD100BF00BF2037BD46ED
:1013600080BD00BFB814002014F4030080B584B021
:1013700000AFF860B96011461A460B46FB71134680
:10138000BB71BB79002B1BD0BB689A01FB685B0863
:101390001A4426498A5C51B2FA6802F00102002A16
:1013A00003D1FA79120152B201E097F907200A43FA
:1013B00051B2BA6892011344C9B21C4AD15431E007
:1013C0001B4B15221A70FB685B08DAB2184B5A7077
:1013D000174B3F229A7003211548FFF797FD144BD6
:1013E00075221A70BB68DAB2114B5A70BB68DBB257
:1013F0000733DAB20E4B9A7003210D48FFF786FDD2
:101400000B4AFB791370FB6803F00103002B05D135
:10141000074B1B781B01DAB2054B1A7001210448F7
:10142000FFF7A4FD00BF1037BD4680BDA404002017
:10143000C014002080B588B000AFF860B9607A6051
:101440003B6097F82C30002B1ED07B687B6117E047
:10145000FA687B681344581EBA683B681344591EE7
:1014600097F828200123FFF781FF7B68013B7B6011
:101470007B68002BECD13B68013B3B607B697B6068
:101480003B68002BF4D196E04D4B15221A70FB6897
:101490005B08DAB24A4B5A70FA687B681344023B25
:1014A0005B08DAB2FB68D9B27B68DBB20B44DBB213
:1014B00003F00103DBB21344DAB2414B9A7003210B
:1014C0003F48FFF723FD3E4B75221A70BB68DAB226
:1014D0003B4B5A70BB68DAB23B68DBB21344DBB2F9
:1014E000013BDAB2364B9A7003213548FFF70EFD07
:1014F00002213448FFF70AFD97F828301B015AB241
:1015000097F9283013435BB2DAB22D4B1A7097F873
:1015100028301B01DAB22A4B5A70294A97F8283032
:1015200093707B685A087B6803F001031344FA68E0
:1015300002F00102002A08D0F9687A680A4402F031
:101540000102002A01D0012200E000221344BB6105
:101550002EE0BB69FB6125E0FB69012B0CD1FA6829
:101560007B68134403F00103002B05D0164B0121C7
:101570001846FFF7FBFC12E0FA69BB699A420AD1F0
:10158000FB6803F00103002B05D0104B0121184626
:10159000FFF7ECFC03E001210948FFF7E7FCFB69DA
:1015A000013BFB61FB69002BD6D13B68013B3B60F3
:1015B0003B68002BCDD100BF2037BD4680BD00BFAA
:1015C000C814002014F40300C9140020CA14002019
:1015D00080B586B002AF7860174808F063FE09F066
:1015E000A1F80146082301937B68009300230122A0
:1015F000114808F02DFE08214FF0402008F0ECFCC7
:101600000A23042208214FF0402008F071FB0A4809
:1016100008F042FE00BF07F10C031946064808F027
:1016200073FE0346002BF6D1044B01221A7000BF53
:101630001037BD4680BD00BF00800040A4140020CC
:1016400080B582B000AF134B00221A7000BF3B1D63
:101650001946114808F058FE0346002BF7D10E48F2
:1016600008F020FE012208214FF0402008F0BEFAC9
:101670000A23042208214FF0402008F039FB0822F9
:1016800008214FF0402008F025FC00BF0837BD4678
:1016900080BD00BFA41400200080004080B584B04D
:1016A00000AF78602D4808F0B7FE2D4808F0B4FE72
:1016B0002C4808F0B1FE2C4808F0AEFE3C214FF05B
:1016C000402008F089FC0A23042204214FF0402026
:1016D00008F00EFB0A23042208214FF0402008F0F6
:1016E00007FB0A23042220214FF0402008F000FBD2
:1016F000012280211D4808F079FA08230422802164
:101700001A4808F0F5FA80228021184808F0E2FB18
:101710007868FFF75DFFFFF759FC0023FB6015E0D9
:10172000FB680133124A1A441149FB680B441B78C9
:10173000013B19461046FFF7E9FB0D4AFB681344CD
:101740001B781A46FB6813440133FB60FB684D2B82
:10175000E6D900BF00BF1037BD4680BD10000010A5
:101760000100002002000020040000200060004072
:10177000F8F5030080B582B000AF00237B6015E070
:101780007B6801330D4A1A440C497B680B441B7873
:10179000013B19461046FFF7B9FB084A7B68134422
:1017A0001B781A467B68134401337B607B684D2BA2
:1017B000E6D900BF00BF0837BD4680BDF8F503007D
:1017C00080B500AF03210248FFF7A0FB00BF80BD3A
:1017D00050F6030080B586B004AF012302930023C6
:1017E0000193402300938023002200210C48FFF73F
:1017F00003FD40F6FF737B6007E0094A7B681344F2
:1018000000221A707B68013B7B607B68002BF4D15F
:10181000034B00221A7000BF0837BD4680BD00BFD1
:10182000A404002080B500AF02E0134809F064F979
:10183000114809F049F90346002BF6D11B210E4847
:1018400009F06CF95B210C4809F068F932210A486B
:1018500009F064F94A21084809F060F91B2106489B
:1018600009F05CF95B21044809F058F94821024865
:1018700009F054F900BF80BD00C0004080B582B0BF
:1018800000AF0346FB710D4B1B684FF6FF71184606
:1018900002F068FF0346012B0BD1094B1B68094975
:1018A000FA79CA54054B186800230022002102F07F
:1018B00031FC00BF0837BD4680BD00BF4404002096
:1018C0004C0400200C01002080B582B000AFC0E0C5
:1018D000674809F011F903465AB2664B1A70654B16
:1018E00093F900301B2B75D1012000F0CFF803468F
:1018F000FB71FB79062B2DD15F4B1B684FF6FF71F7
:10190000184602F02FFF0346012B40F0AA8009E0A1
:101910005A4B1B685A4A2021D154584B1B68013B33
:10192000564A1360554B1B68002BF1D1534B1B6873
:10193000534A2021D154FFF775FFFEF7B3FF514BF7
:1019400000221A704C4B186800230022002102F07C
:10195000E1FB86E0FB79032B32D801A252F823F099
:1019600099190000AD1900008519000071190000D7
:10197000424B1B68002B25D0404B1B68013B3F4A64
:1019800013601FE03D4B1B68A62B1DD83B4B1B680B
:1019900001333A4A136017E0384B1B68142B15D9F2
:1019A000364B1B68153B354A13600FE0334B1B6801
:1019B000932B0DD8314B1B681533304A136007E069
:1019C00000BF4EE000BF4CE000BF4AE000BF48E06F
:1019D00000BF46E0294B1B68A82B07D0254B93F985
:1019E0000030DBB21946224809F098F8214B93F9F0
:1019F0000030082B1BD1214B1B68002B33D01D4B13
:101A000020221A701B4B93F90030DBB2194618489C
:101A100009F084F80821164809F080F8174B1B6874
:101A2000013B164A13600020FFF728FF11E0134B1B
:101A30001B68A82B0DD0144B0C221A700D4B93F978
:101A400000301846FFF71AFF0C4B1B6801330B4A96
:101A50001360074809F038F80346002B7FF438AFCD
:101A600002E000BF00E000BF0837BD4680BD00BFF8
:101A700000C00040D0140020440400204C0400208A
:101A80000C01002048040020B501002080B584B07E
:101A900000AF0346FB71FB79FB600023FB724DE056
:101AA000314809F029F803465AB2304B1A702F4BCF
:101AB00093F900300D2B01D1042350E097F90B303E
:101AC000002B3BD1FB68022B17D0FB68022B32DCCA
:101AD000FB68002B03D0FB68012B07D02BE0234BC6
:101AE00093F900301B2B23D0062338E01F4B93F9CA
:101AF00000305B2B1ED0062331E01C4B93F90030E5
:101B0000413B032B12D801A252F823F01D1B000009
:101B1000211B0000251B0000291B000000231EE0E4
:101B200001231CE002231AE0032318E0062316E039
:101B300000BF00E000BFFB680133FB600A4808F00B
:101B4000C3FF0346002B02D0FB68022BA8DD074B26
:101B500093F900301B2B01D1052300E00623184622
:101B60001037BD4680BD00BF00C00040D11400202A
:101B700080B582B000AF0020FFF788FF0346FB71FD
:101B8000FB79052B47D801A252F823F0A51B0000D2
:101B9000B31B0000C11B0000CF1B0000171C00007E
:101BA000DD1B00001F4B5B78013BDAB21D4B5A7006
:101BB00034E01C4B5B780133DAB21A4B5A702DE0DB
:101BC000184B1B780133DAB2164B1A7026E0154B0E
:101BD0001B78013BDAB2134B1A701FE0124B002244
:101BE0001A70104B00221A700E4B00225A700F4BC5
:101BF0001B684FF6FF71184602F0B4FD0346012B37
:101C00000BD1FFF70FFE094B1868002300220021BB
:101C100002F080FA01E000BF00E000BF00BF08371B
:101C2000BD4680BD5004002048040020440400202C
:101C300080B582B000AFB9E0634808F05DFF0346AD
:101C40005AB2624B1A70614B93F900300D2B11D1CF
:101C50005F4B1B68002B00F0A9805E4809F06CFD0B
:101C600003467B605C4B1868391D0023002202F09C
:101C700051FA9BE0554B93F900301B2B2FD1574B5A
:101C80001B684FF6FF71184602F06CFD0346012BEE
:101C900040F0948009E04E4B1B684E4A2021D154FD
:101CA0004B4B1B68013B4A4A1360494B1B68002B96
:101CB000F1D1474B1B68474A2021D15400F0EAFD7F
:101CC000FFF7B0FDFEF7EEFD454B00221A70434BC7
:101CD000186800230022002102F01CFA6EE03C4B41
:101CE0001B68022B11D8394B93F9003001333D4A60
:101CF000134493F90030DBB203F00403002B0DD141
:101D0000324B93F90030082B08D0314B1B68032B62
:101D10000CD12E4B93F90030082B07D12B4B93F9A4
:101D20000030DBB21946284808F0F8FE274B93F93B
:101D30000030082B1BD1264B1B68002B40D0234BB7
:101D400020221A70214B93F90030DBB219461E484D
:101D500008F0E4FE08211C4808F0E0FE1C4B1B685C
:101D6000013B1B4A13600020FFF788FD1EE0184B63
:101D70001B68022B1AD8154B93F900300133194A0E
:101D8000134493F90030DBB203F00403002B0DD0B1
:101D9000154B0C221A700D4B93F900301846FFF7C3
:101DA0006DFD0B4B1B680133094A1360064808F0B0
:101DB0008BFE0346002B7FF43FAF02E000BF00E044
:101DC00000BF0837BD4680BD00C00040D2140020CF
:101DD0004C0400200C010020580400204404002082
:101DE0004804002084F90300B501002080B582B0CA
:101DF00000AF0020FFF74AFE0346BB710023FB71D2
:101E0000BB79052B23D801A252F823F0251E000030
:101E1000331E00004F1E00004F1E0000411E000038
:101E2000471E0000604B1B78013BDAB25E4B1A7014
:101E30000EE05D4B1B780133DAB25B4B1A7007E0A2
:101E40000123FB7104E0594B00221A7000E000BF2F
:101E5000554B1B78564A92F9002093FBF2F101FB97
:101E600002F29B1ADAB2504B1A7097F90730002B26
:101E700000F089804C4B1B780133DAB24B4B1A705F
:101E80004A4B1B78013B052B7FD801A252F823F067
:101E9000FD1E00008B1F0000A91E0000D51E0000C3
:101EA000251F00005B1F0000424B1B684FF6FF71AF
:101EB000184602F057FC0346012B68D100F09EFC47
:101EC000FEF7DAFC3B4B186800230022002102F0E9
:101ED00021F95CE0374B1B684FF6FF71184602F0A2
:101EE00041FC0346012B54D100F082FA314B1868B3
:101EF00000230022002102F00DF94AE02D4B1B685F
:101F00004FF6FF71184602F02DFC0346012B42D11B
:101F1000FEF7B2FC274B186800230022002102F0D4
:101F2000F9F838E0234B1B684FF6FF71184602F0B2
:101F300019FC0346012B30D11F4B00221A600120EF
:101F400002F000F803461D4A13601A4B186800237C
:101F50000022002102F0DEF81FE0164B1B684FF64E
:101F6000FF71184602F0FEFB0346012B17D1FEF766
:101F700083FCFEF78FFF0F4B18680023002200211F
:101F800002F0C8F80BE000BF0AE000BF08E000BFA5
:101F900006E000BF04E000BF02E000BF00E000BFB9
:101FA00000BF0837BD4680BD520400204804002011
:101FB000B601002044040020680400206C040020C6
:101FC00080B582B000AF0020FFF760FD0346FB71D3
:101FD000FB79052B4DD801A252F823F0F51F000024
:101FE000092000001D2000003120000073200000A7
:101FF00045200000264B93F80432012B3BD0244BA4
:10200000002283F8042236E0214B93F80432002B9F
:1020100033D01F4B012283F804222EE01C4B93F88F
:102020000432032B2BD01A4B022283F8042226E021
:10203000174B93F80432022B23D0154B032283F85D
:1020400004221EE0134B1B684FF6FF71184602F086
:1020500089FB0346012B16D100F05AFB0E4B0022E0
:102060001A700C4B186800230022002102F052F86D
:1020700009E000BF08E000BF06E000BF04E000BFC9
:1020800002E000BF00E000BF00BF0837BD4680BDD2
:10209000B8010020440400204804002080B582B02C
:1020A00000AF0020FFF7F2FC0346FB71FB79052B24
:1020B00040D0052B5BDC022B02D0032B1FD056E057
:1020C000304B1B684FF6FF71184602F04BFB03467E
:1020D000012B4ED12C4B1B68A3F11E022B4B1B680E
:1020E0009A4204D9294B1B681E33284A1360254B9A
:1020F000186800230022002102F00CF839E0214B7F
:102100001B684FF6FF71184602F02CFB0346012BAB
:1021100031D11E4B1B681D2B04D91C4B1B681E3B69
:102120001A4A1360174B186800230022002101F09F
:10213000F1FF20E0164B1B684FF6FF71184602F0C6
:1021400011FB0346012B18D1124B00221A700F4BC2
:1021500000221A600B4B1B68184602F0F7FD0C4B6F
:10216000186800230022002101F0D4FF05E000BF21
:1021700004E000BF02E000BF00E000BF00BF08377E
:10218000BD4680BD6C040020C00300206804002010
:10219000440400204804002080B582B000AF04E170
:1021A000894808F0A9FC03465AB2884B1A70874B3D
:1021B00093F900300D2B3ED1854B1B68002B00F0AE
:1021C000F480844B1B78032B00F0EF80824809F0E9
:1021D000B3FA03467B60814B1868391D0023002247
:1021E00001F098FF7E4B1B684FF6FF71184602F016
:1021F000B9FA0346012B40F0D88009E0744B1B6804
:10220000754A2021D154724B1B68013B704A136000
:102210006F4B1B68002BF1D16D4B1B686E4A202160
:10222000D154FFF7FFFA6E4B1868002300220021FB
:1022300001F070FFB9E0654B93F900301B2B2FD1F3
:10224000674B1B684FF6FF71184602F08BFA034686
:10225000012B40F0B28009E05D4B1B685E4A2021F3
:10226000D1545B4B1B68013B594A1360584B1B68A8
:10227000002BF1D1564B1B68574A2021D154FEF751
:1022800033FEFFF7CFFAFEF70DFB564B00221A7014
:10229000534B186800230022002101F03BFF8CE023
:1022A0004B4B1B68022B1AD8484B93F90030013373
:1022B0004D4A134493F90030DBB203F00403002BC2
:1022C00016D1424B93F90030082B11D03F4B93F9B4
:1022D00000302D2B03D13E4B1B68002B08D03C4B0C
:1022E0001B68032B10D1394B93F90030082B0BD10D
:1022F000384B1B78032B07D0344B93F90030DBB2FB
:102300001946314808F00AFC304B93F90030082B8D
:102310001FD1304B1B78032B1BD02D4B1B68002B80
:102320004DD02A4B20221A70284B93F90030DBB293
:102330001946254808F0F2FB0821234808F0EEFB77
:10234000234B1B68013B224A13600020FFF796FADB
:102350002BE01F4B1B68022B27D81C4B93F9003036
:102360000133214A134493F90030DBB203F0040334
:10237000002B08D1154B93F900302D2B15D1144BA0
:102380001B68002B11D1134B1B78032B0DD0174B5F
:102390000C221A700D4B93F900301846FFF76EFAB5
:1023A0000B4B1B6801330A4A1360074808F08CFB8B
:1023B0000346002B7FF4F4AE02E000BF00E000BF54
:1023C0000837BD4680BD00BF00C00040D3140020C8
:1023D0004C040020710400200C010020A004002007
:1023E000440400204804002084F90300B5010020C3
:1023F00080B582B002AF214B40221A701F4B2022C1
:102400005A701E4B0022C3F800221C4B022283F894
:10241000042204F06FFD03465A081949A1FB021279
:1024200052095A2101FB02F29B1A9BB2DBB2133311
:10243000DAB2124B83F8052204F05CFD03461A461B
:10244000104BA3FB021359090B469B000B44DB0006
:10245000D31A9BB2DBB20C33DAB2084B83F80622F4
:10246000094B01930223009300233C2207490848AB
:1024700003F0D4FD00BFBD4680BD00BFB801002001
:10248000B7600BB6CDCCCCCCD414002054F60300EE
:102490009524000080B586B000AF786005237B826C
:1024A00004F028FD0346FB817A8A07F10E031146EA
:1024B000184603F0A7FF914B1B787B748F4B5B781A
:1024C0003B748E4B1A788D4B83F800218B4B5A78D6
:1024D0008A4B83F80121894B93F80432032B27D8C8
:1024E00001A252F823F000BFF924000007250000E4
:1024F0001525000023250000804B5B78013BDAB2F4
:102500007E4B5A7014E07D4B5B780133DAB27B4B23
:102510005A700DE0794B1B780133DAB2774B1A70A1
:1025200006E0764B1B78013BDAB2744B1A7000BFA1
:10253000724B1B78724AA2FB0312991A49080A448B
:1025400092096D2101FB02F29B1ADAB26B4B1A70F1
:102550006A4B5B786B4AA2FB03121209342101FB20
:1025600002F29B1ADAB2654B5A70644B1B78002B4F
:1025700008D1624B93F80432022B03D15F4B132234
:102580001A700BE05D4B1B78122B07D15B4B93F855
:102590000432032B02D1594B6C221A70574B5B78D3
:1025A000002B07D1554B93F80432012B02D1534B2A
:1025B0000C225A70514B5B780B2B07D14F4B93F881
:1025C0000432002B02D14D4B33225A704B4B1A78F8
:1025D0004A4B93F805329A4242D1484B5A78474BBE
:1025E00093F806329A423BD1444BD3F80032013380
:1025F000424AC2F80032414BD3F800323F497A7C5C
:1026000001F813203D4BD3F800323C493A7C01F8E5
:10261000132004F06FFC03465A083B49A1FB021249
:1026200052095A2101FB02F29B1A9BB2DBB213330F
:10263000DAB2324B83F8052204F05CFC03461A46FA
:10264000324BA3FB021359090B469B000B44DB00E2
:10265000D31A9BB2DBB20C33DAB2284B83F80622D2
:1026600001237B6143E0254A7B6912F81310234A5A
:102670007B69803302F81310204A7B695B001344A6
:1026800059781E4A7B6980335B0013440A465A70AE
:102690007B69013B194A803312F81310174A7B6992
:1026A00002F813107B69013B144A80335B0013442A
:1026B0005978124A7B695B0013440A465A700F4AE4
:1026C0007B6912F813200D4B1B789A420CD10B4AF0
:1026D0007B695B0013445A78084B5B789A4203D1BC
:1026E000064B0022C3F800227B6901337B61034B58
:1026F000D3F800327A699A42B5D9D5E6B8010020FC
:10270000D9B49F2C4FECC44EB7600BB6CDCCCCCC1B
:1027100080B500AF034B1B68184603F0E3FD00BF14
:1027200080BD00BFD414002080B588B000AF7860B1
:1027300064237B8307F10C03184606F053FB07F173
:102740000C032749184609F051F80346002B02D123
:10275000244BFB6116E007F10C032349184609F0EE
:1027600045F80346002B02D1204BFB610AE007F13C
:102770000C031F49184609F039F80346002B01D114
:102780001C4BFB6104F0B6FB03463B831A4B1B68F2
:1027900007F108014FF6FF72184601F013FF0346D8
:1027A000012B17D1BB68002B14D0BB681A46FB69FC
:1027B0001A6004F09FFB03463B830BE07A8B07F122
:1027C00018031146184603F01DFEFB691B685A1ECC
:1027D000FB691A60FB691B68002BEFD1D6E700BFCD
:1027E0005CF603005C04002064F603006004002033
:1027F0006CF60300640400205804002080B582B009
:1028000002AF194B00221A60184B00221A60184BB5
:1028100000221A60002204210A2001F009FB03466D
:10282000144A1360144B01930223009300233C22AB
:102830001249134803F0F2FB124B01930223009359
:1028400000233C2210490E4803F0E8FB0F4B019394
:102850000223009300233C220D49094803F0DEFBCC
:1028600000BFBD4680BD00BF5C04002060040020A6
:102870006404002058040020D81400205CF60300F3
:1028800029270000DC14002064F60300E014002077
:102890006CF6030080B500AF0A4B1B68184603F0C6
:1028A00021FD094B1B68184603F01CFD074B1B68F4
:1028B000184603F017FD064B1B68184602F046FA4F
:1028C00000BF80BDD8140020DC140020E0140020DC
:1028D0005804002080B58CB000AFF860B9607A6011
:1028E0003B600023BB61BB68002B02D0BB68013B8F
:1028F000BB600023BB61C3E10023FB6202E0FB6A13
:102900000133FB627A68FB6A134493F90030252B8C
:1029100006D07A68FB6A134493F90030002BEED19D
:10292000FA6ABB689A420BD9BA687968F86808F005
:1029300077FFFA68BB681344FB600023BB600CE0C0
:10294000FA6A7968F86808F06BFFFA68FB6A134462
:10295000FB60BA68FB6AD31ABB60BA69FB6A1344AE
:10296000BB617A68FB6A13447B607B6893F9003033
:10297000252B40F084817B6801337B6000237B62E0
:102980002023FB777B685A1C7A6093F90030782B00
:1029900000F35681582B0ADA252B00F04081252BB5
:1029A000C0F24E81303B092B00F24A8148E0583B8F
:1029B000202B00F2458101A252F823F0512B000098
:1029C000412C0000412C0000412C0000412C000053
:1029D000412C0000412C0000412C0000412C000043
:1029E000412C0000412C0000772A0000A12A0000A1
:1029F000412C0000412C0000412C0000412C000023
:102A0000412C0000412C0000412C0000412C000012
:102A1000412C0000412C0000412C0000412C000002
:102A2000412C0000412C0000D92A0000412C00005C
:102A3000412B0000412C0000412C0000512B0000D4
:102A40007B68013B93F90030302B04D17B6A002B6B
:102A500001D13023FB777A6A13469B0013445B0055
:102A60007B627B68013B93F900301A467B6A134412
:102A7000303B7B6286E73B681A1D3A601B68BB628D
:102A8000BB68002B08D0FB685A1CFA60BA6A52B2C5
:102A90001A70BB68013BBB60BB690133BB61EFE0EF
:102AA0003B681A1D3A601B68BB62BB6A002B10DAD8
:102AB000BB6A5B42BB62BB68002B07D0FB685A1C39
:102AC000FA602D221A70BB68013BBB60BB69013301
:102AD000BB610A233B6242E03B681A1D3A601B68F7
:102AE0007B610023FB6202E0FB6A0133FB627A69CF
:102AF000FB6A134493F90030002BF5D1FA6ABB68E6
:102B00009A420BD9BA687969F86808F089FEFA68C0
:102B1000BB681344FB600023BB600CE0FA6A796970
:102B2000F86808F07DFEFA68FB6A1344FB60BA6837
:102B3000FB6AD31ABB60BA69FB6A1344BB619FE0AE
:102B40003B681A1D3A601B68BB620A233B6206E0C1
:102B50003B681A1D3A601B68BB6210233B6201236D
:102B6000FB6207E0FB6A3A6A02FB03F3FB627B6AE3
:102B7000013B7B62FB6A3A6A02FB03F3BA6A9A4240
:102B800009D3FB6A3A6A03FB02F23B6AB2FBF3F336
:102B9000FA6A9A42E6D07B6A012B3CD97B6A0F2BFA
:102BA00039D87B6A013B7B6210E0BB68002B07D001
:102BB000FB685A1CFA60FA7F1A70BB68013BBB6065
:102BC000BB690133BB617B6A013B7B627B6A002B83
:102BD000EBD120E0BB68002B15D03048BA6AFB6A05
:102BE000B2FBF3F33A6AB3FBF2F2396A01FB02F289
:102BF0009B1AC218FB68591CF96092F900201A70E0
:102C0000BB68013BBB60BB690133BB61FA6A3B6ACD
:102C1000B2FBF3F3FB62FB6A002BDBD130E0BB6855
:102C2000002B09D0FB685A1CFA607A6812F9012C53
:102C30001A70BB68013BBB60BB690133BB611FE01D
:102C4000BB68042B0CD9FB68154A10681860127910
:102C50001A71FB680533FB60BB68053BBB600AE08B
:102C6000BA680F49F86808F0DBFDFA68BB681344DE
:102C7000FB600023BB60BB690533BB6100E000BFA4
:102C80007B6893F90030002B7FF436AEFB6800229E
:102C90001A70BB6918463037BD4680BD74F6030014
:102CA00088F603000EB480B585B000AF786007F1F8
:102CB0002003BB60BB68FA694FF6FF717868FFF7C5
:102CC00009FEF860FB6818461437BD46BDE8804031
:102CD00003B070470CB480B584B000AF7860396041
:102CE00007F11C03BB60BB68BA6939687868FFF7F5
:102CF000F1FDF860FB6818461037BD46BDE880401E
:102D000002B0704780B588B000AF786000237B6167
:102D100003F0EAFF4C4B1B68002B01D100F03CF99B
:102D20007B68002B12D008227B6803F00703D31ABC
:102D300008333B613B69DB437A689A4204D87A687E
:102D40003B6913447B6001E000237B607B68002BC0
:102D500069DB7B68002B66D03C4B1B687A689A4223
:102D600061D83B4BBB613A4B1B68FB6104E0FB69DC
:102D7000BB61FB691B68FB61FB695B687A689A420F
:102D800003D9FB691B68002BF1D12F4B1B68FA6933
:102D90009A4248D0BB691B68082213447B61FB69D7
:102DA0001A68BB691A60FB695A687B68D21A0823E3
:102DB0005B009A4218D9FA697B681344FB60FB6890
:102DC00003F00703002B03D0DC21224806F018FE95
:102DD000FB695A687B68D21AFB685A60FB697A689B
:102DE0005A60F86800F034F9184B1A68FB695B68A0
:102DF000D31A164A1360154B1A68174B1B689A4270
:102E000003D2124B1B68144A1360FB695B6843F0E2
:102E10000042FB695A60FB6900221A600F4B1B6875
:102E200001330E4A136003F06DFF7B6903F0070363
:102E3000002B04D04FF48E71064806F0E1FD7B694B
:102E400018462037BD4680BDECDC0020F0DC0020B9
:102E5000E4DC002098F60300F4DC0020F8DC00201D
:102E600080B584B000AF78607B68FB607B68002B26
:102E70003DD008235B42FA681344FB60FB68BB60EB
:102E8000BB685B68002B04DB40F22F111A4806F088
:102E9000B7FDBB681B68002B04D04FF4987116482F
:102EA00006F0AEFDBB685B68DB0F03F00103DBB22D
:102EB000002B1CD0BB681B68002B18D1BB685B685B
:102EC00023F00042BB685A6003F00EFFBB685A68EB
:102ED0000A4B1B681344094A1360B86800F0B8F83D
:102EE000074B1B680133064A136003F00BFF00BF5A
:102EF0001037BD4680BD00BF98F60300F0DC00200F
:102F0000FCDC002080B400AF024B1B681846BD46B5
:102F100080BC7047F0DC002080B400AF024B1B681F
:102F20001846BD4680BC7047F4DC002080B400AF7A
:102F300000BFBD4680BC704780B584B000AF7860EC
:102F400039600023FB607B68002B09D04FF0FF3213
:102F50007B68B2FBF3F33A689A4201D9012300E09F
:102F60000023002B13D17B683A6802FB03F3184659
:102F7000FFF7C8FEF860FB68002B08D07B683A6852
:102F800002FB03F31A460021F86808F0EBFBFB682C
:102F900018461037BD4680BD80B485B000AF4FF4F1
:102FA0004843BB60254BFB60FB6803F00703002B25
:102FB0000CD0FB680733FB60FB6823F00703FB6062
:102FC000BA68FB68D31A1D4A1344BB60FB687B6078
:102FD0001B4A7B6813601A4B00225A607B68BA68F0
:102FE0001344FB600822FB689B1AFB60FB6823F01C
:102FF0000703FB60FB68134A1360124B1B68002237
:103000005A60104B1B6800221A607B683B603B686B
:10301000FA68D21A3B685A600A4B1A683B681A6011
:103020003B685B68084A13603B685B68074A13604B
:1030300000BF1437BD4680BC704700BFE4140020B9
:10304000E4DC0020ECDC0020F4DC0020F0DC0020DC
:1030500080B485B000AF7860274BFB6002E0FB686E
:103060001B68FB60FB681B687A689A42F7D8FB68AC
:10307000BB60FB685B68BA6813447A689A4208D1FF
:10308000FB685A687B685B681A44FB685A60FB6897
:103090007B607B68BB607B685B68BA681A44FB68CE
:1030A0001B689A4218D1FB681A68144B1B689A4235
:1030B0000DD07B685A68FB681B685B681A447B68A4
:1030C0005A60FB681B681A687B681A6008E00B4B43
:1030D0001A687B681A6003E0FB681A687B681A60EC
:1030E000FA687B689A4202D0FB687A681A6000BF6F
:1030F0001437BD4680BC7047E4DC0020ECDC0020C7
:1031000080B586B000AF786000233B610023FB6090
:103110004FF6FF73BB6003F0E7FD224B1B687B613A
:103120007B69002B1BD015E03B6901333B617B6958
:103130005B68FA689A4202D27B695B68FB607B69D4
:103140005B68BA689A4202D97B695B68BB607B693D
:103150001B687B61144B1B687A699A42E4D103F0C7
:10316000D1FD7B68FA685A607B68BA689A607B68B0
:103170003A69DA6000F00CF90C4B1A687B681A6047
:103180000B4B1A687B685A610A4B1A687B689A6114
:10319000094B1A687B681A6100F024F900BF1837E0
:1031A000BD4680BDE4DC0020ECDC0020F0DC00202B
:1031B000F8DC0020FCDC0020F4DC002080B485B0CA
:1031C00000AFF860B9607A60FB68043BFB60FB68A5
:1031D0004FF080721A60FB68043BFB60BB6823F011
:1031E0000102FB681A60FB68043BFB60084AFB684D
:1031F0001A60FB68143BFB607A68FB681A60FB6826
:10320000203BFB60FB6818461437BD4680BC704706
:103210001532000080B582B000AF00233B600E4B3A
:103220001B68B3F1FF3F03D0D1210C4806F0E8FB47
:103230004FF0050383F31188BFF36F8FBFF34F8FF8
:103240007B6000BF00BF3B68002BFCD000BF00BF0D
:103250000837BD4680BD00BFCC030020DCF603006C
:10326000074B19680868B0E8F00F80F30988BFF3CE
:103270006F8F4FF0000080F311884EF00D0E7047F5
:1032800058DD002000BF00BF06480068006880F3DA
:10329000088862B661B6BFF34F8FBFF36F8F00DF50
:1032A00000BF000008ED00E000BF00BF80B584B0A3
:1032B00000AF294BFB60FB681B78DBB2BB60FB688F
:1032C000FF221A70FB681B78DBB2FB71FB79DBB263
:1032D00003F00503DAB2214B1A70214B07221A6062
:1032E00009E01F4B1B68013B1D4A1360FB79DBB2F1
:1032F0005B00DBB2FB71FB79DBB203F08003802B58
:10330000EFD0174B1B681B02154A1360144B1B6848
:1033100003F4E063124A1360BB68DAB2FB681A7008
:10332000104B1B680F4A43F47F0313600D4B1B685F
:103330000C4A43F07F43136000F0C0F80A4B0022B0
:103340001A60FFF7A1FF04F01FF8FFF763FF0023E7
:1033500018461037BD4680BD00E400E000DD0020C7
:1033600004DD002020ED00E0CC03002080B500AF9C
:10337000054B1B68B3F57A7F04D040F26F11034808
:1033800006F03EFB00BF80BDCC030020DCF603004E
:1033900080B582B000AF4FF0050383F31188BFF30F
:1033A0006F8FBFF34F8F7B6000BF0B4B1B680133E8
:1033B000094A1360084B1B68012B09D1074B1B6896
:1033C000DBB2002B04D040F27F11054806F018FB59
:1033D00000BF0837BD4680BDCC03002004ED00E0EF
:1033E000DCF6030080B582B000AF0E4B1B68002BEB
:1033F00004D14FF4C3710C4806F002FB094B1B6863
:10340000013B084A1360074B1B68002B05D10023C2
:103410007B607B6883F3118800BF00BF0837BD461F
:1034200080BD00BFCC030020DCF6030000000000DC
:10343000EFF30980BFF36F8F0D4B1A6820E9F00F8F
:1034400010602DE908404FF0050080F3118803F06B
:103450009BFF4FF0000080F31188BDE80840196819
:103460000868B0E8F00F80F30988BFF36F8F7047EA
:1034700058DD002000BF00BF80B582B000AF4FF024
:10348000050383F31188BFF36F8FBFF34F8F7B600A
:1034900000BF03F059FE0346002B03D0064B4FF04C
:1034A00080521A6000233B603B6883F3118800BFA1
:1034B00000BF0837BD4680BD04ED00E080B400AF1A
:1034C000074B00221A60074B00221A60064B074A7E
:1034D0001A60034B07221A6000BFBD4680BC7047CC
:1034E00010E000E018E000E014E000E01FA1070099
:1034F00080B582B000AFEFF305837B607B680F2B54
:103500000ED9104A7B6813441B78FB700E4B1B7856
:10351000FA789A4204D240F2E6210C4806F070FA9A
:103520000B4B1B6803F4E0620A4B1B689A4204D9F8
:1035300040F2F621054806F063FA00BF0837BD46A1
:1035400080BD00BFF0E300E000DD0020DCF60300FA
:103550000CED00E004DD002080B582B000AF1C203F
:10356000FFF7D0FB78607B68002B07D07B680022D8
:103570001A807B680433184600F024FB7B681846E9
:103580000837BD4680BD000080B58AB000AFF86046
:10359000084611461A4603467B810B463B8113467B
:1035A000FB80FB683B620023FB613B8903F47F43A4
:1035B000002B03D0CC214A4806F022FA3B89002B8D
:1035C00003D1CD21464806F01BFA04F001FC034666
:1035D000002B02D1FB88002B01D1012300E0002346
:1035E000002B03D1D0213E4806F00AFA03F07CFB01
:1035F0003B6A1B887B837B891946F86800F0A6F933
:103600007A8B7B8913439AB23B8913409BB23A89E8
:103610009A4212D17A8B7B891343FB843B6A1B88C5
:103620001AB2B7F90830DB431BB213401BB29AB28F
:103630003B6A1A800023FB8014E0FB88002B0CD02F
:103640003B6A181D3B8943F4A0639BB2FA88194674
:1036500003F038FF0023FB8404E03B6A1B88FB84F3
:103660000123FB6103F04EFB7861FB88002B32D015
:103670007B69002B07D11B4B4FF080521A60BFF3C0
:103680004F8FBFF36F8F04F06DFE0346FB84FB8CFE
:1036900003F40073002B1BD1FFF77AFE3B6A1B88F3
:1036A000FB84FA8C3B8913409BB23A899A420BD136
:1036B0003B6A1B881AB2B7F90830DB431BB21340D0
:1036C0001BB29AB23B6A1A80FFF78CFE0123FB61A2
:1036D000FB8CDBB2FB84FB8C18462837BD4680BDD3
:1036E00020F7030004ED00E080B58AB000AFF86079
:1036F0007A603B600B467B81FB683B620023BB84A6
:103700000023FB61FB68002B04D14FF4A5715748DF
:1037100006F076F97B8903F47F43002B04D040F256
:103720004B11524806F06CF97B89002B04D14FF401
:10373000A6714E4806F064F904F04AFB0346002BDC
:1037400002D13B8E002B01D1012300E00023002B8E
:1037500004D140F24F11454806F052F903F0C4FA83
:103760003B6A1B887B8379897B8B3A68184600F01B
:10377000CBF978617B69002B13D07B8BFB84002312
:103780003B867B68002B2ED03B6A1B881AB2B7F9A8
:103790000A30DB431BB213401BB29AB23B6A1A8059
:1037A00021E03B8E002B04D17B8BFB840123FB614A
:1037B00019E07B68002B03D0BB8C43F48073BB847F
:1037C0003B68002B03D0BB8C43F48063BB843B6A13
:1037D000181D7A89BB8C13439BB23A8E194603F0AD
:1037E00071FE0023FB8403F08DFA38613B8E002BC1
:1037F00037D03B69002B07D11D4B4FF080521A6028
:10380000BFF34F8FBFF36F8F04F0ACFD0346FB8413
:10381000FB8C03F40073002B20D1FFF7B9FD3B6A4A
:103820001B88FB847989FB8C3A68184600F06CF998
:103830000346002B0ED07B68002B0BD03B6A1B8805
:103840001AB2B7F90A30DB431BB213401BB29AB26B
:103850003B6A1A800123FB61FFF7C4FDFB8CDBB2DE
:10386000FB84FB8C18462837BD4680BD20F703003B
:1038700004ED00E080B584B000AF78600B467B803B
:103880007B68FB607B68002B04D140F2E111124899
:1038900006F0B6F87B8803F47F43002B04D04FF486
:1038A000F1710D4806F0ACF8FFF772FDFB681B885C
:1038B0007B81FB681B881AB2B7F90230DB431BB26D
:1038C00013401BB29AB2FB681A80FFF78BFD7B890D
:1038D00018461037BD4680BD20F7030080B584B080
:1038E00000AF78600B467B807A88002379680448B3
:1038F00005F0ECFEF860FB6818461037BD4680BD49
:10390000EB3A000080B489B000AF78607B68FB615F
:10391000EFF311824FF0050383F31188BFF36F8F2C
:10392000BFF34F8FFA60BB60FB68BB61FB691B880C
:10393000FB82BB693B613B6983F3118800BFFB8A53
:1039400018462437BD4680BC7047000080B58AB059
:1039500000AF78600B467B8000237B847B68BB6173
:103960000023FB617B68002B04D140F222213B48FD
:1039700006F046F87B8803F47F43002B04D040F226
:103980002321364806F03CF8BB6904337B617B6930
:1039900008333B6103F0A8F97B69DB687B62BB6994
:1039A0001A887B8813439AB2BB691A803EE07B6A0F
:1039B0005B68FB607B6A1B887B810023FB617B89E2
:1039C00023F0FF033B817B89DBB27B813B8903F4DE
:1039D0008063002B09D1BB691A887B8913409BB295
:1039E000002B0CD00123FB6109E0BB691A887B899D
:1039F00013409BB27A899A4201D10123FB61FB6992
:103A0000002B11D03B8903F48073002B03D07A8CF8
:103A10007B8913437B84BB691B8843F400739BB28F
:103A20001946786A03F0B4FEFB687B627A6A3B69E8
:103A30009A42BCD1BB691B881AB2B7F92230DB436A
:103A40001BB213401BB29AB2BB691A8003F05AF939
:103A5000BB691B8818462837BD4680BD20F7030088
:103A600080B584B000AF78607B68FB60FB68002B9A
:103A700004D140F27A21144805F0C2FFFB680433F8
:103A8000BB6003F031F911E0BB68DA68BB6808334A
:103A90009A4204D140F286210B4805F0B1FFBB6881
:103AA000DB684FF40071184603F072FEBB681B68B8
:103AB000002BE9D103F026F9F868FFF7D1F900BF30
:103AC0001037BD4680BD00BF20F7030080B582B02F
:103AD00000AF786039603B689BB219467868FFF7A1
:103AE00035FF00BF0837BD4680BD80B582B000AF4E
:103AF000786039603B689BB219467868FFF7BAFE78
:103B000000BF0837BD4680BD80B485B000AF034616
:103B10003A60FB800B46BB800023FB603B68002BB8
:103B200008D1FA88BB8813409BB2002B0BD001232D
:103B3000FB6008E0FA88BB8813409BB2BA889A42BF
:103B400001D10123FB60FB6818461437BD4680BCD9
:103B50007047000080B586B000AFF8600B467A6011
:103B60007B817A897B68F968044805F0AFFD78614C
:103B70007B6918461837BD4680BD00BFCD3A0000AE
:103B800080B485B000AF78607B68BB607B68002B39
:103B900002D10023FB6002E0BB689B69FB60FB680D
:103BA00018461437BD4680BC704780B483B000AF60
:103BB000786039607B683A689A6100BF0C37BD460F
:103BC00080BC704780B483B000AF78607B6803F13D
:103BD00008027B685A607B684FF6FF721A817B6827
:103BE00003F108027B68DA607B6803F108027B68F6
:103BF0001A617B6800221A6000BF0C37BD4680BC8A
:103C0000704780B483B000AF78607B6800221A618F
:103C100000BF0C37BD4680BC704780B485B000AF94
:103C2000786039607B685B68FB603B68FA685A6063
:103C3000FB689A683B689A60FB689B683A685A60C0
:103C4000FB683A689A603B687A681A617B681B680F
:103C50005A1C7B681A6000BF1437BD4680BC704791
:103C600080B485B000AF786039603B681B887B8189
:103C70007B894FF6FF72934203D17B681B69FB601F
:103C80000CE07B680833FB6002E0FB685B68FB606C
:103C9000FB685B681B887A899A42F6D2FB685A688F
:103CA0003B685A603B685B683A689A603B68FA68B0
:103CB0009A60FB683A685A603B687A681A617B6868
:103CC0001B685A1C7B681A6000BF1437BD4680BC55
:103CD000704780B485B000AF78607B681B69FB607B
:103CE0007B685B687A6892689A607B689B687A6890
:103CF00052685A60FB685B687A689A4203D17B68B5
:103D00009A68FB685A607B6800221A61FB681B682E
:103D10005A1EFB681A60FB681B6818461437BD46BC
:103D200080BC704780B584B000AF786039600123F3
:103D3000FB607B68BB60BB68002B04D14FF49771BC
:103D4000394805F05DFEBB68002B5DD0BB68DB6BBE
:103D5000002B59D0BB681A6CBB68DB6B0021A3FB3E
:103D60000223002B00D001210B46002B4CD1FFF782
:103D70000FFBBB681A68BB68DB6BB968096C01FB99
:103D800003F31A44BB689A60BB6800229A63BB685D
:103D90001A68BB685A60BB681A68BB68DB6B013B7A
:103DA000B968096C01FB03F31A44BB68DA60BB68AD
:103DB000FF2283F84420BB68FF2283F845203B683C
:103DC000002B14D1BB681B69002B1AD0BB681033C1
:103DD000184603F00DFC0346002B12D0134B4FF096
:103DE00080521A60BFF34F8FBFF36F8F09E0BB683B
:103DF00010331846FFF7E6FEBB6824331846FFF77A
:103E0000E1FEFFF7EFFA01E00023FB60FB68002B07
:103E100004D140F26311044805F0F2FDFB68184636
:103E20001037BD4680BD00BF58F7030004ED00E029
:103E300080B58AB002AFF860B9601346FB71002309
:103E4000FB61FB68002B2ED00021BA68FB68A3FB46
:103E50000223002B00D001210B46002B23D1FB684D
:103E6000BA6802FB03F313F1550F1CD8FB68BA685C
:103E700002FB03F3BB61BB6954331846FEF742FFF4
:103E8000F861FB69002B16D0FB697B617B695433B9
:103E90007B61FA79FB69009313467A69B968F8681F
:103EA00000F010F807E0FB69002B04D14FF4F27129
:103EB000034805F0A5FDFB6918462037BD4680BDC7
:103EC00058F7030080B584B000AFF860B9607A603D
:103ED000FB70BB68002B03D1BB69BA691A6002E0B2
:103EE000BB697A681A60BB69FA68DA63BB69BA6849
:103EF0001A640121B869FFF715FFBB69FA7883F8E6
:103F00005020BB6900229A6400BF1037BD4680BDB7
:103F100080B582B000AF78607B68002B0ED07B68E4
:103F200000229A607B6800221A607B680022DA60B7
:103F3000002300220021786800F0ECF800BF083769
:103F4000BD4680BD80B586B000AF0346FB7101233E
:103F50007B6100233B61FB791A4639697869FFF779
:103F600067FFF860F868FFF7D3FFFB68184618375B
:103F7000BD4680BD80B584B000AF78607B68BB6013
:103F80007B68002B04D140F266210B4805F038FD18
:103F9000FFF7FEF9BB681B68002B03D1BB689B6869
:103FA000FB6001E00023FB60FFF71CFAFB6818468A
:103FB0001037BD4680BD00BF58F7030080B584B000
:103FC00000AF78607B68002B04D140F2862109485D
:103FD00005F016FD7B681B68002B03D17B689B688E
:103FE000FB6001E00023FB60FB6818461037BD460C
:103FF00080BD00BF58F7030090B585B000AF786072
:104000007B68BB60BB68002B04D140F2A121114842
:1040100005F0F6FCBB689C6803F0CCFE03469C42AE
:1040200011D1BB68DB685A1EBB68DA60BB68DB680D
:10403000002B05D1002300220021B86800F06AF8A7
:104040000123FB6001E00023FB60FB681846143786
:10405000BD4690BD58F7030090B585B000AF7860BD
:104060000B467B807B68BB60BB68002B04D140F2B1
:10407000D921124805F0C4FCBB689C6803F09AFE85
:1040800003469C4207D1BB68DB685A1CBB68DA60F8
:104090000123FB600DE07B881946B86800F062FBE5
:1040A000F860FB68002B04D0BB68DB685A1CBB6857
:1040B000DA60FB6818461437BD4690BD58F7030018
:1040C00080B584B000AF786039600023FB607B6806
:1040D000002B10D03A687B689A420CD8022200214B
:1040E0007868FFF7A5FEF860FB68002B0BD0FB6833
:1040F0003A689A6307E0FB68002B04D140F239313B
:10410000034805F07DFCFB6818461037BD4680BDAE
:1041100058F7030080B58AB000AFF860B9603B6023
:104120001346FB8000237B62FB683B623B6A002BEB
:1041300004D14FF45371784805F062FCBB68002B42
:1041400003D13B6A1B6C002B01D1012300E000234B
:10415000002B04D140F24D316F4805F051FC3B6813
:10416000022B03D13B6ADB6B012B01D1012300E061
:104170000023002B04D140F24E31674805F040FC8B
:1041800003F026FE0346002B02D1FB88002B01D151
:10419000012300E00023002B04D140F251315E489E
:1041A00005F02EFCFFF7F4F83B6A9A6B3B6ADB6B79
:1041B0009A4202D33B68022B45D13B6A9B6BFB6161
:1041C0003A68B968386A00F016FEB8613B6A9B6CC1
:1041D000002B14D03B68022B02D1FB69002B2ED19F
:1041E000386A01F0BBF80346002B28D04B4B4FF048
:1041F00080521A60BFF34F8FBFF36F8F1FE03B6A8F
:104200005B6A002B10D03B6A2433184603F0F0F9A8
:104210000346002B13D0414B4FF080521A60BFF37E
:104220004F8FBFF36F8F0AE0BB69002B07D03B4B6A
:104230004FF080521A60BFF34F8FBFF36F8FFFF7BD
:10424000D1F8012363E0FB88002B03D1FFF7CAF804
:1042500000235CE07B6A002B06D107F110031846AF
:1042600003F072FB01237B62FFF7BCF802F03CFD18
:10427000FFF78EF83B6A93F844305BB2B3F1FF3F2F
:1042800003D13B6A002283F844203B6A93F845300F
:104290005BB2B3F1FF3F03D13B6A002283F84520B4
:1042A000FFF7A0F8BA1D07F110031146184603F0F6
:1042B00061FB0346002B24D1386A00F0BFFE0346A1
:1042C000002B18D03B6A1033FA881146184603F0C9
:1042D000D7F8386A00F01FFE02F014FD0346002BE9
:1042E0007FF460AF0D4B4FF080521A60BFF34F8FD9
:1042F000BFF36F8F56E7386A00F00DFE02F002FD43
:1043000050E7386A00F007FE02F0FCFC0023184674
:104310002837BD4680BD00BF58F7030004ED00E01C
:1043200080B58EB000AFF860B9607A603B60FB6822
:104330003B633B6B002B04D14FF48461514805F083
:104340005FFBBB68002B03D13B6B1B6C002B01D1C7
:10435000012300E00023002B04D140F22141494811
:1043600005F04EFB3B68022B03D13B6BDB6B012B53
:1043700001D1012300E00023002B04D140F22241AF
:10438000404805F03DFBFFF7B3F8EFF311824FF023
:10439000050383F31188BFF36F8FBFF34F8FFA616B
:1043A000BB61FB69FB623B6B9A6B3B6BDB6B9A42BD
:1043B00002D33B68022B57D13B6B93F8453087F80B
:1043C0002B303B6B9B6B7B623A68B968386B00F0B3
:1043D00012FD97F92B30B3F1FF3F29D13B6B9B6C5A
:1043E000002B12D03B68022B02D17B6A002B38D104
:1043F000386B00F0B3FF0346002B32D07B68002BF4
:104400002FD07B6801221A602BE03B6B5B6A002B8C
:1044100027D03B6B2433184603F0EAF80346002B01
:104420001FD07B68002B1CD07B6801221A6018E02B
:1044300002F096FD386297F92B303A6A9A4210D909
:1044400097F92B307F2B04D140F2AB410D4805F09A
:10445000D7FA97F82B300133DBB25AB23B6B83F8B3
:10446000452001237B6301E000237B63FB6A7B61C2
:104470007B6983F3118800BF7B6B18463837BD46D4
:1044800080BD00BF58F7030080B58CB000AF7860E6
:1044900039607B68BB62BB6A002B04D140F2C94122
:1044A000474805F0ADFABB6A1B6C002B04D040F204
:1044B000CD41434805F0A4FABB6A1B68002B03D129
:1044C000BB6A9B68002B01D1012300E00023002B75
:1044D00004D140F2D2413A4805F092FAFFF708F8C9
:1044E000EFF311824FF0050383F31188BFF36F8F51
:1044F000BFF34F8F7A613B617B697B62BB6A9B6BC9
:104500003B62BB6ADB6B3A6A9A424BD2BB6A93F856
:104510004530FB773B6A5A1CBB6A9A6397F91F3098
:10452000B3F1FF3F23D1BB6A9B6C002B0CD0B86A60
:1045300000F014FF0346002B31D03B68002B2ED037
:104540003B6801221A602AE0BB6A5B6A002B26D016
:10455000BB6A2433184603F04BF80346002B1ED0E9
:104560003B68002B1BD03B6801221A6017E002F069
:10457000F7FCB86197F91F30BA699A420FD997F9D9
:104580001F307F2B04D140F251510D4805F038FA0D
:10459000FB7F0133DBB25AB2BB6A83F845200123AB
:1045A000FB6201E00023FB627B6AFB60FB6883F334
:1045B000118800BFFB6A18463037BD4680BD00BF7A
:1045C00058F7030080B58AB000AFF860B9601346B1
:1045D000FB8000237B62FB683B623B6A002B04D1BB
:1045E00040F26B515D4805F00BFABB68002B03D11C
:1045F0003B6A1B6C002B01D1012300E00023002B40
:1046000004D140F26F51554805F0FAF903F0E0FB90
:104610000346002B02D1FB88002B01D1012300E0CF
:104620000023002B04D140F274514C4805F0E8F906
:10463000FEF7AEFE3B6A9B6BFB61FB69002B1FD054
:10464000B968386A00F041FCFB695A1E3B6A9A63FC
:104650003B6A1B69002B0FD03B6A1033184602F0EF
:10466000C7FF0346002B07D03D4B4FF080521A6026
:10467000BFF34F8FBFF36F8FFEF7B4FE012369E0E6
:10468000FB88002B03D1FEF7ADFE002362E07B6ABE
:10469000002B06D107F11403184603F055F9012346
:1046A0007B62FEF79FFE02F01FFBFEF771FE3B6A86
:1046B00093F844305BB2B3F1FF3F03D13B6A002271
:1046C00083F844203B6A93F845305BB2B3F1FF3F77
:1046D00003D13B6A002283F84520FEF783FEBA1D12
:1046E00007F114031146184603F044F90346002B62
:1046F00023D1386A00F06EFC0346002B17D03B6ACA
:104700002433FA881146184602F0BAFE386A00F0DF
:1047100002FC02F0F7FA0346002B89D1104B4FF050
:1047200080521A60BFF34F8FBFF36F8F80E7386AF4
:1047300000F0F1FB02F0E6FA7AE7386A00F0EBFBF2
:1047400002F0E0FA386A00F045FC0346002B3FF423
:104750006FAF002318462837BD4680BD58F70300C9
:1047600004ED00E080B58AB000AF78600B467B8036
:1047700000237B627B68FB6100233B62FB69002BAB
:1047800004D140F2FD516C4805F03AF9FB691B6C0D
:10479000002B04D040F20161674805F031F903F0C5
:1047A00017FB0346002B02D17B88002B01D101238C
:1047B00000E00023002B04D140F206615E4805F0C2
:1047C0001FF9FEF7E5FDFB699B6BBB61BB69002B25
:1047D00024D0BB695A1EFB699A63FB691B68002BD6
:1047E00004D103F0D9FD0246FB699A60FB691B699D
:1047F000002B0FD0FB691033184602F0F9FE034678
:10480000002B07D04D4B4FF080521A60BFF34F8FF3
:10481000BFF36F8FFEF7E6FD012389E07B88002B55
:1048200003D1FEF7DFFD002382E07B6A002B06D177
:1048300007F10C03184603F087F801237B62FEF7AB
:10484000D1FD02F051FAFEF7A3FDFB6993F8443065
:104850005BB2B3F1FF3F03D1FB69002283F8442030
:10486000FB6993F845305BB2B3F1FF3F03D1FB69BD
:10487000002283F84520FEF7B5FDBA1C07F10C03B2
:104880001146184603F076F80346002B32D1F8693A
:1048900000F0A0FB0346002B26D0FB691B68002B11
:1048A00009D1FEF775FDFB699B68184603F0AEFA67
:1048B0003862FEF797FDFB6924337A881146184663
:1048C00002F0DEFDF86900F026FB02F01BFA034659
:1048D000002B7FF476AF194B4FF080521A60BFF374
:1048E0004F8FBFF36F8F6CE7F86900F014FB02F095
:1048F00009FA66E7F86900F00EFB02F003FAF869BE
:1049000000F068FB0346002B3FF45BAF3B6A002BD3
:104910000DD0FEF73DFDF86900F056FA7861FB69AD
:104920009B687969184603F0AFFBFEF75BFD002337
:1049300018462837BD4680BD58F7030004ED00E057
:1049400080B58AB000AFF860B9601346FB800023E1
:104950007B62FB683B623B6A002B04D140F2CD6175
:104960005E4805F04DF8BB68002B03D13B6A1B6C19
:10497000002B01D1012300E00023002B04D140F2E1
:10498000D161564805F03CF803F022FA0346002BAB
:1049900002D1FB88002B01D1012300E00023002B72
:1049A00004D140F2D6614D4805F02AF8FEF7F0FC3C
:1049B0003B6A9B6BFB61FB69002B21D03B6ADB6888
:1049C000BB61B968386A00F080FA3B6ABA69DA609C
:1049D0003B6A5B6A002B0FD03B6A2433184602F017
:1049E00007FE0346002B07D03D4B4FF080521A6064
:1049F000BFF34F8FBFF36F8FFEF7F4FC012369E025
:104A0000FB88002B03D1FEF7EDFC002362E07B6AFC
:104A1000002B06D107F11003184602F095FF012381
:104A20007B62FEF7DFFC02F05FF9FEF7B1FC3B6A48
:104A300093F844305BB2B3F1FF3F03D13B6A0022ED
:104A400083F844203B6A93F845305BB2B3F1FF3FF3
:104A500003D13B6A002283F84520FEF7C3FCBA1D50
:104A600007F110031146184602F084FF0346002B9D
:104A700023D1386A00F0AEFA0346002B17D03B6A08
:104A80002433FA881146184602F0FAFC386A00F01E
:104A900042FA02F037F90346002B87D1104B4FF052
:104AA00080521A60BFF34F8FBFF36F8F7EE7386A73
:104AB00000F031FA02F026F978E7386A00F02BFAB4
:104AC00002F020F9386A00F085FA0346002B3FF423
:104AD0006DAF002318462837BD4680BD58F7030048
:104AE00004ED00E080B58EB000AFF860B9607A6088
:104AF000FB683B633B6B002B04D140F262713C4886
:104B000004F07EFFBB68002B03D13B6B1B6C002BBA
:104B100001D1012300E00023002B04D140F2637196
:104B2000334804F06DFFFEF7E3FCEFF311824FF022
:104B3000050383F31188BFF36F8FBFF34F8FFA61C3
:104B4000BB61FB69FB623B6B9B6BBB62BB6A002B6F
:104B500040D03B6B93F8443087F82730B968386B06
:104B600000F0B3F9BB6A5A1E3B6B9A6397F9273082
:104B7000B3F1FF3F12D13B6B1B69002B27D03B6B7E
:104B80001033184602F034FD0346002B1FD07B681B
:104B9000002B1CD07B6801221A6018E002F0E0F9BB
:104BA000386297F927303A6A9A4210D997F9273034
:104BB0007F2B04D140F2A6710D4804F021FF97F835
:104BC00027300133DBB25AB23B6B83F84420012318
:104BD0007B6301E000237B63FB6A7B617B6983F37A
:104BE000118800BF7B6B18463837BD4680BD00BFBB
:104BF00058F7030080B58AB000AF786039607B68F1
:104C00003B623B6A002B04D140F2BF71254804F09F
:104C1000F7FE3B68002B03D13B6A1B6C002B01D1D4
:104C2000012300E00023002B04D14FF4F8611D485C
:104C300004F0E6FE3B6A1B6C002B04D140F2C1710C
:104C4000184804F0DDFEFEF753FCEFF311824FF03D
:104C5000050383F31188BFF36F8FBFF34F8F7A6122
:104C60003B617B69FB613B6A9B6B002B0CD03B6A11
:104C7000DB68BB613968386A00F027F93B6ABA69BA
:104C8000DA6001237B6201E000237B62FB69FB6049
:104C9000FB6883F3118800BF7B6A18462837BD463E
:104CA00080BD00BF58F7030080B584B000AF7860C6
:104CB0007B68002B04D140F2F271074804F0A0FE9B
:104CC000FEF766FB7B689B6BFB60FEF78BFBFB686C
:104CD00018461037BD4680BD58F7030080B584B034
:104CE00000AF78607B68FB60FB68002B04D140F666
:104CF0000301094804F084FEFEF74AFBFB68DA6B07
:104D0000FB689B6BD31ABB60FEF76CFBBB68184655
:104D10001037BD4680BD00BF58F7030080B584B092
:104D200000AF78607B68FB60FB68002B04D140F625
:104D30001401054804F064FEFB689B6BBB60BB6814
:104D400018461037BD4680BD58F7030080B584B0C3
:104D500000AF78607B68FB60FB68002B04D140F6F5
:104D60001F01064804F04CFEF86800F015FAF868D8
:104D7000FEF776F800BF1037BD4680BD58F7030038
:104D800080B483B000AF78607B68DB6C18460C376A
:104D9000BD4680BC704780B483B000AF7860396096
:104DA0007B683A68DA6400BF0C37BD4680BC704748
:104DB00080B483B000AF78607B6893F850301846B9
:104DC0000C37BD4680BC704780B485B000AF7860BA
:104DD0007B685B6A002B06D07B681B6B1B88C3F16A
:104DE0000603FB6001E00023FB60FB6818461437F4
:104DF000BD4680BC704780B586B000AFF860B96032
:104E00007A6000237B61FB689B6B3B61FB681B6CDA
:104E1000002B0DD1FB681B68002B4DD1FB689B68F4
:104E2000184603F095F87861FB6800229A6043E029
:104E30007B68002B19D1FB685868FB681B6C1A460D
:104E4000B96806F081FCFB685A68FB681B6C1A4461
:104E5000FB685A60FB685A68FB689B689A422BD3D0
:104E6000FB681A68FB685A6026E0FB68D868FB6834
:104E70001B6C1A46B96806F067FCFB68DA68FB68C9
:104E80001B6C5B421A44FB68DA60FB68DA68FB68FB
:104E90001B689A4207D2FB689A68FB681B6C5B42EE
:104EA0001A44FB68DA607B68022B05D13B69002B52
:104EB00002D03B69013B3B613B695A1CFB689A632A
:104EC0007B6918461837BD4680BD80B582B000AFFB
:104ED000786039607B681B6C002B18D07B68DA68BF
:104EE0007B681B6C1A447B68DA607B68DA687B68D5
:104EF0009B689A4203D37B681A687B68DA607B6898
:104F0000D9687B681B6C1A46386806F01DFC00BF28
:104F10000837BD4680BD80B584B000AF7860FEF72D
:104F200037FA7B6893F84530FB731EE07B689B6C17
:104F3000002B08D0786800F011FA0346002B10D03F
:104F400002F076FD0DE07B685B6A002B12D07B6877
:104F50002433184602F04CFB0346002B01D002F02C
:104F600067FDFB7B013BDBB2FB7397F90F30002B36
:104F7000DCDC00E000BF7B68FF2283F84520FEF701
:104F800031FAFEF705FA7B6893F84430BB7311E001
:104F90007B681B69002B12D07B681033184602F027
:104FA00027FB0346002B01D002F042FDBB7B013BF7
:104FB000DBB2BB7397F90E30002BE9DC00E000BFD9
:104FC0007B68FF2283F84420FEF70CFA00BF1037FD
:104FD000BD4680BD80B584B000AF7860FEF7D8F9DB
:104FE0007B689B6B002B02D10123FB6001E0002357
:104FF000FB60FEF7F7F9FB6818461037BD4680BD29
:1050000080B584B000AF78607B68BB60BB68002B64
:1050100004D140F67911084804F0F2FCBB689B6BA0
:10502000002B02D10123FB6001E00023FB60FB6841
:1050300018461037BD4680BD58F7030080B584B0D0
:1050400000AF7860FEF7A4F97B689A6B7B68DB6B36
:105050009A4202D10123FB6001E00023FB60FEF7CE
:10506000C1F9FB6818461037BD4680BD80B584B0D5
:1050700000AF78607B68BB60BB68002B04D140F652
:10508000A211094804F0BCFCBB689A6BBB68DB6BDF
:105090009A4202D10123FB6001E00023FB60FB6820
:1050A00018461037BD4680BD58F7030080B584B060
:1050B00000AF786039600023BB607B68002B04D1AF
:1050C00040F6D8211B4804F09BFC3B68002B24D001
:1050D0000023FB601EE0184AFB68DB0013445B689A
:1050E0007A689A4205D1FB68DB00134A1344BB601F
:1050F00013E0BB68002B0AD10F4AFB6852F833302B
:10510000002B04D1FB68DB000B4A1344BB60FB6837
:105110000133FB60FB68092BDDD9BB68002B05D090
:10512000BB683A681A60BB687A685A6000BF10377B
:10513000BD4680BD58F7030008DD002080B584B06F
:1051400000AF78600023BB607B68002B04D140F681
:1051500006310F4804F054FC0023FB6010E00D4AB8
:10516000FB68DB0013445B687A689A4205D1094A00
:10517000FB6852F83330BB6005E0FB680133FB602D
:10518000FB68092BEBD9BB6818461037BD4680BDBC
:1051900058F7030008DD002080B584B000AF7860C8
:1051A0007B68002B04D140F62431124804F028FC1F
:1051B0000023FB6016E0104AFB68DB0013445B68C9
:1051C0007A689A420BD10C4AFB68002142F83310EE
:1051D000094AFB68DB00134400225A6006E0FB68C2
:1051E0000133FB60FB68092BE5D900BF00BF103716
:1051F000BD4680BD58F7030008DD002080B586B0AD
:1052000000AFF8600B467A607B81FB687B61FEF73C
:10521000BFF87B6993F844305BB2B3F1FF3F03D131
:105220007B69002283F844207B6993F845305BB2A8
:10523000B3F1FF3F03D17B69002283F84520FEF7DD
:10524000D1F87B699B6B002B06D17B69243379896C
:105250007A68184602F088F97869FFF75CFE00BFAB
:105260001837BD4680BD80B584B000AF786000229D
:1052700004217868FEF7DCFDF860FB6818461037FB
:10528000BD4680BD80B584B000AF78603960FEF760
:105290007FF87B689B6C002B02D00023FB600BE047
:1052A0007B689B6B002B02D00023FB6004E07B68D3
:1052B0003A689A640123FB60FEF794F8FB6818468D
:1052C0001037BD4680BD80B584B000AF78603960CE
:1052D0007B68BB60BB689B6C3A689A4202D0002333
:1052E000FB600FE0BB689B6B002B02D00023FB60D0
:1052F00008E0FEF74DF8BB6800229A64FEF772F8EA
:105300000123FB60FB6818461037BD4680BD80B5A1
:1053100084B000AF78600B467B800023FB607A8806
:1053200007F10C0319467868FFF74CF9FB6818463B
:105330001037BD4680BD80B584B000AF78600023D3
:10534000FB6007F10C03002219467868FFF7CAFBDF
:10535000FB6818461037BD4680BD000080B586B09A
:1053600000AF78607B689B6C3B6100237B613B698D
:10537000002B04D140F6E331274804F041FB3B69A0
:105380009A6B3B69DB6B9A4204D340F6E4312248C6
:1053900004F036FB3B699A6B3B69DB6B9A4236D271
:1053A0003B6993F84530FB733B1D00221946386971
:1053B000FFF721FD786197F90F30B3F1FF3F0ED170
:1053C0003B695B6A002B22D03B692433184602F00C
:1053D0000FF90346002B1AD001237B6117E001F07F
:1053E000BFFDB86097F90F30BA689A420FD997F9A4
:1053F0000F307F2B04D140F60441074804F000FB36
:10540000FB7B0133DBB25AB23B6983F845207B69F1
:1054100018461837BD4680BD58F7030080B58AB0DE
:1054200004AFF860B9607A603B607B68012B0AD1F9
:105430000123FB74FB68042B0FD84FF4A97121489A
:1054400004F0DEFA09E00023FB74FB68002B04D1B2
:105450004FF4AC711B4804F0D3FABA68FB689A4267
:1054600004D940F25B11174804F0CAFABB68002B5C
:1054700001D10123BB60FB6813F1260F09D8FB683B
:105480000133FB60FB6824331846FDF73BFC786171
:1054900001E000237B617B69002B0DD07B6903F168
:1054A00024013B6A02933B680193FB7C0093BB6839
:1054B000FA68786900F05CFD7B6918461837BD46CC
:1054C00080BD00BF88F7030080B584B000AF78606E
:1054D0007B68FB60FB68002B04D140F2E1110B48B4
:1054E00004F08EFAFB681B7F03F00203002B03D14C
:1054F000F868FDF7B5FC04E024220021F86806F006
:1055000031F900BF1037BD4680BD00BF88F70300EA
:1055100090B58DB004AF78607B68BB610023FB6100
:1055200000237B6100233B61BB69002B04D14FF456
:105530000271174804F064FABB691B6AFB60FDF74F
:1055400027FFBB691B69002B1AD1BB695B69002B64
:1055500016D1BB699969BB699868BB69DC68BB698E
:105560001B7F3A6902927A690192009323460246B0
:10557000B86900F0FDFCBB69FA681A620123FB619F
:10558000FDF730FFFB6918462437BD4690BD00BFCC
:1055900088F7030080B584B000AF786039607B681D
:1055A000BB60BB68002B04D140F23D210C4804F0E5
:1055B00027FA3B68002B01D101233B60BB689B6845
:1055C0003A689A4205D2BB683A68DA600123FB6008
:1055D00001E00023FB60FB6818461037BD4680BD24
:1055E00088F7030080B586B000AF78607B683B61C8
:1055F0003B69002B04D140F25B21144804F000FA0F
:105600003B691B68FB603B699A683B691B681344F4
:105610007B613B695B687A69D31A7B613B691B6874
:10562000FA689A42ECD17B69013B7B613B699B68DC
:105630007A699A4204D33B699B687A69D31A7B6181
:105640007B6918461837BD4680BD00BF88F7030048
:1056500080B584B000AF78607B68FB60FB68002B8E
:1056600004D140F27B21064804F0CAF9F86800F042
:105670005FFCB860BB6818461037BD4680BD00BFF0
:1056800088F7030080B58EB002AFF860B9607A6029
:105690007B80FB687B620023FB627B68BB6200232C
:1056A0003B62BB68002B04D140F28D21504804F0CE
:1056B000A7F97B6A002B04D140F28E214C4804F0FC
:1056C0009FF97B6A9B68013B3B627B6A1B7F03F00F
:1056D0000103002B12D0BB6A0433BB62BA6A7B6839
:1056E0009A4204D840F29D21414804F089F9BA6AEF
:1056F0003B6A9A4208D900237B8005E0BA6A3B6A7C
:105700009A4201D93B6ABB627B88002B3BD007F1F0
:105710001403184602F0F4F8FDF73AFE786AFFF732
:1057200061FFF862FA6ABB6A9A4212D20021002035
:1057300003F072FA7B6A5B69002B04D040F2CD2142
:105740002B4804F05DF902F035FB02467B6A5A6192
:1057500002E0FDF747FE16E0FDF744FE7B8800936C
:10576000002300220021002002F090FE7B6A00222C
:105770005A61BA1C07F114031146184602F0FAF8F0
:105780000346002BC8D0FB6A002B03D1786AFFF7D1
:1057900029FFF862BB6A0093FB6A7A68B968786A85
:1057A00000F092F8F861FB69002B1BD0786A00F0DA
:1057B000BFFB02467B6ADB689A4213D301F094FA7E
:1057C0007B6A1B69002B0BD07B6A1869002300934E
:1057D00000230022002102F0D5FE7B6A00221A611C
:1057E00001F090FAFB6918463037BD4680BD00BF16
:1057F00088F7030080B58EB002AFF860B9607A60B8
:105800003B60FB68BB627B68FB62BB68002B04D11A
:1058100040F20E312B4804F0F3F8BB6A002B04D1A0
:1058200040F20F31274804F0EBF8BB6A1B7F03F00E
:105830000103002B02D0FB6A0433FB62B86AFFF756
:10584000D1FE7862FB6A00937B6A7A68B968B86AAD
:1058500000F03AF838623B6A002B2DD0B86A00F0AD
:1058600067FB0246BB6ADB689A4225D3EFF31182DD
:105870004FF0050383F31188BFF36F8FBFF34F8F92
:10588000BA617B61BB69FB61BB6A1B69002B0DD0F0
:10589000BB6A18693B680193002300930023002230
:1058A000002102F07BFFBB6A00221A61FB693B61A9
:1058B0003B6983F3118800BF3B6A18463037BD4609
:1058C00080BD00BF88F7030080B586B000AFF860E8
:1058D000B9607A603B60FB685B687B61FB681B7F3B
:1058E00003F00103002B1AD07B683B613B697A68A7
:1058F0009A4204D040F24931144804F081F83A68E1
:105900003B6A9A4208D307F110017B690422F868C8
:1059100000F056FA786108E000237B6005E07A68C1
:105920003B68934228BF13467B607B68002B08D0FE
:105930007B697A68B968F86800F042FA0246FB6849
:105940005A607B6818461837BD4680BD88F703004B
:1059500080B58AB002AFF860B9607A607B80FB687E
:105960003B610023FB61BB68002B04D140F2723124
:105970003A4804F045F83B69002B04D140F27331FA
:10598000364804F03DF83B691B7F03F00103002B10
:1059900002D004237B6101E000237B617B88002B24
:1059A00031D0FDF7F5FC386900F0C2FAB861BA6988
:1059B0007B699A4211D80021002003F02DF93B6940
:1059C0001B69002B04D040F29631244804F018F8EB
:1059D00002F0F0F902463B691A61FDF703FDBA696E
:1059E0007B699A4213D87B88009300230022002110
:1059F000002002F04BFD3B6900221A61386900F07B
:105A000097FAB86103E0386900F092FAB861BA69B0
:105A10007B699A421DD9BB697A68B968386900F018
:105A2000BFF8F861FB69002B13D001F05DF9FB684A
:105A30005B69002B0BD0FB6858690023009300239F
:105A40000022002102F09EFDFB6800225A6101F055
:105A500059F9FB6918462037BD4680BD88F7030019
:105A600080B586B000AF78607B683B613B69002BF6
:105A700004D14FF47671164803F0C2FF3B691B7FD7
:105A800003F00103002B1CD0386900F051FAF860D4
:105A9000FB68042B0AD93B691B6807F10801042243
:105AA000386900F0EBF9BB687B610CE0FB68002B08
:105AB00004D040F2ED31064803F0A2FF00237B61E1
:105AC00001E000237B617B6918461837BD4680BD25
:105AD00088F7030080B58EB002AFF860B9607A60D5
