:1000000010E40020819800006D98000059980000CD
:100010004598000045980000459800000000000049
:10002000000000000000000000000000413100005E
:100030004598000000000000113300005933000013
:10004000459800004598000045980000459800003C
:10005000459800004598000045980000459800002C
:10006000459800004598000045980000459800001C
:10007000459800004598000045980000459800000C
:1000800045980000459800004598000045980000FC
:1000900045980000459800004598000045980000EC
:1000A00045980000459800004598000045980000DC
:1000B00045980000459800004598000045980000CC
:1000C00045980000459800004598000045980000BC
:1000D00045980000459800004598000045980000AC
:1000E0004598000000000000459800004598000079
:1000F00080B584B002AF00237B6014E07B68274AA0
:1001000098187A68264BA3FB0213D21A520813449C
:100110001B09DA00012300930F23002100F01AFFCE
:100120007B6815337B607B68A82BE7D91D4B19686A
:100130001B4BA3FB0123CA1A520813441A09134686
:100140005B001344DA00D21A8A1A13465B00134488
:100150005B001846134B1A68114BA3FB0213D21A0B
:10016000520813441B095A1C1346DB00991A0D4B05
:100170001A680B4BA3FB02C3D21A520813441B0983
:100180001944094B1B780122019200930123052297
:1001900001F0E2F800BF0837BD4680BD0C01002029
:1001A000876118864C040020B501002080B500AF9F
:1001B000064B1B7803F07F00044B5B7803F03F0194
:1001C00001230F2201F064F800BF80BD500400201D
:1001D00090B585B002AF012300930F2300220021C8
:1001E000374800F0B7FE374B1B78052B44D801A2E7
:1001F00052F823F00D0200001F020000310200003F
:100200004302000055020000670200000123009332
:100210000F230F2200212C4800F09CFE2CE001232C
:1002200000930F230F220021284800F093FE23E0C3
:10023000012300930F230F220021254800F08AFE9E
:100240001AE0012300930F230F220021214800F020
:1002500081FE11E0012300930F230F2200211E488D
:1002600000F078FE08E0012300930F230F22002105
:100270001A4800F06FFE00BF194B1B68194AA2FB19
:1002800003235C09164B1968164BA3FB01235A097B
:1002900013461B019B1A9B00CA1A38461346224676
:1002A00011490BF04BF93846012300930A233822F9
:1002B000002100F04FFE00BF0C37BD4690BD00BFCF
:1002C000C8F0030052040020D4F00300E8F003005B
:1002D000F4F0030004F1030010F1030018F103002F
:1002E00054040020898888882CF1030080B588B0E8
:1002F00002AF012300930F2300220021424800F0A7
:1003000029FE012300930F23082241213F4800F0DA
:1003100021FE012300930F231C2241213C4800F0C1
:1003200019FE012300930F2330224121394800F0A8
:1003300011FE012300930F2320220A21364800F0EA
:1003400009FE364B1A6807F11403354918460BF0BD
:10035000F5F807F11400012300930F231022412127
:1003600000F0F8FD2F4B1A6807F114032C491846CA
:100370000BF0E4F807F11400012300930F2324226B
:10038000412100F0E7FD284B1A6807F114032449C6
:1003900018460BF0D3F807F11400012300930F2344
:1003A0003822412100F0D6FD204B1A6813465B002D
:1003B00013445B0003F10A001D4B1B7801220192DC
:1003C000009301230522272100F0C6FF194B1B686B
:1003D000391D0022184604F0E5F90346012B0FD120
:1003E0007A6807F10803144918460BF0A7F807F1DB
:1003F0000800012300930F230C22002100F0AAFD26
:1004000000BF1837BD4680BD38F1030040F103003E
:100410004CF1030058F103000C0100205C040020A3
:1004200064F1030060040020640400204C040020F8
:10043000B50100205804002068F1030080B586B0A3
:1004400002AF294BD3F80032FB6013E0264AFB6869
:1004500012F8133003F07F00234AFB685B0013445B
:100460005B7803F03F010123082200F011FFFB68D5
:10047000013BFB60FB68002BE8D11B4B1B7803F0B2
:100480007F00194B5B7803F03F0101230B2200F042
:10049000FFFE154B93F805321846134B93F80632BE
:1004A000194601230F2200F0F3FE012301930123DB
:1004B000009328235A220C21132000F04DFF0A4BF1
:1004C000D3F800223B46094918460BF037F8384666
:1004D000012300930F230022002100F03BFD00BF09
:1004E0001037BD4680BD00BFB801002070F1030089
:1004F00080B588B004AF5B4B1B685A0813469B005D
:1005000013445B01584A9818032302930123019373
:100510001023009314230022222100F0FFFD534BEF
:100520001B684FF0FF31184604F04EF80346012BCC
:1005300016D14C4B1B6801334A4A1360494B1B6868
:100540004B4A1268B3FBF2F101FB02F29B1A454AD7
:100550001360464B186800230022002103F00EFDB3
:10056000404B1B68434AA2FB0323990A3D4B1A6880
:10057000404BA3FB02039B0A4FF4E16000FB03F333
:10058000D31A3D4AA2FB03231B0907F108000A46C0
:100590003A490AF0D3FF07F10800012300930F2323
:1005A0000022002100F0D6FC314B1B68314AA2FB2F
:1005B0000323990A2E4B1A682E4BA3FB02039B0AB6
:1005C0004FF4E16000FB03F3D31A2B4AA2FB032391
:1005D0001B0938460A4629490AF0B0FF384601236C
:1005E00000930F2300225F2100F0B4FC1D4B1B6819
:1005F000642203FB02F21E4B1B68B2FBF3F20123E1
:1006000001930F230093042336210E2000F0A4FE53
:10061000144B1B68642203FB02F2154B1B68B2FBF0
:10062000F3F303F10E000F4B1B6840F2DC5203FBA7
:1006300002F20F4B1B68B2FBF3F10F4BA3FB01233C
:10064000DA0813461B019B1ACA1AD3B2012201927F
:10065000009304230122362100F07EFE00BF1037F4
:10066000BD4680BD6804002088C000006C040020E6
:1006700000010020C5B3A291898888882CF103006D
:1006800080B584B002AF012300930F230022002124
:100690003E4800F05FFC3E4B1B78002B08D1012345
:1006A00000930F23082200213A4800F053FC0BE08E
:1006B000374B1B78012B07D1012300930F2308220E
:1006C0000021354800F046FC012300930F23082247
:1006D0000C21324800F03EFC2D4B1B78022B11D030
:1006E0002F4B1A6813465B0013445B0003F10C00A8
:1006F0002C4B1B78012201920093012305220F212C
:1007000000F02AFE012301930723009301236422B2
:1007100023210E2000F020FE0123019307230093E4
:10072000322301220A21402000F016FE184B1B78CC
:10073000022B27D10023FB7120E097F907300E33FD
:10074000184697F90730184A92F900201344174ABF
:1007500092F90020520093FBF2F101FB02F29B1A86
:10076000134AD3562333194601230F2200F090FD7C
:1007700097F90730DBB20133DBB2FB7197F9073031
:10078000632BDADD00BF0837BD4680BD7CF1030076
:100790007104002088F103008CF103000C0100209B
:1007A0004C040020B5010020700400209E040020AD
:1007B0007404002080B586B000AF78601E233B61D2
:1007C00006F0BEFA0346FB600123FB7507F10C033C
:1007D0003969184605F044FD174B1B684FF0FF318F
:1007E000184603F0F1FE0346012BEFD1FB7D002BF1
:1007F0000DD0124B1B780C2B02D10023FB7513E09C
:100800000E4B1B780133DAB20C4B1A700CE00B4B19
:100810001B78002B02D10123FB7505E0074B1B78E9
:10082000013BDAB2054B1A70034B18680023002213
:10083000002103F0A3FBC9E744040020B501002018
:1008400080B582B002AF064B0193022300930023D0
:100850003C220449044805F011FB00BFBD4680BDA1
:100860003C04002090F10300B507000080B500AF04
:10087000034B1B68184605F063FC00BF80BD00BF3A
:100880003C04002080B584B000AF78604FF47A73E8
:10089000FB6006F055FA0346BB6007F10803F968F0
:1008A000184605F0DDFC0B4B1B684FF0FF31184676
:1008B00003F08AFE0346012BEFD1074B1B6801337F
:1008C000054A1360034B186800230022002103F03F
:1008D00055FBE2E74404002054040020000000001F
:1008E000B0B582B000AFC7E90001D7E90023D7E96E
:1008F00000010AF027FB02460B4610461946D7E9CD
:1009000000230AF01FFB02460B46104619464FF023
:1009100000026D4B0AF040FC02460B46D7E900018D
:100920000AF058F902460B4614461D46D7E9002343
:10093000D7E900010AF006FB02460B4610461946AD
:10094000D7E900230AF0FEFA02460B461046194684
:10095000D7E900230AF0F6FA02460B46104619467C
:10096000D7E900230AF0EEFA02460B461046194674
:100970004FF00002554B0AF00FFC02460B46204692
:1009800029460AF029F902460B4614461D46D7E9C6
:100990000023D7E900010AF0D5FA02460B461046BB
:1009A0001946D7E900230AF0CDFA02460B46104655
:1009B0001946D7E900230AF0C5FA02460B4610464D
:1009C0001946D7E900230AF0BDFA02460B46104645
:1009D0001946D7E900230AF0B5FA02460B4610463D
:1009E0001946D7E900230AF0ADFA02460B46104635
:1009F000194631A3D3E900230AF0CEFB02460B4689
:100A0000204629460AF0E6F802460B4614461D46E3
:100A1000D7E90023D7E900010AF094FA02460B4611
:100A200010461946D7E900230AF08CFA02460B4615
:100A300010461946D7E900230AF084FA02460B460D
:100A400010461946D7E900230AF07CFA02460B4605
:100A500010461946D7E900230AF074FA02460B46FD
:100A600010461946D7E900230AF06CFA02460B46F5
:100A700010461946D7E900230AF064FA02460B46ED
:100A800010461946D7E900230AF05CFA02460B46E5
:100A9000104619460AA3D3E900230AF07DFB02465B
:100AA0000B46204629460AF097F802460B461046A8
:100AB00019460837BD46B0BD0000000000B0B34085
:100AC00000000000002616410000184000005E40B3
:100AD0002DE9B04F90B000AF78604223BB63A84BC4
:100AE0001B6807F110014FF0FF32184603F09CFC21
:100AF0000346012B02D1A34B01221A70A04B1B68A5
:100B000007F10C014FF0FF32184603F08DFC03464D
:100B1000012B02D19B4B02221A703B6918460AF046
:100B2000A7F902460B46C7E90C23FB6818460AF0F2
:100B30009FF902460B46C7E90A230023FB633C6B7F
:100B40007B6B23F0004522462B464FF000008E4978
:100B50000AF022FB02460B46104619460AF08CFCAE
:100B600003465AB2894B1A70A9E0F86B0AF080F973
:100B700004460D46854B93F9003018460AF078F983
:100B800002460B46204629460AF006FB02460B4663
:100B90001046194678A3D3E900230AF0D3F9024698
:100BA0000B46C7E90823D7E90801FFF799FED7E903
:100BB0000A230AF0C7F902460B46104619464FF0C1
:100BC0000002734B0AF0BEF902460B46C7E9062342
:100BD0004FF000024FF00003D7E906010AF042FC93
:100BE0000346002B35D0D7E906010AF045FC034641
:100BF0005BB218460AF03CF902460B46D7E90601FB
:100C000009F0E8FF02460B46904623F000494FF0FA
:100C10000002604B404649460AF01AFC0346002B8E
:100C200008D0D7E906010AF027FC03465BB2DB4394
:100C30005BB209E0D7E906010AF01EFC03465BB28D
:100C4000DBB25B42DBB25BB25349FA6B0A4413700E
:100C500032E0D7E906010AF00FFC03465BB2184602
:100C60000AF006F902460B46D7E9060109F0B2FF81
:100C700002460B46924623F0004B4FF00002454BD4
:100C8000504659460AF0E4FB0346002B0AD0D7E948
:100C900006010AF0F1FB03465BB2DBB2013BDBB2BB
:100CA0005BB205E0D7E906010AF0E6FB03465BB25A
:100CB0003949FA6B0A441370FB6B0133FB63334B06
:100CC00093F900301A46FB6B9342FFF64EAF0023B8
:100CD000FB6313E0304AFB6B134493F90030DBB243
:100CE0005B42DAB2294B93F900301946FB6B0B4497
:100CF00051B2294AD154FB6B0133FB63234B93F967
:100D000000301A46FB6B9342E4DB06F019F8034609
:100D10007B6107F11403B96B184605F0A1FA1F4B6C
:100D20001B684FF0FF31184603F04EFC0346012BC1
:100D3000EFD11B4B93F90030DBB20133DBB25AB277
:100D4000174B1A70164B93F900301A460F4B93F954
:100D500000305B0092FBF3F101FB03F3D31A5AB2AC
:100D60000F4B1A700D4B186800230022002103F06E
:100D700005F9CEE7AFF300806E861BF0F92109403C
:100D8000A004002071040020000035409E040020D3
:100D9000000014400000E03F7404002044040020E0
:100DA0007004002080B582B002AF0D4B00221A7093
:100DB0000C4B00221A7000220421032002F06EFF67
:100DC0000346094A1360094B019302230093002351
:100DD00064220749074805F051F800BFBD4680BDB1
:100DE0007004002071040020A004002040040020B2
:100DF0009CF10300D10A000080B500AF084B00222F
:100E00001A70084B00221A70074B1B68184603F033
:100E1000CFFE064B1B68184605F092F900BF80BD57
:100E20007004002071040020A00400204004002071
:100E300080B584B000AF78603960124B1B78DBB2AC
:100E4000002B1AD0002280210F4808F00BFF10E081
:100E50007B685A1C7A601B7819460C4809F002F925
:100E600007F10C031946094809F00CF93B68013BEE
:100E70003B603B68002BEBD100E000BF1037BD4664
:100E800080BD00BFA414002000600040008000402E
:100E900080B584B000AF78603960124B1B78DBB24C
:100EA000002B1AD0802280210F4808F0DBFE10E0D2
:100EB0007B685A1C7A601B7819460C4809F0D2F8F6
:100EC00007F10C031946094809F0DCF83B68013BBF
:100ED0003B603B68002BEBD100E000BF1037BD4604
:100EE00080BD00BFA41400200060004000800040CE
:100EF00080B582B000AF03211248FFF799FF0321AC
:100F00001148FFF795FF02211048FFF791FF0023DA
:100F10003B600FE000237B6006E008210C48FFF7F0
:100F2000B7FF7B6808337B607B684F2BF5D93B6844
:100F300001333B603B683F2BECD900BF00BF083753
:100F4000BD4680BDDCF30300E0F30300A4F1030021
:100F5000A814002080B588B000AFF860B9607A604E
:100F6000FB7097F82830002B40F0C780684B1522A3
:100F70001A70BB685B08DAB2654B5A70644B3F224B
:100F80009A7003216248FFF753FF614B75221A7074
:100F90007B68DAB25E4B5A707B68DBB20733DAB239
:100FA0005B4B9A7003215A48FFF742FF02215948D0
:100FB000FFF73EFFA1E0FB6893F90030FB75FB7D76
:100FC00003F07F03FB75FB7D1F2B02D82023FB75ED
:100FD00002E0FB7D203BFB750023FB6186E00023E4
:100FE000BB6149E04A4ABB69134400221A70FA7D8A
:100FF000FB695900484813469B00134403440B44C3
:101000001B781A46BB6942FA03F303F00103002B75
:1010100007D0FB781B01D9B23D4ABB6913440A468D
:101020001A70FB69012B24D8FA7DFB695B00591CFF
:10103000394813469B00134403440B441B781A465B
:10104000BB6942FA03F303F00103002B11D0304ACD
:10105000BB6913441B785AB297F9033003F00F03AE
:101060005BB213435BB2D9B2294ABB6913440A4647
:101070001A70BB690133BB61BB69072BB2D9BB686E
:101080007D2B41D897F82830002B04D10821204827
:10109000FFF7FEFE24E000233B611EE07A683B6917
:1010A000D1181B4A3B6913441B781B09DAB2012390
:1010B000B86800F0EDF8BB68581C7A683B69D11835
:1010C000134A3B6913441B7803F00F03DAB2012380
:1010D00000F0DEF83B6901333B613B69072BDDD94A
:1010E000BB680233BB60FB690133FB61FB69022B08
:1010F0007FF675AFFB680133FB60FB6893F9003046
:10110000002B7FF458AF00E000BF2037BD4680BD04
:10111000B0140020A4F10300ACF1030080B588B046
:1011200000AFF860B9607A603B6097F82C30002B14
:101130002CD1554B15221A70BB685B08DAB2524BA2
:101140005A70BA683B681344023B5B08DAB24E4BF4
:101150009A7003214C48FFF76BFE4B4B75221A70B7
:101160007B68DAB2484B5A707B68DAB2BB6ADBB292
:101170001344DBB2013BDAB2434B9A70032142487D
:10118000FFF756FE02214148FFF752FEBB6A7B6122
:1011900071E097F82C30002B5FD00023FB6157E003
:1011A000FB695A087969BB6ACB1A3968490801FB9F
:1011B00003F31344FA6813441B78FB76FB6903F0CE
:1011C0000103002B03D1FB7E1B09FB7603E0FB7EB2
:1011D00003F00F03FB7697F83030013BDBB2BB76B0
:1011E0002FE097F83030013BDBB27B761FE097F8B9
:1011F0003030FA6903FB02F2BB681A4497F91A30DF
:10120000D0187A69BB6AD31A97F8302003FB02F230
:101210007B681A4497F91930D118FA7E012300F03F
:1012200037F897F91930DBB2013BDBB27B7697F9DF
:101230001930002BDBDA97F91A30DBB2013BDBB255
:10124000BB7697F91A30002BCBDAFB690133FB61CF
:10125000FA693B689A42A3D30AE03B685B081946E7
:10126000F868FFF715FE3B685B08FA681344FB60FB
:10127000BB6A013BBB62BB6A002B8AD100BF00BFC7
:101280002037BD4680BD00BFB8140020A8F1030080
:1012900080B584B000AFF860B96011461A460B46BD
:1012A000FB711346BB71BB79002B1BD0BB689A0145
:1012B000FB685B081A4426498A5C51B2FA6802F05E
:1012C0000102002A03D1FA79120152B201E097F922
:1012D00007200A4351B2BA6892011344C9B21C4AAA
:1012E000D15431E01B4B15221A70FB685B08DAB24F
:1012F000184B5A70174B3F229A7003211548FFF77D
:1013000097FD144B75221A70BB68DAB2114B5A70F4
:10131000BB68DBB20733DAB20E4B9A7003210D487B
:10132000FFF786FD0B4AFB791370FB6803F001039E
:10133000002B05D1074B1B781B01DAB2054B1A7045
:1013400001210448FFF7A4FD00BF1037BD4680BD52
:10135000A4040020C014002080B588B000AFF8605D
:10136000B9607A603B6097F82C30002B1ED07B6808
:101370007B6117E0FA687B681344581EBA683B68C3
:101380001344591E97F828200123FFF781FF7B683B
:10139000013B7B607B68002BECD13B68013B3B60F1
:1013A0007B697B603B68002BF4D196E04D4B1522A6
:1013B0001A70FB685B08DAB24A4B5A70FA687B68AD
:1013C0001344023B5B08DAB2FB68D9B27B68DBB23C
:1013D0000B44DBB203F00103DBB21344DAB2414B3E
:1013E0009A7003213F48FFF723FD3E4B75221A7088
:1013F000BB68DAB23B4B5A70BB68DAB23B68DBB20F
:101400001344DBB2013BDAB2364B9A700321354804
:10141000FFF70EFD02213448FFF70AFD97F8283048
:101420001B015AB297F9283013435BB2DAB22D4B45
:101430001A7097F828301B01DAB22A4B5A70294AE1
:1014400097F8283093707B685A087B6803F0010393
:101450001344FA6802F00102002A08D0F9687A6899
:101460000A4402F00102002A01D0012200E0002219
:101470001344BB612EE0BB69FB6125E0FB69012BD6
:101480000CD1FA687B68134403F00103002B05D0EC
:10149000164B01211846FFF7FBFC12E0FA69BB6905
:1014A0009A420AD1FB6803F00103002B05D0104BD0
:1014B00001211846FFF7ECFC03E001210948FFF782
:1014C000E7FCFB69013BFB61FB69002BD6D13B6864
:1014D000013B3B603B68002BCDD100BF2037BD46B0
:1014E00080BD00BFC8140020A8F10300C91400206B
:1014F000CA14002080B586B002AF7860174808F0A3
:1015000099FD08F0D7FF0146082301937B680093FB
:1015100000230122114808F063FD08214FF040200C
:1015200008F022FC0A23042208214FF0402008F092
:10153000A7FA0A4808F078FD00BF07F10C03194626
:10154000064808F0A9FD0346002BF6D1044B012202
:101550001A7000BF1037BD4680BD00BF008000403C
:10156000A414002080B582B000AF134B00221A7083
:1015700000BF3B1D1946114808F08EFD0346002BA5
:10158000F7D10E4808F056FD012208214FF0402007
:1015900008F0F4F90A23042208214FF0402008F053
:1015A0006FFA082208214FF0402008F05BFB00BFD3
:1015B0000837BD4680BD00BFA41400200080004055
:1015C00080B584B000AF78602D4808F0EDFD2D485F
:1015D00008F0EAFD2C4808F0E7FD2C4808F0E4FD8F
:1015E0003C214FF0402008F0BFFB0A2304220421D5
:1015F0004FF0402008F044FA0A23042208214FF05B
:10160000402008F03DFA0A23042220214FF0402018
:1016100008F036FA012280211D4808F0AFF90823AE
:10162000042280211A4808F02BFA802280211848D1
:1016300008F018FB7868FFF75DFFFFF759FC0023FF
:10164000FB6015E0FB680133124A1A441149FB683C
:101650000B441B78013B19461046FFF7E9FB0D4A86
:10166000FB6813441B781A46FB6813440133FB6084
:10167000FB684D2BE6D900BF00BF1037BD4680BDCB
:1016800010000010010000200200002004000020D3
:10169000006000408CF3030080B582B000AF0023EF
:1016A0007B6015E07B6801330D4A1A440C497B6866
:1016B0000B441B78013B19461046FFF7B9FB084A5B
:1016C0007B6813441B781A467B68134401337B60A4
:1016D0007B684D2BE6D900BF00BF0837BD4680BDF3
:1016E0008CF3030080B500AF03210248FFF7A0FB95
:1016F00000BF80BDE4F3030080B586B004AF0123D2
:1017000002930023019340230093802300220021B1
:101710000C48FFF703FD40F6FF737B6007E0094AC2
:101720007B68134400221A707B68013B7B607B68F6
:10173000002BF4D1034B00221A7000BF0837BD46BE
:1017400080BD00BFA404002080B500AF02E01348B4
:1017500009F09AF8114809F07FF80346002BF6D1FA
:101760001B210E4809F0A2F85B210C4809F09EF8F5
:1017700032210A4809F09AF84A21084809F096F8F7
:101780001B21064809F092F85B21044809F08EF805
:101790004821024809F08AF800BF80BD00C000401F
:1017A00080B582B000AF0346FB710D4B1B684FF054
:1017B000FF31184602F008FF0346012B0BD1094BFD
:1017C0001B680949FA79CA54054B1868002300229E
:1017D000002102F0D3FB00BF0837BD4680BD00BF2B
:1017E000440400204C0400200C01002080B582B08D
:1017F00000AFC0E0674809F047F803465AB2664BAD
:101800001A70654B93F900301B2B75D1012000F045
:10181000CFF80346FB71FB79062B2DD15F4B1B687C
:101820004FF0FF31184602F0CFFE0346012B40F087
:10183000AA8009E05A4B1B685A4A2021D154584BC0
:101840001B68013B564A1360554B1B68002BF1D1B6
:10185000534B1B68534A2021D154FFF775FFFFF704
:1018600005F8514B00221A704C4B186800230022D7
:10187000002102F083FB86E0FB79032B32D801A222
:1018800052F823F0BD180000D1180000A91800007C
:1018900095180000424B1B68002B25D0404B1B685D
:1018A000013B3F4A13601FE03D4B1B68A62B1DD830
:1018B0003B4B1B6801333A4A136017E0384B1B68F7
:1018C000142B15D9364B1B68153B354A13600FE0B6
:1018D000334B1B68932B0DD8314B1B681533304AA3
:1018E000136007E000BF4EE000BF4CE000BF4AE0DD
:1018F00000BF48E000BF46E0294B1B68A82B07D07B
:10190000254B93F90030DBB21946224808F0CEFF90
:10191000214B93F90030082B1BD1214B1B68002B66
:1019200033D01D4B20221A701B4B93F90030DBB2D1
:101930001946184808F0BAFF0821164808F0B6FF03
:10194000174B1B68013B164A13600020FFF728FF66
:1019500011E0134B1B68A82B0DD0144B0C221A70EE
:101960000D4B93F900301846FFF71AFF0C4B1B681C
:1019700001330B4A1360074808F06EFF0346002B43
:101980007FF438AF02E000BF00E000BF0837BD467B
:1019900080BD00BF00C00040D014002044040020DF
:1019A0004C0400200C01002048040020B501002058
:1019B00080B584B000AF0346FB71FB79FB60002368
:1019C000FB724DE0314808F05FFF03465AB2304BDE
:1019D0001A702F4B93F900300D2B01D1042350E0E6
:1019E00097F90B30002B3BD1FB68022B17D0FB681B
:1019F000022B32DCFB68002B03D0FB68012B07D0E5
:101A00002BE0234B93F900301B2B23D0062338E027
:101A10001F4B93F900305B2B1ED0062331E01C4B8B
:101A200093F90030413B032B12D801A252F823F066
:101A3000411A0000451A0000491A00004D1A000022
:101A400000231EE001231CE002231AE0032318E018
:101A5000062316E000BF00E000BFFB680133FB6017
:101A60000A4808F0F9FE0346002B02D0FB68022B5F
:101A7000A8DD074B93F900301B2B01D1052300E0B3
:101A8000062318461037BD4680BD00BF00C0004089
:101A9000D114002080B582B000AF0020FFF788FF8E
:101AA0000346FB71FB79052B47D801A252F823F0BE
:101AB000C91A0000D71A0000E51A0000F31A000046
:101AC0003B1B0000011B00001F4B5B78013BDAB29F
:101AD0001D4B5A7034E01C4B5B780133DAB21A4B61
:101AE0005A702DE0184B1B780133DAB2164B1A707E
:101AF00026E0154B1B78013BDAB2134B1A701FE03E
:101B0000124B00221A70104B00221A700E4B00224A
:101B10005A700F4B1B684FF0FF31184602F054FD0E
:101B20000346012B0BD1FFF70FFE094B186800236A
:101B30000022002102F022FA01E000BF00E000BF15
:101B400000BF0837BD4680BD500400204804002077
:101B50004404002080B582B000AFB9E0634808F0CB
:101B600093FE03465AB2624B1A70614B93F90030F0
:101B70000D2B11D15F4B1B68002B00F0A9805E4834
:101B800009F0A2FC03467B605C4B1868391D0023FA
:101B9000002202F0F3F99BE0554B93F900301B2B28
:101BA0002FD1574B1B684FF0FF31184602F00CFD48
:101BB0000346012B40F0948009E04E4B1B684E4ACF
:101BC0002021D1544B4B1B68013B4A4A1360494BBF
:101BD0001B68002BF1D1474B1B68474A2021D15489
:101BE00000F0C6FDFFF7B0FDFEF740FE454B0022BA
:101BF0001A70434B186800230022002102F0BEF93E
:101C00006EE03C4B1B68022B11D8394B93F9003026
:101C100001333D4A134493F90030DBB203F004036F
:101C2000002B0DD1324B93F90030082B08D0314BEB
:101C30001B68032B0CD12E4B93F90030082B07D1D6
:101C40002B4B93F90030DBB21946284808F02EFEE2
:101C5000274B93F90030082B1BD1264B1B68002B18
:101C600040D0234B20221A70214B93F90030DBB275
:101C700019461E4808F01AFE08211C4808F016FEF6
:101C80001C4B1B68013B1B4A13600020FFF788FDBB
:101C90001EE0184B1B68022B1AD8154B93F9003025
:101CA0000133194A134493F90030DBB203F0040303
:101CB000002B0DD0154B0C221A700D4B93F90030F0
:101CC0001846FFF76DFD0B4B1B680133094A136083
:101CD000064808F0C1FD0346002B7FF43FAF02E049
:101CE00000BF00E000BF0837BD4680BD00C0004017
:101CF000D21400204C0400200C01002058040020C5
:101D0000440400204804002018F70300B501002017
:101D100080B582B000AF0020FFF74AFE0346BB71DA
:101D20000023FB71BB79052B23D801A252F823F0C5
:101D3000491D0000571D0000731D0000731D0000A9
:101D4000651D00006B1D0000604B1B78013BDAB283
:101D50005E4B1A700EE05D4B1B780133DAB25B4BC1
:101D60001A7007E00123FB7104E0594B00221A703E
:101D700000E000BF554B1B78564A92F9002093FBB8
:101D8000F2F101FB02F29B1ADAB2504B1A7097F98A
:101D90000730002B00F089804C4B1B780133DAB2FE
:101DA0004B4B1A704A4B1B78013B052B7FD801A285
:101DB00052F823F0211E0000AF1E0000CD1D0000D0
:101DC000F91D0000491E00007F1E0000424B1B68E9
:101DD0004FF0FF31184602F0F7FB0346012B68D1A4
:101DE00000F07AFCFEF72CFD3B4B18680023002224
:101DF000002102F0C3F85CE0374B1B684FF0FF3165
:101E0000184602F0E1FB0346012B54D100F066FABC
:101E1000314B186800230022002102F0AFF84AE09D
:101E20002D4B1B684FF0FF31184602F0CDFB0346E7
:101E3000012B42D1FEF704FD274B18680023002236
:101E4000002102F09BF838E0234B1B684FF0FF3174
:101E5000184602F0B9FB0346012B30D11F4B00227C
:101E60001A60012001F0A4FF03461D4A13601A4BBB
:101E7000186800230022002102F080F81FE0164BB2
:101E80001B684FF0FF31184602F09EFB0346012B02
:101E900017D1FEF7D5FCFEF785FF0F4B186800231E
:101EA0000022002102F06AF80BE000BF0AE000BF48
:101EB00008E000BF06E000BF04E000BF02E000BF92
:101EC00000E000BF00BF0837BD4680BD52040020BF
:101ED00048040020B60100204404002068040020CB
:101EE0006C04002080B582B000AF0020FFF760FDD9
:101EF0000346FB71FB79052B4DD801A252F823F064
:101F0000191F00002D1F0000411F0000551F000079
:101F1000971F0000691F0000264B93F80432012B25
:101F20003BD0244B002283F8042236E0214B93F867
:101F30000432002B33D01F4B012283F804222EE001
:101F40001C4B93F80432032B2BD01A4B022283F83C
:101F5000042226E0174B93F80432022B23D0154BB2
:101F6000032283F804221EE0134B1B684FF0FF315D
:101F7000184602F029FB0346012B16D100F036FB70
:101F80000E4B00221A700C4B18680023002200210F
:101F900001F0F4FF09E000BF08E000BF06E000BF69
:101FA00004E000BF02E000BF00E000BF00BF083750
:101FB000BD4680BDB8010020440400204804002034
:101FC00080B582B000AF0020FFF7F2FC0346FB7142
:101FD000FB79052B40D0052B5BDC022B02D0032BB9
:101FE0001FD056E0304B1B684FF0FF31184602F00F
:101FF000EBFA0346012B4ED12C4B1B68A3F11E02BA
:102000002B4B1B689A4204D9294B1B681E33284A64
:102010001360254B186800230022002101F0AEFF59
:1020200039E0214B1B684FF0FF31184602F0CCFA23
:102030000346012B31D11E4B1B681D2B04D91C4BB1
:102040001B681E3B1A4A1360174B186800230022B6
:10205000002101F093FF20E0164B1B684FF0FF3189
:10206000184602F0B1FA0346012B18D1124B002298
:102070001A700F4B00221A600B4B1B68184602F0B7
:1020800097FD0C4B186800230022002101F076FF19
:1020900005E000BF04E000BF02E000BF00E000BFB9
:1020A00000BF0837BD4680BD6C040020C00300207F
:1020B00068040020440400204804002080B582B059
:1020C00000AFEBE07C4808F0DFFB03465AB27B4BE5
:1020D0001A707A4B93F900300D2B39D1784B1B686D
:1020E000002B00F0DB80774809F0EEF903467B60B7
:1020F000754B1868391D0023002201F03FFF734B18
:102100001B684FF0FF31184602F05EFA0346012BC0
:1021100040F0C48009E06A4B1B686A4A2021D15410
:10212000674B1B68013B664A1360654B1B68002BBD
:10213000F1D1634B1B68634A2021D154FFF704FBA4
:10214000624B186800230022002101F017FFA5E070
:102150005A4B93F900301B2B2FD15C4B1B684FF06F
:10216000FF31184602F030FA0346012B40F09E8002
:1021700009E0534B1B68534A2021D154504B1B6834
:10218000013B4F4A13604E4B1B68002BF1D14C4B67
:102190001B684C4A2021D154FEF72EFEFFF7D4FADB
:1021A000FEF764FB4A4B00221A70484B1868002364
:1021B0000022002101F0E2FE78E0414B1B68022B77
:1021C00016D83E4B93F900300133424A134493F939
:1021D0000030DBB203F00403002B12D1374B93F92C
:1021E0000030082B0DD0354B93F900302D2B08D043
:1021F000334B1B68032B0CD1304B93F90030082B69
:1022000007D12E4B93F90030DBB219462A4808F06B
:102210004DFB2A4B93F90030082B1BD1284B1B6830
:10222000002B45D0254B20221A70244B93F9003007
:10223000DBB21946204808F039FB08211E4808F097
:1022400035FB1F4B1B68013B1D4A13600020FFF745
:10225000A7FA23E01A4B1B68022B1FD8174B93F9E0
:10226000003001331B4A134493F90030DBB203F012
:102270000403002B04D1114B93F900302D2B0DD109
:10228000154B0C221A700D4B93F900301846FFF7CE
:1022900087FA0B4B1B680133094A1360064808F0A4
:1022A000DBFA0346002B7FF40DAF02E000BF00E035
:1022B00000BF0837BD4680BD00C00040D3140020D9
:1022C0004C0400200C010020A00400204404002045
:1022D0004804002018F70300B501002080B582B043
:1022E00002AF1F4B40221A701D4B20225A701C4B0C
:1022F0000022C3F800221A4B022283F8042204F0C1
:102300001FFD024653081749A1FB03135B095A211D
:1023100001FB03F3D31ADBB21333DAB2104B83F8A9
:10232000052204F00DFD01460F4BA3FB01235A09C2
:1023300013469B001344DB00CA1AD3B20C33DAB243
:10234000074B83F80622094B0193022300930023D5
:102350003C220749074803F091FD00BFBD4680BD00
:10236000B8010020B7600BB6CDCCCCCCD414002083
:10237000E8F303007923000080B586B000AF7860F1
:1023800032233B6104F0DCFC0346BB6007F1080329
:102390003969184603F064FF8F4B1B78FB738E4B33
:1023A0005B78BB738C4B1A788B4B83F800218A4B7C
:1023B0005A78894B83F80121874B93F80432032B19
:1023C00026D801A252F823F0D9230000E723000009
:1023D000F5230000032400007F4B5B78013BDAB259
:1023E0007D4B5A7014E07C4B5B780133DAB27A4B48
:1023F0005A700DE0784B1B780133DAB2764B1A70C5
:1024000006E0754B1B78013BDAB2734B1A7000BFC4
:10241000714B1B78714AA2FB0312991A49080A44AE
:1024200092096D2101FB02F29B1ADAB26A4B1A7013
:10243000694B5B786A4AA2FB03121209342101FB43
:1024400002F29B1ADAB2644B5A70634B1B78002B72
:1024500008D1614B93F80432022B03D15E4B132257
:102460001A700BE05C4B1B78122B07D15A4B93F878
:102470000432032B02D1584B6C221A70564B5B78F6
:10248000002B07D1544B93F80432012B02D1524B4D
:102490000C225A70504B5B780B2B07D14E4B93F8A4
:1024A0000432002B02D14C4B33225A704A4B1A781B
:1024B000494B93F805329A423FD1474B5A78464BE5
:1024C00093F806329A4238D1434BD3F800320133A5
:1024D000414AC2F80032404BD3F800323E49FA7B01
:1024E00001F813203C4BD3F800323B49BA7B01F88A
:1024F000132004F025FC024653083A49A1FB0313BC
:102500005B095A2101FB03F3D31ADBB21333DAB2AE
:10251000314B83F8052204F013FC0146324BA3FB38
:1025200001235A0913469B001344DB00CA1AD3B295
:102530000C33DAB2284B83F8062201237B6143E097
:10254000254A7B6912F81310234A7B69803302F80D
:102550001310214A7B695B00134459781E4A7B693A
:1025600080335B0013440A465A707B69013B1A4A68
:10257000803312F81310184A7B6902F813107B6934
:10258000013B154A80335B0013445978124A7B693A
:102590005B0013440A465A700F4A7B6912F81320F5
:1025A0000D4B1B789A420CD10B4A7B695B0013449C
:1025B0005A78094B5B789A4203D1074B0022C3F843
:1025C00000227B6901337B61034BD3F800327A69C7
:1025D0009A42B5D9DAE600BFB8010020D9B49F2CE1
:1025E0004FECC44EB7600BB6CDCCCCCC80B500AFB1
:1025F000034B1B68184603F0A3FD00BF80BD00BF5E
:10260000D414002080B58AB000AF78604FF47A739C
:102610003B6207F11003184606F0C8FA07F11003F1
:102620002649184608F0AAFF0346002B02D1244B86
:102630007B6216E007F110032249184608F09EFF5E
:102640000346002B02D1204B7B620AE007F1100306
:102650001E49184608F092FF0346002B01D11C4B7F
:102660007B6204F06DFB0346FB611A4B1B6807F1AC
:102670000C014FF0FF32184601F0D6FE0346012B45
:1026800016D1FB68002B13D0FB681A467B6A1A60D0
:1026900004F056FB0346FB610AE007F11C03396AAC
:1026A000184603F0DDFD7B6A1B685A1E7B6A1A60C0
:1026B0007B6A1B68002BF0D1D7E700BFF0F3030063
:1026C0005C040020F8F303006004002000F4030021
:1026D000640400205804002080B582B002AF194B7A
:1026E00000221A60184B00221A60184B00221A6050
:1026F000002204210A2001F0D1FA0346144A136093
:10270000144B01930223009300233C2212491348E7
:1027100003F0B4FB124B01930223009300233C22ED
:1027200010490E4803F0AAFB0F4B019302230093BC
:1027300000233C220D49094803F0A0FB00BFBD4621
:1027400080BD00BF5C040020600400206404002001
:1027500058040020D8140020F0F3030005260000E0
:10276000DC140020F8F30300E014002000F4030060
:1027700080B500AF0A4B1B68184603F0E1FC094B1B
:102780001B68184603F0DCFC074B1B68184603F077
:10279000D7FC064B1B68184602F00AFA00BF80BD42
:1027A000D8140020DC140020E0140020580400207D
:1027B00080B58CB000AFF860B9607A603B600023F0
:1027C000BB61BB68002B02D0BB68013BBB60002330
:1027D000BB61C3E10023FB6202E0FB6A0133FB62E1
:1027E0007A68FB6A134493F90030252B06D07A6887
:1027F000FB6A134493F90030002BEED1FA6ABB68F0
:102800009A420BD9BA687968F86808F0D1FEFA687C
:10281000BB681344FB600023BB600CE0FA6A796874
:10282000F86808F0C5FEFA68FB6A1344FB60BA68F2
:10283000FB6AD31ABB60BA69FB6A1344BB617A684E
:10284000FB6A13447B607B6893F90030252B40F0D2
:1028500084817B6801337B6000237B622023FB77CC
:102860007B685A1C7A6093F90030782B00F356810C
:10287000582B0ADA252B00F04081252BC0F24E811F
:10288000303B092B00F24A8148E0583B202B00F2F4
:10289000458101A252F823F02D2A00001D2B0000D3
:1028A0001D2B00001D2B00001D2B00001D2B000008
:1028B0001D2B00001D2B00001D2B00001D2B0000F8
:1028C0001D2B0000532900007D2900001D2B000056
:1028D0001D2B00001D2B00001D2B00001D2B0000D8
:1028E0001D2B00001D2B00001D2B00001D2B0000C8
:1028F0001D2B00001D2B00001D2B00001D2B0000B8
:102900001D2B0000B52900001D2B00001D2A000012
:102910001D2B00001D2B00002D2A00007B68013BB1
:1029200093F90030302B04D17B6A002B01D1302386
:10293000FB777A6A13469B0013445B007B627B68DB
:10294000013B93F900301A467B6A1344303B7B62AB
:1029500086E73B681A1D3A601B68BB62BB68002BA8
:1029600008D0FB685A1CFA60BA6A52B21A70BB6887
:10297000013BBB60BB690133BB61EFE03B681A1DE3
:102980003A601B68BB62BB6A002B10DABB6A5B4211
:10299000BB62BB68002B07D0FB685A1CFA602D2273
:1029A0001A70BB68013BBB60BB690133BB610A2382
:1029B0003B6242E03B681A1D3A601B687B61002362
:1029C000FB6202E0FB6A0133FB627A69FB6A134433
:1029D00093F90030002BF5D1FA6ABB689A420BD903
:1029E000BA687969F86808F0E3FDFA68BB681344CF
:1029F000FB600023BB600CE0FA6A7969F86808F0B4
:102A0000D7FDFA68FB6A1344FB60BA68FB6AD31A05
:102A1000BB60BA69FB6A1344BB619FE03B681A1D47
:102A20003A601B68BB620A233B6206E03B681A1DE2
:102A30003A601B68BB6210233B620123FB6207E024
:102A4000FB6A3A6A02FB03F3FB627B6A013B7B622F
:102A5000FB6A3A6A02FB03F3BA6A9A4209D3FB6A39
:102A60003A6A03FB02F23B6AB2FBF3F3FA6A9A4258
:102A7000E6D07B6A012B3CD97B6A0F2B39D87B6A65
:102A8000013B7B6210E0BB68002B07D0FB685A1C3F
:102A9000FA60FA7F1A70BB68013BBB60BB69013307
:102AA000BB617B6A013B7B627B6A002BEBD120E040
:102AB000BB68002B15D03048BA6AFB6AB2FBF3F34F
:102AC0003A6AB3FBF2F2396A01FB02F29B1AC218AE
:102AD000FB68591CF96092F900201A70BB68013B31
:102AE000BB60BB690133BB61FA6A3B6AB2FBF3F3BB
:102AF000FB62FB6A002BDBD130E0BB68002B09D006
:102B0000FB685A1CFA607A6812F9012C1A70BB68CB
:102B1000013BBB60BB690133BB611FE0BB68042B99
:102B20000CD9FB68154A1068186012791A71FB6895
:102B30000533FB60BB68053BBB600AE0BA680F4920
:102B4000F86808F035FDFA68BB681344FB600023A1
:102B5000BB60BB690533BB6100E000BF7B6893F9D4
:102B60000030002B7FF436AEFB6800221A70BB6980
:102B700018463037BD4680BD08F403001CF403003E
:102B80000EB480B585B000AF786007F12003BB605C
:102B9000BB68FA694FF6FF717868FFF709FEF860C5
:102BA000FB6818461437BD46BDE8804003B0704747
:102BB0000CB480B584B000AF7860396007F11C03B5
:102BC000BB60BB68BA6939687868FFF7F1FDF860E7
:102BD000FB6818461037BD46BDE8804002B070471C
:102BE00080B588B000AF786000237B6103F0A2FF5E
:102BF0004C4B1B68002B01D100F03CF97B68002B8B
:102C000012D008227B6803F00703D31A08333B6114
:102C10003B69DB437A689A4204D87A683B6913447B
:102C20007B6001E000237B607B68002B69DB7B68B5
:102C3000002B66D03C4B1B687A689A4261D83B4BAC
:102C4000BB613A4B1B68FB6104E0FB69BB61FB693C
:102C50001B68FB61FB695B687A689A4203D9FB6970
:102C60001B68002BF1D12F4B1B68FA699A4248D0A0
:102C7000BB691B68082213447B61FB691A68BB6946
:102C80001A60FB695A687B68D21A08235B009A4273
:102C900018D9FA697B681344FB60FB6803F00703EB
:102CA000002B03D0DC21224806F072FDFB695A6834
:102CB0007B68D21AFB685A60FB697A685A60F868C8
:102CC00000F034F9184B1A68FB695B68D31A164A8E
:102CD0001360154B1A68174B1B689A4203D2124BAC
:102CE0001B68144A1360FB695B6843F00042FB6990
:102CF0005A60FB6900221A600F4B1B6801330E4AB1
:102D0000136003F025FF7B6903F00703002B04D059
:102D10004FF48E71064806F03BFD7B69184620375C
:102D2000BD4680BDECDC0020F0DC0020E4DC0020AF
:102D30002CF40300F4DC0020F8DC002080B584B023
:102D400000AF78607B68FB607B68002B3DD0082378
:102D50005B42FA681344FB60FB68BB60BB685B685E
:102D6000002B04DB40F22F111A4806F011FDBB685E
:102D70001B68002B04D04FF49871164806F008FD2C
:102D8000BB685B68DB0F03F00103DBB2002B1CD0D8
:102D9000BB681B68002B18D1BB685B6823F000423E
:102DA000BB685A6003F0C6FEBB685A680A4B1B68D2
:102DB0001344094A1360B86800F0B8F8074B1B6861
:102DC0000133064A136003F0C3FE00BF1037BD464F
:102DD00080BD00BF2CF40300F0DC0020FCDC0020F0
:102DE00080B400AF024B1B681846BD4680BC7047DC
:102DF000F0DC002080B400AF024B1B681846BD46D3
:102E000080BC7047F4DC002080B400AF00BFBD463A
:102E100080BC704780B584B000AF78603960002313
:102E2000FB607B68002B09D04FF0FF327B68B2FB60
:102E3000F3F33A689A4201D9012300E00023002B02
:102E400013D17B683A6802FB03F31846FFF7C8FE0C
:102E5000F860FB68002B08D07B683A6802FB03F33C
:102E60001A460021F86808F045FBFB681846103741
:102E7000BD4680BD80B485B000AF4FF44843BB6011
:102E8000254BFB60FB6803F00703002B0CD0FB68AD
:102E90000733FB60FB6823F00703FB60BA68FB683D
:102EA000D31A1D4A1344BB60FB687B601B4A7B68D6
:102EB00013601A4B00225A607B68BA681344FB60A7
:102EC0000822FB689B1AFB60FB6823F00703FB608A
:102ED000FB68134A1360124B1B6800225A60104BA8
:102EE0001B6800221A607B683B603B68FA68D21A54
:102EF0003B685A600A4B1A683B681A603B685B681B
:102F0000084A13603B685B68074A136000BF1437C8
:102F1000BD4680BC704700BFE4140020E4DC002004
:102F2000ECDC0020F4DC0020F0DC002080B485B074
:102F300000AF7860274BFB6002E0FB681B68FB601A
:102F4000FB681B687A689A42F7D8FB68BB60FB682D
:102F50005B68BA6813447A689A4208D1FB685A6879
:102F60007B685B681A44FB685A60FB687B607B681F
:102F7000BB607B685B68BA681A44FB681B689A424E
:102F800018D1FB681A68144B1B689A420DD07B68F5
:102F90005A68FB681B685B681A447B685A60FB6868
:102FA0001B681A687B681A6008E00B4B1A687B681C
:102FB0001A6003E0FB681A687B681A60FA687B682D
:102FC0009A4202D0FB687A681A6000BF1437BD4687
:102FD00080BC7047E4DC0020ECDC002080B586B0CB
:102FE00000AF786000233B610023FB604FF0FF33AC
:102FF000BB6003F09FFD224B1B687B617B69002B4C
:103000001BD015E03B6901333B617B695B68FA6863
:103010009A4202D27B695B68FB607B695B68BA6835
:103020009A4202D97B695B68BB607B691B687B61E4
:10303000144B1B687A699A42E4D103F089FD7B68DE
:10304000FA685A607B68BA689A607B683A69DA60A5
:1030500000F00EF90C4B1A687B681A600B4B1A686B
:103060007B685A610A4B1A687B689A61094B1A6837
:103070007B681A6100F026F900BF1837BD4680BD95
:10308000E4DC0020ECDC0020F0DC0020F8DC002098
:10309000FCDC0020F4DC002080B485B000AFF860D8
:1030A000B9607A60FB68043BFB60FB684FF080729C
:1030B0001A60FB68043BFB60BB6823F00102FB68FD
:1030C0001A60FB68043BFB60084AFB681A60FB68F7
:1030D000143BFB607A68FB681A60FB68203BFB606E
:1030E000FB6818461437BD4680BC7047F1300000BD
:1030F00080B582B000AF00233B600E4B1B68B3F17C
:10310000FF3F03D0D1210C4806F042FB4FF00503EE
:1031100083F31188BFF36F8FBFF34F8F7B6000BFC6
:1031200000BF3B68002BFCD000BF00BF0837BD4686
:1031300080BD00BFCC03002070F40300000000003D
:10314000074B19680868B0E8F00F80F30988BFF3EF
:103150006F8F4FF0000080F311884EF00D0E704716
:1031600058DD002000BF00BF06480068006880F3FB
:10317000088862B661B6BFF34F8FBFF36F8F00DF71
:1031800000BF000008ED00E000BF00BF80B584B0C4
:1031900000AF294BFB60FB681B78DBB2BB60FB68B0
:1031A000FF221A70FB681B78DBB2FB71FB79DBB284
:1031B00003F00503DAB2214B1A70214B07221A6083
:1031C00009E01F4B1B68013B1D4A1360FB79DBB212
:1031D0005B00DBB2FB71FB79DBB203F08003802B79
:1031E000EFD0174B1B681B02154A1360144B1B686A
:1031F00003F4E063124A1360BB68DAB2FB681A702A
:10320000104B1B680F4A43F47F0313600D4B1B6880
:103210000C4A43F07F43136000F0C0F80A4B0022D1
:103220001A60FFF7A1FF03F0B7FFFFF761FF00236C
:1032300018461037BD4680BD00E400E000DD0020E8
:1032400004DD002020ED00E0CC03002080B500AFBD
:10325000054B1B68B3F57A7F04D040F26F11034829
:1032600006F096FA00BF80BDCC03002070F4030086
:1032700080B582B000AF4FF0050383F31188BFF330
:103280006F8FBFF34F8F7B6000BF0B4B1B68013309
:10329000094A1360084B1B68012B09D1074B1B68B7
:1032A000DBB2002B04D040F27F11054806F070FA23
:1032B00000BF0837BD4680BDCC03002004ED00E010
:1032C00070F4030080B582B000AF0E4B1B68002B7A
:1032D00004D14FF4C3710C4806F05AFA094B1B682D
:1032E000013B084A1360074B1B68002B05D10023E4
:1032F0007B607B6883F3118800BF00BF0837BD4641
:1033000080BD00BFCC03002070F40300000000006B
:10331000EFF30980BFF36F8F0D4B1A6820E9F00FB0
:1033200010602DE908404FF0050080F3118803F08C
:1033300033FF4FF0000080F31188BDE808401968A2
:103340000868B0E8F00F80F30988BFF36F8F70470B
:1033500058DD002000BF00BF80B582B000AF4FF045
:10336000050383F31188BFF36F8FBFF34F8F7B602B
:1033700000BF03F0F7FD0346002B03D0064B4FF0D0
:1033800080521A6000233B603B6883F3118800BFC2
:1033900000BF0837BD4680BD04ED00E080B400AF3B
:1033A000084B00221A60084B00221A60074B4CF2AF
:1033B0004F321A60034B07221A6000BFBD4680BC23
:1033C000704700BF10E000E018E000E014E000E00B
:1033D00080B582B000AFEFF305837B607B680F2B75
:1033E0000ED9104A7B6813441B78FB700E4B1B7878
:1033F000FA789A4204D240F2E6210C4806F0C8F965
:103400000B4B1B6803F4E0620A4B1B689A4204D919
:1034100040F2F621054806F0BBF900BF0837BD466B
:1034200080BD00BFF0E300E000DD002070F4030089
:103430000CED00E004DD002080B582B000AF1C2060
:10344000FFF7CEFB78607B68002B07D07B680022FB
:103450001A607B680433184600F0EAFA7B68184665
:103460000837BD4680BD000080B58AB000AFF86067
:10347000B9607A603B60FB683B620023FB617B685C
:1034800003F07F43002B03D0CC21434806F080F9A2
:103490007B68002B03D1CD213F4806F079F904F079
:1034A0008DFB0346002B02D13B68002B01D1012389
:1034B00000E00023002B03D1D021374806F068F943
:1034C00003F038FB3B6A1B68BB61B968F86800F021
:1034D00085F9BA69BB681A437B6813407A689A42D7
:1034E0000DD1BA69BB6813437B623B6A1A687B687B
:1034F000DB431A403B6A1A6000233B6013E03B68E1
:10350000002B0BD03B6A181D7B6843F0A0633A6820
:10351000194603F0DDFE00237B6204E03B6A1B6872
:103520007B620123FB6103F013FB78613B68002B96
:103530002CD07B69002B07D1184B4FF080521A60BA
:10354000BFF34F8FBFF36F8F04F0F8FD78627B6A93
:1035500003F00073002B15D1FFF78AFE3B6A1B684E
:103560007B627A6A7B6813407A689A4206D13B6A2A
:103570001A687B68DB431A403B6A1A60FFF7A2FEB9
:103580000123FB617B6A23F07F437B627B6A1846E1
:103590002837BD4680BD00BFB4F4030004ED00E051
:1035A00080B58CB000AFF860B9607A603B60FB68B2
:1035B0007B620023BB6200233B62FB68002B04D1CB
:1035C0004FF4A571504806F0E3F8BB6803F07F4361
:1035D000002B04D040F24B114B4806F0D9F8BB68E1
:1035E000002B04D14FF4A671474806F0D1F804F03F
:1035F000E5FA0346002B02D1BB6B002B01D101235E
:1036000000E00023002B04D140F24F113E4806F0A9
:10361000BFF803F08FFA7B6A1B68FB613A68B968F0
:10362000F86900F0ADF9B861BB69002B0ED0FB69F9
:10363000FB620023BB637B68002B28D07B6A1A687F
:10364000BB68DB431A407B6A1A6020E0BB6B002B2F
:1036500004D1FB69FB6201233B6218E07B68002B0D
:1036600003D0BB6A43F08073BB623B68002B03D07E
:10367000BB6A43F08063BB627B6A181DBA68BB6A91
:103680001343BA6B194603F023FE0023FB6203F0D9
:103690005FFA7861BB6B002B31D07B69002B07D1BF
:1036A0001A4B4FF080521A60BFF34F8FBFF36F8FEA
:1036B00004F044FDF862FB6A03F00073002B1AD19A
:1036C000FFF7D6FD7B6A1B68FB623A68B968F86A47
:1036D00000F056F90346002B09D07B68002B06D07A
:1036E0007B6A1A68BB68DB431A407B6A1A60012355
:1036F0003B62FFF7E7FDFB6A23F07F43FB62FB6A57
:1037000018463037BD4680BDB4F4030004ED00E038
:1037100080B584B000AF786039607B68FB607B68FF
:10372000002B04D140F2E1110F4806F031F83B685C
:1037300003F07F43002B04D04FF4F1710A4806F0E8
:1037400027F8FFF795FDFB681B68BB60FB681A68EC
:103750003B68DB431A40FB681A60FFF7B3FDBB68A8
:1037600018461037BD4680BDB4F4030080B584B060
:1037700000AF7860396000233A687968044805F042
:103780006FFEF860FB6818461037BD4680BD00BF6D
:103790006739000080B489B000AF78607B68FB6156
:1037A000EFF311824FF0050383F31188BFF36F8F9E
:1037B000BFF34F8FFA60BB60FB68BB61FB691B689E
:1037C0007B61BB693B613B6983F3118800BF7B6907
:1037D00018462437BD4680BC7047000080B58CB0C9
:1037E00000AF786039600023BB627B683B620023D6
:1037F0007B627B68002B04D140F22221374805F020
:10380000C7FF3B6803F07F43002B04D040F2232125
:10381000324805F0BDFF3B6A0433FB61FB690833A6
:10382000BB6103F087F9FB69DB68FB623B6A1A68DE
:103830003B681A433B6A1A603CE0FB6A5B687B6149
:10384000FB6A1B683B6100237B623B6903F07F439B
:10385000FB603B6923F07F433B61FB6803F08063BF
:10386000002B08D13B6A1A683B691340002B0BD030
:1038700001237B6208E03B6A1A683B6913403A699E
:103880009A4201D101237B627B6A002B10D0FB6836
:1038900003F08073002B03D0BA6A3B691343BB6209
:1038A0003B6A1B6843F000731946F86A03F06EFE2A
:1038B0007B69FB62FA6ABB699A42BED13B6A1A68AD
:1038C000BB6ADB431A403B6A1A6003F041F93B6A6A
:1038D0001B6818463037BD4680BD00BFB4F40300F6
:1038E00080B584B000AF78607B68FB60FB68002B1C
:1038F00004D140F27A21144805F04AFFFB680433F2
:10390000BB6003F017F911E0BB68DA68BB680833E5
:103910009A4204D140F286210B4805F039FFBB687A
:10392000DB684FF00071184603F030FEBB681B687F
:10393000002BE9D103F00CF9F868FFF7FFF900BF9D
:103940001037BD4680BD00BFB4F4030080B582B01F
:1039500000AF7860396039687868FFF73FFF00BFD3
:103960000837BD4680BD80B582B000AF7860396051
:1039700039687868FFF7CCFE00BF0837BD4680BDC8
:1039800080B487B000AFF860B9607A6000237B61D3
:103990007B68002B07D1FA68BB681340002B0AD064
:1039A00001237B6107E0FA68BB681340BA689A425A
:1039B00001D101237B617B6918461C37BD4680BC61
:1039C0007047000080B586B000AFF860B9607A60DB
:1039D0007B68BA68F968044805F042FD78617B6944
:1039E00018461837BD4680BD4D39000080B485B0FB
:1039F00000AF78607B68BB607B68002B02D100233E
:103A0000FB6002E0BB689B69FB60FB6818461437EB
:103A1000BD4680BC704780B483B000AF7860396029
:103A20007B683A689A6100BF0C37BD4680BC70471E
:103A300080B483B000AF78607B6803F108027B68D4
:103A40005A607B684FF0FF329A607B6803F108028E
:103A50007B68DA607B6803F108027B681A617B6827
:103A600000221A6000BF0C37BD4680BC704780B48E
:103A700083B000AF78607B6800221A6100BF0C370A
:103A8000BD4680BC704780B485B000AF78603960B7
:103A90007B685B68FB603B68FA685A60FB689A6801
:103AA0003B689A60FB689B683A685A60FB683A68B2
:103AB0009A603B687A681A617B681B685A1C7B684D
:103AC0001A6000BF1437BD4680BC704780B485B013
:103AD00000AF786039603B681B68BB60BB68B3F1BE
:103AE000FF3F03D17B681B69FB600CE07B680833F8
:103AF000FB6002E0FB685B68FB60FB685B681B685F
:103B0000BA689A42F6D2FB685A683B685A603B68CA
:103B10005B683A689A603B68FA689A60FB683A6842
:103B20005A603B687A681A617B681B685A1C7B681C
:103B30001A6000BF1437BD4680BC704780B485B0A2
:103B400000AF78607B681B69FB607B685B687A68A4
:103B500092689A607B689B687A6852685A60FB68D2
:103B60005B687A689A4203D17B689A68FB685A60FE
:103B70007B6800221A61FB681B685A1EFB681A608A
:103B8000FB681B6818461437BD4680BC70470000B0
:103B900080B584B000AF786039600123FB607B683A
:103BA000BB60BB68002B04D14FF49771394805F016
:103BB000EFFDBB68002B5DD0BB68DB6B002B59D0E1
:103BC000BB681A6CBB68DB6B0021A3FB0223002BD4
:103BD00000D001210B46002B4CD1FFF749FBBB68FD
:103BE0001A68BB68DB6BB968096C01FB03F31A4404
:103BF000BB689A60BB6800229A63BB681A68BB689E
:103C00005A60BB681A68BB68DB6B013BB968096C1A
:103C100001FB03F31A44BB68DA60BB68FF2283F838
:103C20004420BB68FF2283F845203B68002B14D159
:103C3000BB681B69002B1AD0BB681033184603F011
:103C4000D5FB0346002B12D0134B4FF080521A6065
:103C5000BFF34F8FBFF36F8F09E0BB681033184677
:103C6000FFF7E6FEBB6824331846FFF7E1FEFFF7D7
:103C700029FB01E00023FB60FB68002B04D140F22C
:103C80006311044805F084FDFB6818461037BD46F3
:103C900080BD00BFECF4030004ED00E080B58AB005
:103CA00002AFF860B9601346FB710023FB61FB684B
:103CB000002B2ED00021BA68FB68A3FB0223002B47
:103CC00000D001210B46002B23D1FB68BA6802FB10
:103CD00003F313F1550F1CD8FB68BA6802FB03F31A
:103CE000BB61BB6954331846FEF77AFFF861FB6984
:103CF000002B16D0FB697B617B6954337B61FA79B9
:103D0000FB69009313467A69B968F86800F010F807
:103D100007E0FB69002B04D14FF4F271034805F072
:103D200037FDFB6918462037BD4680BDECF4030023
:103D300080B584B000AFF860B9607A60FB70BB6892
:103D4000002B03D1BB69BA691A6002E0BB697A68CB
:103D50001A60BB69FA68DA63BB69BA681A64012140
:103D6000B869FFF715FFBB69FA7883F85020BB6983
:103D700000229A6400BF1037BD4680BD80B582B076
:103D800000AF78607B68002B0ED07B6800229A60C1
:103D90007B6800221A607B680022DA600023002220
:103DA0000021786800F0EAF800BF0837BD4680BD02
:103DB00080B586B000AF0346FB7101237B61002311
:103DC0003B61FB791A4639697869FFF767FFF8604C
:103DD000F868FFF7D3FFFB6818461837BD4680BD6B
:103DE00080B584B000AF78607B68BB607B68002BD7
:103DF00004D140F266210B4805F0CAFCFFF738FAFF
:103E0000BB681B68002B03D1BB689B68FB6001E0AB
:103E10000023FB60FFF756FAFB6818461037BD46D3
:103E200080BD00BFECF4030080B584B000AF7860C3
:103E30007B68002B04D140F28621094805F0A8FCDC
:103E40007B681B68002B03D17B689B68FB6001E0EB
:103E50000023FB60FB6818461037BD4680BD00BFDD
:103E6000ECF4030090B585B000AF78607B68BB6070
:103E7000BB68002B04D140F2A121114805F088FC59
:103E8000BB689C6803F08CFE03469C4211D1BB6862
:103E9000DB685A1EBB68DA60BB68DB68002B05D1A3
:103EA000002300220021B86800F068F80123FB60BD
:103EB00001E00023FB60FB6818461437BD4690BD47
:103EC000ECF4030090B585B000AF786039607B6892
:103ED000BB60BB68002B04D140F2D921114805F02A
:103EE00057FCBB689C6803F05BFE03469C4207D10D
:103EF000BB68DB685A1CBB68DA600123FB600CE01E
:103F00003968B86800F060FBF860FB68002B04D0EB
:103F1000BB68DB685A1CBB68DA60FB68184614375C
:103F2000BD4690BDECF4030080B584B000AF78606E
:103F300039600023FB607B68002B10D03A687B68F7
:103F40009A420CD8022200217868FFF7A7FEF86099
:103F5000FB68002B0BD0FB683A689A6307E0FB68AC
:103F6000002B04D140F23931034805F011FCFB6805
:103F700018461037BD4680BDECF4030080B58AB00A
:103F800000AFF860B9607A603B6000237B62FB6839
:103F90003B623B6A002B04D14FF45371774805F024
:103FA000F7FBBB68002B03D13B6A1B6C002B01D1D4
:103FB000012300E00023002B04D140F24D316F4873
:103FC00005F0E6FB3B68022B03D13B6ADB6B012B60
:103FD00001D1012300E00023002B04D140F24E3137
:103FE000664805F0D5FB03F0E9FD0346002B02D13E
:103FF0007B68002B01D1012300E00023002B04D1BA
:1040000040F251315D4805F0C3FBFFF731F93B6ADF
:104010009A6B3B6ADB6B9A4202D33B68022B45D119
:104020003B6A9B6BFB613A68B968386A00F015FE21
:10403000B8613B6A9B6C002B14D03B68022B02D109
:10404000FB69002B2ED1386A01F0B8F80346002B2B
:1040500028D04B4B4FF080521A60BFF34F8FBFF305
:104060006F8F1FE03B6A5B6A002B10D03B6A2433E2
:10407000184603F0BBF90346002B13D0404B4FF01A
:1040800080521A60BFF34F8FBFF36F8F0AE0BB6996
:10409000002B07D03A4B4FF080521A60BFF34F8F7E
:1040A000BFF36F8FFFF70EF9012363E07B68002BEE
:1040B00003D1FFF707F900235CE07B6A002B06D1F0
:1040C00007F11003184603F037FB01237B62FFF76B
:1040D000F9F802F02FFDFFF7CBF83B6A93F8443074
:1040E0005BB2B3F1FF3F03D13B6A002283F8442067
:1040F0003B6A93F845305BB2B3F1FF3F03D13B6AB3
:10410000002283F84520FFF7DDF83A1D07F1100380
:104110001146184603F026FB0346002B24D1386ACB
:1041200000F0BEFE0346002B18D03B6A10337A68BD
:104130001146184603F0ACF8386A00F01EFE02F093
:1041400007FD0346002B7FF460AF0D4B4FF080520C
:104150001A60BFF34F8FBFF36F8F56E7386A00F0D6
:104160000CFE02F0F5FC50E7386A00F006FE02F0A3
:10417000EFFC002318462837BD4680BDECF4030051
:1041800004ED00E080B58EB000AFF860B9607A60F1
:104190003B60FB683B633B6B002B04D14FF48461B5
:1041A000514805F0F5FABB68002B03D13B6B1B6C43
:1041B000002B01D1012300E00023002B04D140F2A9
:1041C0002141494805F0E4FA3B68022B03D13B6BDF
:1041D000DB6B012B01D1012300E00023002B04D174
:1041E00040F22241404805F0D3FAFFF7F1F8EFF32F
:1041F00011824FF0050383F31188BFF36F8FBFF374
:104200004F8FFA61BB61FB69FB623B6B9A6B3B6B47
:10421000DB6B9A4202D33B68022B57D13B6B93F87E
:10422000453087F82B303B6B9B6B7B623A68B968F3
:10423000386B00F012FD97F92B30B3F1FF3F29D115
:104240003B6B9B6C002B12D03B68022B02D17B6A2C
:10425000002B38D1386B00F0B1FF0346002B32D071
:104260007B68002B2FD07B6801221A602BE03B6B10
:104270005B6A002B27D03B6B2433184603F0B6F85B
:104280000346002B1FD07B68002B1CD07B680122CB
:104290001A6018E002F074FD386297F92B303A6A20
:1042A0009A4210D997F92B307F2B04D140F2AB41C1
:1042B0000D4805F06DFA97F82B300133DBB25AB296
:1042C0003B6B83F8452001237B6301E000237B6384
:1042D000FB6A7B617B6983F3118800BF7B6B1846A7
:1042E0003837BD4680BD00BFECF4030080B58CB00C
:1042F00000AF786039607B68BB62BB6A002B04D179
:1043000040F2C941474805F043FABB6A1B6C002BD9
:1043100004D040F2CD41434805F03AFABB6A1B682D
:10432000002B03D1BB6A9B68002B01D1012300E065
:104330000023002B04D140F2D2413A4805F028FA7C
:10434000FFF746F8EFF311824FF0050383F311886E
:10435000BFF36F8FBFF34F8F7A613B617B697B62E5
:10436000BB6A9B6B3B62BB6ADB6B3A6A9A424BD27D
:10437000BB6A93F84530FB773B6A5A1CBB6A9A6369
:1043800097F91F30B3F1FF3F23D1BB6A9B6C002B21
:104390000CD0B86A00F012FF0346002B31D03B6806
:1043A000002B2ED03B6801221A602AE0BB6A5B6AB0
:1043B000002B26D0BB6A2433184603F017F80346B7
:1043C000002B1ED03B68002B1BD03B6801221A60DB
:1043D00017E002F0D5FCB86197F91F30BA699A422C
:1043E0000FD997F91F307F2B04D140F251510D485E
:1043F00005F0CEF9FB7F0133DBB25AB2BB6A83F81A
:1044000045200123FB6201E00023FB627B6AFB6025
:10441000FB6883F3118800BFFB6A18463037BD463E
:1044200080BD00BFECF4030080B58AB000AFF86037
:10443000B9607A6000237B62FB683B623B6A002BB9
:1044400004D140F26B515E4805F0A2F9BB68002B25
:1044500003D13B6A1B6C002B01D1012300E0002338
:10446000002B04D140F26F51554805F091F903F04B
:10447000A5FB0346002B02D17B68002B01D1012351
:1044800000E00023002B04D140F274514C4805F0A9
:104490007FF9FEF7EDFE3B6A9B6BFB61FB69002B2E
:1044A0001FD0B968386A00F042FCFB695A1E3B6AAB
:1044B0009A633B6A1B69002B0FD03B6A1033184686
:1044C00002F094FF0346002B07D03E4B4FF0805282
:1044D0001A60BFF34F8FBFF36F8FFEF7F3FE012318
:1044E00069E07B68002B03D1FEF7ECFE002362E05D
:1044F0007B6A002B06D107F11403184603F01CF960
:1045000001237B62FEF7DEFE02F014FBFEF7B0FE35
:104510003B6A93F844305BB2B3F1FF3F03D13B6A8F
:10452000002283F844203B6A93F845305BB2B3F134
:10453000FF3F03D13B6A002283F84520FEF7C2FE0D
:104540003A1D07F114031146184603F00BF9034610
:10455000002B23D1386A00F06FFC0346002B17D0E4
:104560003B6A24337A681146184602F091FE386A95
:1045700000F003FC02F0ECFA0346002B89D1114B4A
:104580004FF080521A60BFF34F8FBFF36F8F80E7F9
:10459000386A00F0F2FB02F0DBFA7AE7386A00F0E2
:1045A000ECFB02F0D5FA386A00F046FC0346002B1B
:1045B0003FF46FAF002318462837BD4680BD00BFCB
:1045C000ECF4030004ED00E080B58AB000AF786041
:1045D000396000237B627B68FB6100233B62FB69DF
:1045E000002B04D140F2FD516C4805F0D1F8FB6975
:1045F0001B6C002B04D040F20161684805F0C8F83C
:1046000003F0DCFA0346002B02D13B68002B01D1FA
:10461000012300E00023002B04D140F206615F4833
:1046200005F0B6F8FEF724FEFB699B6BBB61BB6926
:10463000002B24D0BB695A1EFB699A63FB691B6877
:10464000002B04D103F092FD0246FB699A60FB69DE
:104650001B69002B0FD0FB691033184602F0C6FE11
:104660000346002B07D04E4B4FF080521A60BFF329
:104670004F8FBFF36F8FFEF725FE012389E03B6864
:10468000002B03D1FEF71EFE002382E07B6A002B85
:1046900006D107F10C03184603F04EF801237B62A4
:1046A000FEF710FE02F046FAFEF7E2FDFB6993F812
:1046B00044305BB2B3F1FF3F03D1FB69002283F8C2
:1046C0004420FB6993F845305BB2B3F1FF3F03D15F
:1046D000FB69002283F84520FEF7F4FD3A4607F116
:1046E0000C031146184603F03DF80346002B32D167
:1046F000F86900F0A1FB0346002B26D0FB691B687C
:10470000002B09D1FEF7B4FDFB699B68184603F046
:1047100073FA3862FEF7D6FDFB6924333A68114616
:10472000184602F0B5FDF86900F027FB02F010FA18
:104730000346002B7FF476AF194B4FF080521A607E
:10474000BFF34F8FBFF36F8F6CE7F86900F015FB75
:1047500002F0FEF966E7F86900F00FFB02F0F8F9E5
:10476000F86900F069FB0346002B3FF45BAF3B6A3E
:10477000002B0DD0FEF77CFDF86900F057FA786148
:10478000FB699B687969184603F06CFBFEF79AFD9C
:10479000002318462837BD4680BD00BFECF4030057
:1047A00004ED00E080B58AB000AFF860B9607A60CF
:1047B00000237B62FB683B623B6A002B04D140F222
:1047C000CD615F4804F0E4FFBB68002B03D13B6A76
:1047D0001B6C002B01D1012300E00023002B04D12E
:1047E00040F2D161564804F0D3FF03F0E7F90346E5
:1047F000002B02D17B68002B01D1012300E00023B4
:10480000002B04D140F2D6614D4804F0C1FFFEF701
:104810002FFD3B6A9B6BFB61FB69002B21D03B6A40
:10482000DB68BB61B968386A00F081FA3B6ABA6933
:10483000DA603B6A5B6A002B0FD03B6A2433184670
:1048400002F0D4FD0346002B07D03E4B4FF08052C0
:104850001A60BFF34F8FBFF36F8FFEF733FD012355
:1048600069E07B68002B03D1FEF72CFD002362E09A
:104870007B6A002B06D107F11003184602F05CFF9B
:1048800001237B62FEF71EFD02F054F9FEF7F0FCF7
:104890003B6A93F844305BB2B3F1FF3F03D13B6A0C
:1048A000002283F844203B6A93F845305BB2B3F1B1
:1048B000FF3F03D13B6A002283F84520FEF702FD4B
:1048C0003A1D07F110031146184602F04BFF03464C
:1048D000002B23D1386A00F0AFFA0346002B17D023
:1048E0003B6A24337A681146184602F0D1FC386AD4
:1048F00000F043FA02F02CF90346002B87D1114B4C
:104900004FF080521A60BFF34F8FBFF36F8F7EE777
:10491000386A00F032FA02F01BF978E7386A00F0E2
:104920002CFA02F015F9386A00F086FA0346002BDB
:104930003FF46DAF002318462837BD4680BD00BF49
:10494000ECF4030004ED00E080B58EB000AFF86039
:10495000B9607A60FB683B633B6B002B04D140F28B
:1049600062713C4804F014FFBB68002B03D13B6B21
:104970001B6C002B01D1012300E00023002B04D18C
:1049800040F26371334804F003FFFEF721FDEFF3BB
:1049900011824FF0050383F31188BFF36F8FBFF3CC
:1049A0004F8FFA61BB61FB69FB623B6B9B6BBB6228
:1049B000BB6A002B40D03B6B93F8443087F827301C
:1049C000B968386B00F0B3F9BB6A5A1E3B6B9A6347
:1049D00097F92730B3F1FF3F12D13B6B1B69002BD6
:1049E00027D03B6B1033184602F000FD0346002B26
:1049F0001FD07B68002B1CD07B6801221A6018E056
:104A000002F0BEF9386297F927303A6A9A4210D913
:104A100097F927307F2B04D140F2A6710D4804F09E
:104A2000B7FE97F827300133DBB25AB23B6B83F8FD
:104A3000442001237B6301E000237B63FB6A7B61ED
:104A40007B6983F3118800BF7B6B18463837BD46FE
:104A500080BD00BFECF4030080B58AB000AF786081
:104A600039607B683B623B6A002B04D140F2BF7126
:104A7000254804F08DFE3B68002B03D13B6A1B6C7C
:104A8000002B01D1012300E00023002B04D14FF4BF
:104A9000F8611D4804F07CFE3B6A1B6C002B04D1BE
:104AA00040F2C171184804F073FEFEF791FCEFF379
:104AB00011824FF0050383F31188BFF36F8FBFF3AB
:104AC0004F8F7A613B617B69FB613B6A9B6B002B7B
:104AD0000CD03B6ADB68BB613968386A00F027F9A3
:104AE0003B6ABA69DA6001237B6201E000237B62E2
:104AF000FB69FB60FB6883F3118800BF7B6A184683
:104B00002837BD4680BD00BFECF4030080B584B0FB
:104B100000AF78607B68002B04D140F2F271074847
:104B200004F036FEFEF7A4FB7B689B6BFB60FEF790
:104B3000C9FBFB6818461037BD4680BDECF4030086
:104B400080B584B000AF78607B68FB60FB68002BA9
:104B500004D140F60301094804F01AFEFEF788FB71
:104B6000FB68DA6BFB689B6BD31ABB60FEF7AAFB92
:104B7000BB6818461037BD4680BD00BFECF403008B
:104B800080B584B000AF78607B68FB60FB68002B69
:104B900004D140F61401054804F0FAFDFB689B6B54
:104BA000BB60BB6818461037BD4680BDECF40300FF
:104BB00080B584B000AF78607B68FB60FB68002B39
:104BC00004D140F61F01064804F0E2FDF86800F049
:104BD00015FAF868FEF7B2F800BF1037BD4680BD81
:104BE000ECF4030080B483B000AF78607B68DB6CCA
:104BF00018460C37BD4680BC704780B483B000AF08
:104C0000786039607B683A68DA6400BF0C37BD466B
:104C100080BC704780B483B000AF78607B6893F845
:104C2000503018460C37BD4680BC704780B485B004
:104C300000AF78607B685B6A002B06D07B681B6BDB
:104C40001B68C3F10603FB6001E00023FB60FB6807
:104C500018461437BD4680BC704780B586B000AF9B
:104C6000F860B9607A6000237B61FB689B6B3B61F5
:104C7000FB681B6C002B0DD1FB681B68002B4DD112
:104C8000FB689B68184603F055F87861FB680022C2
:104C90009A6043E07B68002B19D1FB685868FB6879
:104CA0001B6C1A46B96806F017FCFB685A68FB686B
:104CB0001B6C1A44FB685A60FB685A68FB689B6867
:104CC0009A422BD3FB681A68FB685A6026E0FB689F
:104CD000D868FB681B6C1A46B96806F0FDFBFB68D8
:104CE000DA68FB681B6C5B421A44FB68DA60FB689D
:104CF000DA68FB681B689A4207D2FB689A68FB680F
:104D00001B6C5B421A44FB68DA607B68022B05D19E
:104D10003B69002B02D03B69013B3B613B695A1C5C
:104D2000FB689A637B6918461837BD4680BD80B51D
:104D300082B000AF786039607B681B6C002B18D0A4
:104D40007B68DA687B681B6C1A447B68DA607B6876
:104D5000DA687B689B689A4203D37B681A687B6831
:104D6000DA607B68D9687B681B6C1A46386806F085
:104D7000B3FB00BF0837BD4680BD80B584B000AF2F
:104D80007860FEF775FA7B6893F84530FB731EE098
:104D90007B689B6C002B08D0786800F00FFA034604
:104DA000002B10D002F03AFD0DE07B685B6A002B0F
:104DB00012D07B682433184602F018FB0346002B00
:104DC00001D002F02BFDFB7B013BDBB2FB7397F9BB
:104DD0000F30002BDCDC00E000BF7B68FF2283F893
:104DE0004520FEF76FFAFEF743FA7B6893F84430EC
:104DF000BB7311E07B681B69002B12D07B681033FA
:104E0000184602F0F3FA0346002B01D002F006FD2B
:104E1000BB7B013BDBB2BB7397F90E30002BE9DCA7
:104E200000E000BF7B68FF2283F84420FEF74AFAC7
:104E300000BF1037BD4680BD80B584B000AF78603C
:104E4000FEF716FA7B689B6B002B02D10123FB60F7
:104E500001E00023FB60FEF735FAFB6818461037C7
:104E6000BD4680BD80B584B000AF78607B68BB6014
:104E7000BB68002B04D140F67911084804F088FC87
:104E8000BB689B6B002B02D10123FB6001E0002378
:104E9000FB60FB6818461037BD4680BDECF403008C
:104EA00080B584B000AF7860FEF7E2F97B689A6B5A
:104EB0007B68DB6B9A4202D10123FB6001E0002397
:104EC000FB60FEF7FFF9FB6818461037BD4680BD52
:104ED00080B584B000AF78607B68BB60BB68002B96
:104EE00004D140F6A211094804F052FCBB689A6B49
:104EF000BB68DB6B9A4202D10123FB6001E0002317
:104F0000FB60FB6818461037BD4680BDECF403001B
:104F100080B584B000AF786039600023BB607B68E7
:104F2000002B04D140F6D8211B4804F031FC3B682B
:104F3000002B24D00023FB601EE0184AFB68DB0036
:104F400013445B687A689A4205D1FB68DB00134A18
:104F50001344BB6013E0BB68002B0AD10F4AFB6807
:104F600052F83330002B04D1FB68DB000B4A1344AA
:104F7000BB60FB680133FB60FB68092BDDD9BB68B4
:104F8000002B05D0BB683A681A60BB687A685A6023
:104F900000BF1037BD4680BDECF4030008DD0020E3
:104FA00080B584B000AF78600023BB607B68002BC5
:104FB00004D140F606310F4804F0EAFB0023FB6001
:104FC00010E00D4AFB68DB0013445B687A689A4284
:104FD00005D1094AFB6852F83330BB6005E0FB6835
:104FE0000133FB60FB68092BEBD9BB68184610370F
:104FF000BD4680BDECF4030008DD002080B584B020
:1050000000AF78607B68002B04D140F62431124851
:1050100004F0BEFB0023FB6016E0104AFB68DB00D7
:1050200013445B687A689A420BD10C4AFB680021F2
:1050300042F83310094AFB68DB00134400225A602F
:1050400006E0FB680133FB60FB68092BE5D900BF74
:1050500000BF1037BD4680BDECF4030008DD002022
:1050600080B586B000AFF860B9607A60FB687B619C
:10507000FEF7FEF87B6993F844305BB2B3F1FF3F73
:1050800003D17B69002283F844207B6993F8453083
:105090005BB2B3F1FF3F03D17B69002283F8452067
:1050A000FEF710F97B699B6B002B06D17B692433DB
:1050B0007A68B968184602F057F97869FFF75DFE1B
:1050C00000BF1837BD4680BD80B584B000AF7860A2
:1050D000002204217868FEF7E1FDF860FB681846BD
:1050E0001037BD4680BD80B584B000AF78603960B0
:1050F000FEF7BEF87B689B6C002B02D00023FB60A0
:105100000BE07B689B6B002B02D00023FB6004E06C
:105110007B683A689A640123FB60FEF7D3F8FB686A
:1051200018461037BD4680BD80B584B000AF7860AA
:1051300039607B68BB60BB689B6C3A689A4202D05E
:105140000023FB600FE0BB689B6B002B02D00023A9
:10515000FB6008E0FEF78CF8BB6800229A64FEF75B
:10516000B1F80123FB60FB6818461037BD4680BDCF
:1051700080B584B000AF786039600023FB6007F130
:105180000C033A6819467868FFF74EF9FB68184631
:105190001037BD4680BD80B584B000AF7860002375
:1051A000FB6007F10C03002219467868FFF7CCFB7F
:1051B000FB6818461037BD4680BD000080B586B03C
:1051C00000AF78607B689B6C3B6100237B613B692F
:1051D000002B04D140F6E331274804F0D9FA3B69AB
:1051E0009A6B3B69DB6B9A4204D340F6E431224868
:1051F00004F0CEFA3B699A6B3B69DB6B9A4236D27C
:105200003B6993F84530FB733B1D00221946386912
:10521000FFF723FD786197F90F30B3F1FF3F0ED10F
:105220003B695B6A002B22D03B692433184602F0AD
:10523000DDF80346002B1AD001237B6117E001F053
:105240009FFDB86097F90F30BA689A420FD997F965
:105250000F307F2B04D140F60441074804F098FA40
:10526000FB7B0133DBB25AB23B6983F845207B6993
:1052700018461837BD4680BDECF4030080B58AB0EF
:1052800004AFF860B9607A603B607B68012B0AD19B
:105290000123FB74FB68042B0FD84FF4A97121483C
:1052A00004F076FA09E00023FB74FB68002B04D1BC
:1052B0004FF4AC711B4804F06BFABA68FB689A4271
:1052C00004D940F25B11174804F062FABB68002B66
:1052D00001D10123BB60FB6813F1260F09D8FB68DD
:1052E0000133FB60FB6824331846FDF779FC7861D5
:1052F00001E000237B617B69002B0DD07B6903F10A
:1053000024013B6A02933B680193FB7C0093BB68DA
:10531000FA68786900F05CFD7B6918461837BD466D
:1053200080BD00BF1CF5030080B584B000AF78607D
:105330007B68FB60FB68002B04D140F2E1110B4855
:1053400004F026FAFB681B7F03F00203002B03D155
:10535000F868FDF7F3FC04E024220021F86806F069
:10536000C9F800BF1037BD4680BD00BF1CF5030063
:1053700090B58DB004AF78607B68BB610023FB61A2
:1053800000237B6100233B61BB69002B04D14FF4F8
:105390000271174804F0FCF9BB691B6AFB60FDF75A
:1053A00067FFBB691B69002B1AD1BB695B69002BC6
:1053B00016D1BB699969BB699868BB69DC68BB6930
:1053C0001B7F3A6902927A69019200932346024652
:1053D000B86900F0FDFCBB69FA681A620123FB6141
:1053E000FDF770FFFB6918462437BD4690BD00BF2E
:1053F0001CF5030080B584B000AF786039607B682D
:10540000BB60BB68002B04D140F23D210C4804F086
:10541000BFF93B68002B01D101233B60BB689B684F
:105420003A689A4205D2BB683A68DA600123FB60A9
:1054300001E00023FB60FB6818461037BD4680BDC5
:105440001CF5030080B586B000AF78607B683B61D7
:105450003B69002B04D140F25B21144804F098F919
:105460003B691B68FB603B699A683B691B68134496
:105470007B613B695B687A69D31A7B613B691B6816
:10548000FA689A42ECD17B69013B7B613B699B687E
:105490007A699A4204D33B699B687A69D31A7B6123
:1054A0007B6918461837BD4680BD00BF1CF5030058
:1054B00080B584B000AF78607B68FB60FB68002B30
:1054C00004D140F27B21064804F062F9F86800F04C
:1054D0005FFCB860BB6818461037BD4680BD00BF92
:1054E0001CF5030080B58EB002AFF860B9607A6039
:1054F0003B60FB687B620023FB627B68BB6200232E
:105500003B62BB68002B04D140F28D21504804F06F
:105510003FF97B6A002B04D140F28E214C4804F005
:1055200037F97B6A9B68013B3B627B6A1B7F03F018
:105530000103002B12D0BB6A0433BB62BA6A7B68DA
:105540009A4204D840F29D21414804F021F9BA6AF8
:105550003B6A9A4208D900233B6005E0BA6A3B6A7D
:105560009A4201D93B6ABB623B68002B3BD007F1F2
:105570001403184602F0BEF8FDF77AFE786AFFF7CA
:1055800061FFF862FA6ABB6A9A4212D200210020D7
:1055900003F028FA7B6A5B69002B04D040F2CD212E
:1055A0002B4804F0F5F802F0FBFA02467B6A5A61D8
:1055B00002E0FDF787FE16E0FDF784FE3B680093EE
:1055C000002300220021002002F048FE7B6A002216
:1055D0005A613A4607F114031146184602F0C2F820
:1055E0000346002BC8D0FB6A002B03D1786AFFF773
:1055F00029FFF862BB6A0093FB6A7A68B968786A27
:1056000000F092F8F861FB69002B1BD0786A00F07B
:10561000BFFB02467B6ADB689A4213D301F08AFA29
:105620007B6A1B69002B0BD07B6A186900230093EF
:1056300000230022002102F08DFE7B6A00221A6105
:1056400001F086FAFB6918463037BD4680BD00BFC1
:105650001CF5030080B58EB002AFF860B9607A60C7
:105660003B60FB68BB627B68FB62BB68002B04D1BC
:1056700040F20E312B4804F08BF8BB6A002B04D1AA
:1056800040F20F31274804F083F8BB6A1B7F03F018
:105690000103002B02D0FB6A0433FB62B86AFFF7F8
:1056A000D1FE7862FB6A00937B6A7A68B968B86A4F
:1056B00000F03AF838623B6A002B2DD0B86A00F04F
:1056C00067FB0246BB6ADB689A4225D3EFF311827F
:1056D0004FF0050383F31188BFF36F8FBFF34F8F34
:1056E000BA617B61BB69FB61BB6A1B69002B0DD092
:1056F000BB6A18693B6801930023009300230022D2
:10570000002102F033FFBB6A00221A61FB693B6192
:105710003B6983F3118800BF3B6A18463037BD46AA
:1057200080BD00BF1CF5030080B586B000AFF860F7
:10573000B9607A603B60FB685B687B61FB681B7FDC
:1057400003F00103002B1AD07B683B613B697A6848
:105750009A4204D040F24931144804F019F83A68EA
:105760003B6A9A4208D307F110017B690422F8686A
:1057700000F056FA786108E000237B6005E07A6863
:105780003B68934228BF13467B607B68002B08D0A0
:105790007B697A68B968F86800F042FA0246FB68EB
:1057A0005A607B6818461837BD4680BD1CF503005B
:1057B00080B58AB002AFF860B9607A603B60FB6880
:1057C0003B610023FB61BB68002B04D140F27231C6
:1057D0003A4803F0DDFF3B69002B04D140F27331FE
:1057E000364803F0D5FF3B691B7F03F00103002B14
:1057F00002D004237B6101E000237B613B68002B26
:1058000031D0FDF735FD386900F0C2FAB861BA69E8
:105810007B699A4211D80021002003F0E3F83B692C
:105820001B69002B04D040F29631244803F0B0FFEE
:1058300002F0B6F902463B691A61FDF743FDBA6909
:105840007B699A4213D83B68009300230022002111
:10585000002002F003FD3B6900221A61386900F064
:1058600097FAB86103E0386900F092FAB861BA6952
:105870007B699A421DD9BB697A68B968386900F0BA
:10588000BFF8F861FB69002B13D001F053F9FB68F6
:105890005B69002B0BD0FB68586900230093002341
:1058A0000022002102F056FDFB6800225A6101F03F
:1058B0004FF9FB6918462037BD4680BD1CF5030033
:1058C00080B586B000AF78607B683B613B69002B98
:1058D00004D14FF47671164803F05AFF3B691B7FE1
:1058E00003F00103002B1CD0386900F051FAF86076
:1058F000FB68042B0AD93B691B6807F108010422E5
:10590000386900F0EBF9BB687B610CE0FB68002BA9
:1059100004D040F2ED31064803F03AFF00237B61EA
:1059200001E000237B617B6918461837BD4680BDC6
:105930001CF5030080B58EB002AFF860B9607A60E4
:105940003B60FB687B620023FB62BB68002B04D1D9
:1059500040F20241294803F01BFF7B6A002B04D16F
:1059600040F20341254803F013FF7B6A1B7F03F0DD
:105970000103002B02D00423BB6201E00023BB62C1
:10598000786A00F005FA38623A6ABB6A9A422FD9FF
:105990003B6A7A68B968786A00F032F8F862FB6AA4
:1059A000002B25D0EFF311824FF0050383F311880C
:1059B000BFF36F8FBFF34F8FBA617B61BB69FB6130
:1059C0007B6A5B69002B0DD07B6A58693B68019349
:1059D0000023009300230022002102F0C7FD7B6A10
:1059E00000225A61FB693B613B6983F3118800BF68
:1059F000FB6A18463037BD4680BD00BF1CF503006A
:105A000080B588B000AFF860B9607A603B60FB6831
:105A10001B68BB61FB681B7F03F00103002B13D0E5
:105A200007F11001BB690422F86800F057F9B8616A
:105A30003B69FB613B68043B3B60FA697B689A42C7
:105A400004D90023FB6101E07B68FB613A68FB69D4
:105A5000934228BF13467B617B69002B08D0BB694A
:105A60007A69B968F86800F039F90246FB681A608B
:105A70007B6918462037BD4680BD000080B586B0E2
:105A800000AF78607B683B613B69002B04D140F23A
:105A90006D410A4803F07CFE3B691B68FB603B6973
:105AA0005B68FA689A4202D101237B6101E000231E
:105AB0007B617B6918461837BD4680BD1CF5030025
:105AC00080B586B000AF78607B68FB60FB68002B18
:105AD00004D140F285410F4803F05AFEFB681B7F5A
